:0400000063EF00F0BA
:0C000800FACF9FF0FBCFA0F068EF09F0EA
:10001800D8CF1CF0E8CF1DF0E0CF1EF0FACF1FF0CC
:10002800FBCF20F0E9CF21F0EACF22F0E1CF23F097
:10003800E2CF24F0D9CF25F0DACF26F0F3CF27F09E
:10004800F4CF28F0F6CF29F0F7CF2AF0F8CF2BF02D
:10005800F5CF2CF09EAC03D09E9C70EC0DF09EA0CA
:1000680003D09E900CEC0EF09EB8FFEC0AF09EAA0E
:1000780003D09E9AFCEC07F02CC0F5FF2BC0F8FFCC
:100088002AC0F7FF29C0F6FF28C0F4FF27C0F3FFF6
:1000980026C0DAFF25C0D9FF24C0E2FF23C0E1FF54
:1000A80022C0EAFF21C0E9FF20C0FBFF1FC0FAFF02
:1000B8001EC0E0FF1DC0E8FF1CC0D8FF100033EFD2
:1000C8000BF0000120EE0DF00001CF51D926000100
:1000D800D051DA22DF50050AD8B41200B5D1000198
:1000E80020EE1CF00001CF51D9260001D051DA22B0
:1000F800DF5000019A6F00019AA10BD0000120EE99
:100108000DF00001CF51D9260001D051DA22070E97
:100118000AD0000120EE0DF00001CF51D9260001D0
:10012800D051DA22090EDF6E000120EE0BF000013B
:10013800CF51D9260001D051DA22000EDF6E00011E
:1001480020EE1CF00001CF51D9260001D051DA224F
:10015800DF50C96E1200C5BC70D0000120EE1BF044
:100168000001CF51D9260001D051DA22DF50000119
:100178009A6F00019A51010D100EF326000EF42219
:10018800F35000010001CF25D96EF45000010001A1
:10019800D021DA6EDF50C96E000120EE1AF000019E
:1001A800CF51D9260001D051DA22DF5000019A6FD1
:1001B8009B6B000120EE1BF00001CF51D9260001F6
:1001C800D051DA22DF5000019C6F9D6B010E0001B7
:1001D8009C27000E9D2300019D51800A00019E6FFF
:1001E80000019A5100019C5D00019B51800A0001A9
:1001F8009E59D8B016D0000120EE1BF00001CF5157
:10020800D9260001D051DA22DF2A000120EE0DF0B4
:100218000001CF51D9260001D051DA22090EDF6E34
:100228001200000120EE0DF00001CF51D926000187
:10023800D051DA220D0EDF6E1200C582000120EEC9
:100248000DF00001CF51D9260001D051DA220A0E53
:10025800DF6E1200C5BC0DD0C586000120EE0DF082
:100268000001CF51D9260001D051DA220C0EDF6EE1
:100278001200000120EE04F00001CF51D926000140
:10028800D051DA22780EDF6201D08A8400019A6F99
:100298002E0E00010001966F00019A510001000125
:1002A800D0C098F000010001CFC097F0000E12EC0A
:1002B8000DF08A94000120EE0AF00001CF51D926F2
:1002C8000001D051DA22000EDF6E000120EE0DF0A1
:1002D8000001CF51D9260001D051DA22050EDF6E78
:1002E80012008A828A92000120EE0BF00001CF51A1
:1002F800D9260001D051DA22DF5000019A6F00019F
:1003080020EE0AF00001CF51D9260001D051DA229F
:10031800DF5000019A5DD8B030D0000120EE0BF01C
:100328000001CF51D9260001D051DA22DF50000157
:100338009A6F00019A51010DF35000010001CF2579
:10034800D96EF45000010001D021DA6EC9CFDFFF69
:10035800000120EE0BF00001CF51D9260001D05149
:10036800DA22DF2A000120EE0DF00001CF51D92654
:100378000001D051DA22070EDF6E000120EE0BF0EB
:100388000001CF51D9260001D051DA22000110EE28
:100398000AF00001CF51E1260001D051E222E750D6
:1003A800DF622AD0000120EE0DF00001CF51D926DE
:1003B8000001D051DA220B0EDF6E00019A6F2D0E6C
:1003C80000010001966F00019A5100010001D0C0A0
:1003D80098F000010001CFC097F0000120EE0AF06C
:1003E8000001CF51D9260001D051DA22DF5012EC9A
:1003F8000DF0C58AC5881200C59AC588120000018B
:1004080020EE0DF00001CF51D9260001D051DA229B
:10041800050EDF6E000120EE0AF00001CF51D9264B
:100428000001D051DA22DF5066EC0BF01200C584CF
:10043800000120EE0DF00001CF51D9260001D05166
:10044800DA22050EDF6E1200000120EE0DF0000129
:10045800CF51D9260001D051DA22DF50070AD8B48B
:10046800F9D60E0AD8B477D6030AD8B438D6010A12
:10047800D8B4DDD7070AD8B434D7010AD8A41200F3
:10048800BED7820ED36E9B9C0201020E00010001B2
:10049800AE6F0201570E00010001AD6FA1EC0DF027
:1004A8000201020E00010001AE6F0201640E00019C
:1004B8000001AD6F95EC0AF00201020E0001000187
:1004C800AE6F0201530E00010001AD6FDFEC0DF0BD
:1004D8005EEC0AF0000E936E000E8A6E000E806EBF
:1004E800000E896E0F0E926ED50E48EC0DF0850E3B
:1004F800C0EC0CF09F9C9D8C9F909F9A9F989F8624
:1005080081EC0DF09D86000E00010001AE6F260EF5
:100518000001AD6FFC0E98EC08F0AB8E946818ECF7
:100528000EF00101CB6F0C0E00010001AD6F01014F
:10053800CB510101CC6F0B0E00010001AE6F010120
:10054800CC51530E26EC09F08F0E91EC0DF0D1C072
:1005580043F2D2C044F2A9EC09F00201020E0001F4
:100568000001C66F0201550E00010001C56F0201AE
:10057800020E00010001C86F0201460E00010001D1
:10058800C76F0A0E7FEC0CF002010201566F0201E0
:10059800020156BF4DD03CD00201020E00010001FD
:1005A800AE6F0201510E00010001AD6F02010001A2
:1005B80055C2AFF000010001B06B020102015651B3
:1005C80000010001B16F0001B26B0001B1BFB207B9
:1005D8000201020E00010001B46F0201460E000183
:1005E8000001B36FD6EC0DF023D046C245F220D0FF
:1005F8000201020E00010001AE6F0201460E000169
:100608000001AD6F020102015651A2EC07F010D0B3
:100618000201020155510A0AD8B4BED7220AD8B439
:10062800E4D7010AD8B4E1D7040AD8B4E1D7030A59
:100638000201020E00010001C66F0201550E000101
:100648000001C56F0201020E00010001C86F02011E
:10065800460E00010001C76F0A0E5EEC0CF00201A5
:100668000201566F0201020156BF75D772D002010E
:10067800020E00010001C86F0201530E00010001C3
:10068800C76F0201000155C2C9F000010001CA6B21
:1006980002010201565100010001CB6F0001CC6B31
:1006A8000001CBBFCC070201020E00010001CE6F92
:1006B8000201460E00010001CD6F25EC0AF04BD770
:1006C800020102014651BA0AD8A41ED00101CB6F1B
:1006D800050E00010001AD6F0101CB510201020EB0
:1006E80000010001AF6F0201460E00010001AE6F6C
:1006F8000101CC6FBE0E00010001B06F0101CC51A9
:10070800050E69EC04F023D0020102014651AA0A41
:10071800D8A41DD00101CB6F050E00010001AD6FFB
:100728000101CB510201020E00010001AF6F02016D
:10073800460E00010001AE6F0101CC6F9E0E000154
:100748000001B06F0101CC51010E69EC04F08A94EC
:1007580002D70201020155510B0AD8B488D7150AED
:10076800D8B4AED7010AD8B4ABD7F5D6000120EE7D
:1007780042F00001B751D9260001B851DA22DF5002
:1007880000010001C06F00010001C0510D0DF350C0
:1007980000010001B72500010001C36FF4500001FA
:1007A8000001B8210001C46F010EC3C0D9FFC4C045
:1007B800DAFFDF6288D0000120EE01F00001C351AA
:1007C800D9260001C451DA22DF5000010001B95DC9
:1007D800D8B002D0FD0E1200000120EE01F0000199
:1007E800C351D9260001C451DA22DF500001BE6F7F
:1007F8000001BE5100010001C16F0001C26B000180
:100808000001BDC0AEF000010001BCC0ADF0030E98
:1008180000010001C3250001BE6F000E00010001A8
:10082800C4210001BF6FBEC0AFF0BFC0B0F0C1C0EF
:10083800B1F0C2C0B2F098EC0BF0000120EE42F02B
:100848000001B751D9260001B851DA22000110EE93
:1008580042F00001B751E1260001B851E222E75009
:100868000001BE6F010E0001BE2500010001AD6F41
:1008780000010001AE6B000EAE23000E0001000166
:10088800B06F050E0001AF6F34EC06F000010001F7
:10089800AD51DF6E000120EE02F00001C351D926F0
:1008A8000001C451DA22BAC0E1FFBBC0E2FFDFCFCA
:1008B800E7FFC3C0D9FFC4C0DAFF000EDF6E000136
:1008C8000001C1511200FC0E1200E8CFB3F0000184
:1008D80020EE1AF00001CF51D9260001D051DA22BA
:1008E800000EDF6E42D0000120EE1AF00001CF5159
:1008F800D9260001D051DA22DF500001B16F000182
:10090800B151010DF35000010001AE25D96EF4502C
:1009180000010001AF21DA6E000110EE1AF00001AB
:10092800CF51E1260001D051E222E7500001B26F19
:100938000001B251010D100EF326000EF422F350FF
:1009480000010001CF25E16EF45000010001D02123
:10095800E26EDFCFE7FF000120EE1AF00001CF5171
:10096800D9260001D051DA22DF2A000120EE1AF040
:100978000001CF51D9260001D051DA22DF50000101
:10098800B16F00010001B3510001B15DD8A0ABD730
:10099800000120EE1CF00001CF51D9260001D051F2
:1009A800DA220001B0C0DFFF000120EE1AF00001DA
:1009B800CF51D9260001D051DA220001B3C0DFFFA0
:1009C800000120EE0AF00001CF51D9260001D051D4
:1009D800DA220001ADC0DFFF000120EE0DF00001BA
:1009E800CF51D9260001D051DA220A0EDF6E00015C
:1009F80020EE1BF00001CF51D9260001D051DA2298
:100A0800000EDF6EC580120000010001B9C0BEF003
:100A180000010001BF6B000120EE41F00001B75159
:100A2800D9260001B851DA22DF5000010001C06F59
:100A380000010001C0510D0DF35000010001B72560
:100A480000010001C16FF45000010001B82100014C
:100A5800C26FC1C0D9FFC2C0DAFFDF50D8B402D01C
:100A6800FF0E1200000120EE01F00001C151D9264D
:100A78000001C251DA220001B9C0DFFF000120EEF7
:100A880002F00001C151D9260001C251DA22000149
:100A9800BAC0DFFF030E00010001C12500010001FB
:100AA800AD6F000E00010001C2210001AE6F000110
:100AB8000001BCC0B0F000010001BBC0AFF0BEC077
:100AC800B1F0BFC0B2F098EC0BF0000120EE41F09D
:100AD8000001B751D9260001B851DA22000110EE01
:100AE80041F00001B751E1260001B851E222E75078
:100AF8000001BD6F010E0001BD2500010001AD6FB1
:100B080000010001AE6B000EAE23000E00010001D3
:100B1800B06F050E0001AF6F34EC06F00001000164
:100B2800AD51DF6EC1C0D9FFC2C0DAFF010EDF6E62
:100B3800010E1200000100018CC091F000010001BB
:100B4800926B000120EE41F000018A51D926000184
:100B58008B51DA22DF5000010001936F0001000180
:100B680093510D0DF350000100018A250001000189
:100B7800946FF450000100018B210001956F94C01F
:100B8800D9FF95C0DAFFDF50D8B402D0FF0E1200AB
:100B9800000120EE01F000019451D9260001955181
:100BA800DA2200018CC0DFFF000120EE02F0000114
:100BB8009451D92600019551DA2200018DC0DFFF3A
:100BC800030E00010001942500010001806F000E52
:100BD8000001000195210001816F000100018FC013
:100BE80083F0000100018EC082F091C084F092C0B1
:100BF80085F0C7EC0BF0000120EE41F000018A51AE
:100C0800D92600018B51DA22000110EE41F00001D3
:100C18008A51E12600018B51E222E7500001906FD2
:100C2800010E0001902500010001806F0001000104
:100C3800816B000E8123000E00010001836F050EF9
:100C48000001826FBBEC06F0000100018051DF6EED
:100C580094C0D9FF95C0DAFF010EDF6E010E1200B5
:100C68000001B16F000E00010001B36F0001B15126
:100C780000010001AE51800AF36E800EF35C000E95
:100C8800D8B4AD5DD8B00FD000010001AD6D000142
:100C9800AE1FD8B0AE2B0001B16F010E00010001EC
:100CA800B36F0001B15100010001B051800AF36E29
:100CB800800EF35C000ED8B4AF5DD8B007D0000149
:100CC8000001AF6D0001B01FD8B0B02B00010001CA
:100CD800B051AF11D8B43AD00001B16F010E000184
:100CE8000001B26F0001B15109D0000100010001FB
:100CF800D890AF37B03700010001B22B00010001D6
:100D0800B0AFF3D700010001AF5100010001AD5DA4
:100D180000010001B05100010001AE59D8A00CD06B
:100D280000010001AF5100010001AD5F00010001A9
:100D3800B05100010001AE5B000100010001D89034
:100D4800B033AF3300010001B22FDCD7000100013E
:100D5800B351D8B407D000010001AD6D0001AE1F3A
:100D6800D8B0AE2BADC0ADF0AEC0AEF012000001F1
:100D7800846F000E00010001866F0001845100019C
:100D880000018151800AF36E800EF35C000ED8B426
:100D9800805DD8B00FD000010001806D0001811F77
:100DA800D8B0812B0001846F010E00010001866F0D
:100DB80000018451000100018351800AF36E800E06
:100DC800F35C000ED8B4825DD8B007D000010001F2
:100DD800826D0001831FD8B0832B0001000183516D
:100DE8008211D8B43AD00001846F010E00010001CD
:100DF800856F0001845109D0000100010001D890DD
:100E08008237833700010001852B0001000183AF81
:100E1800F3D700010001825100010001805D00014B
:100E280000018351000100018159D8A00CD00001B4
:100E38000001825100010001805F0001000183511F
:100E480000010001815B000100010001D89083339B
:100E5800823300010001852FDCD700010001865193
:100E6800D8B407D000010001806D0001811FD8B0FF
:100E7800812B80C080F081C081F012000DC012F07B
:100E8800136A20EE41F00B50D9260C50DA22DF50BD
:100E9800146E14500D0DF3500B24156EF4500C20E5
:100EA800166E15C0D9FF16C0DAFFDF50D8B402D0CD
:100EB800FF0E120020EE01F01550D9261650DA2246
:100EC8000DC0DFFF20EE02F01550D9261650DA22A9
:100ED8000EC0DFFF030E1524016E000E1620026EF1
:100EE80010C004F00FC003F012C005F013C006F0E4
:100EF800A0EC0CF020EE41F00B50D9260C50DA2271
:100F080010EE41F00B50E1260C50E222E750116E32
:100F1800010E1124016E026A000E0222000E046EF8
:100F2800050E036E4AEC08F00150DF6E15C0D9FFBC
:100F380016C0DAFF010EDF6E010E1200E8CFB1F025
:100F480020EE0BF05550D9265650DA22000EDF6EEF
:100F580035D020EE0BF05550D9265650DA22DF5006
:100F68000001AF6F0001AF51010DF3500001000106
:100F7800AD25D96EF45000010001AE21DA6E10EEF5
:100F88000BF05550E1265650E222E7500001B06FB1
:100F98000001B051010D060EF326000EF422F350A5
:100FA8005524E16EF4505620E26EDFCFE7FF20EEC5
:100FB8000BF05550D9265650DA22DF2A20EE0BF0D6
:100FC8005550D9265650DA22DF500001AF6F000184
:100FD8000001B1510001AF5DD8A0BBD720EE0CF0E5
:100FE8005550D9265650DA22000EDF6E9D88120021
:100FF8009EAA3CD020EE05F05550D9265650DA224C
:10100800DF501B6E1B50010DF3505524D96EF45060
:101018005620DA6EB0EC0DF0DF6E20EE05F055507C
:10102800D9265650DA22DF2A20EE05F05550D92667
:101038005650DA22050EDF6219D01B6E1F0E176E8E
:101048001B5056C019F055C018F020EE05F0555049
:10105800D9265650DA22DF505DEC0DF020EE05F06F
:101068005550D9265650DA22000EDF6E4AA61200D5
:10107800AB98AB881B6E1E0E176E1B50000E196EB8
:10108800000E186E000E5DEC0DF01200056E000EDD
:10109800076E05500250800AF36E800EF35C000E56
:1010A800D8B4015CD8B008D0016C021ED8B0022AAE
:1010B800056E010E076E05500450800AF36E800E0F
:1010C800F35C000ED8B4035CD8B004D0036C041EE3
:1010D800D8B0042A04500310D8B41AD0056E010EF3
:1010E800066E055004D0D89003360436062A04AE9E
:1010F800FAD70350015C04500258D8A004D003501A
:10110800015E0450025AD89004320332062EF1D7F9
:101118000750D8B404D0016C021ED8B0022A01C00E
:1011280001F002C002F01200E8CFB2F0000EAC6E7F
:10113800000EAB6E00010001B2B1AC8800010001E5
:10114800B2A302D0AC8CAB8C00010001B2B5AC8E5E
:1011580000010001B2A702D0AB8801D0AB8A000120
:101168000001B2B9AC849E9800010001B2BBAB8605
:1011780000010001B2AD02D09D8A01D09D9A9E9ACD
:1011880000010001B2AF02D09D8801D09D98ADC08A
:10119800AFFF0001AEC0AFF0AFC0B0F00001B16B5F
:1011A8000001B051B06EAC8AAB8E949C948EACA802
:1011B8001200ACBE1200948C120000010001B05164
:1011C800AF11D8B43AD00001B16F010E000100018F
:1011D800B26F0001B15109D0000100010001D8909F
:1011E800AF37B03700010001B22B00010001B0AFEA
:1011F800F3D700010001AF5100010001AD5D00010E
:101208000001B05100010001AE59D8A00CD0000176
:101218000001AF5100010001AD5F00010001B051B4
:1012280000010001AE5B000100010001D890B0335D
:10123800AF3300010001B22FDCD7ADC0ADF0AEC0B6
:10124800AEF01200E8CFB1F0000EC26E000EC06E14
:1012580000010001D890AD313C0BC26EADC0AFF0BB
:101268000001AF3BF00EAF17300E0001AF170001C1
:101278000001AE510F0B0001AF11C16EB1C0AFF04C
:101288000001D890AF370001D890AF37380E000171
:10129800AF17B1C0B0F00001B03B0F0EB017070E8A
:1012A8000001B01700010001B151800B0001B0111D
:1012B8000001AF11C06E00010001ADAF03D09E9CCC
:1012C8009D8CF28CC2801200E9CFA1F0EACFA2F087
:1012D800E1CFA3F0E2CFA4F0D9CFA5F0DACFA6F002
:1012E800F3CFA7F0F4CFA8F0F6CFA9F0F7CFAAF084
:1012F800F8CFABF0F5CFACF09EA603D09E961CECD1
:101308000EF0F2A403D0F294BFEC0DF0CAEC0AF090
:10131800ACC0F5FFABC0F8FFAAC0F7FFA9C0F6FF45
:10132800A8C0F4FFA7C0F3FFA6C0DAFFA5C0D9FF85
:10133800A4C0E2FFA3C0E1FFA2C0EAFFA1C0E9FF89
:10134800A0C0FBFF9FC0FAFF11003CEC0CF00001AD
:101358000001B2510001B111D8B412000001B36FFD
:10136800010E496E0001B3510101010E0001000197
:10137800AE6F0101430E00010001AD6FF7EC0CF0F8
:101388000009D8B407D00001B36F000E496E000100
:10139800B35112000101010E00010001AE6F0101FD
:1013A800860E00010001AD6FF7EC0CF00009D8B40F
:1013B80007D00001B36F000E496E0001B35112004F
:1013C8000A0ECBEC0DF0D0D7000120EE41F0000161
:1013D800AD51D9260001AE51DA22000EDF6E0001B0
:1013E80020EE42F00001AD51D9260001AE51DA22BB
:1013F800000EDF6E0001AF6F000E00010001B06F3C
:101408000001AF51040E00010001B06501D01200C7
:1014180000010001B0510D0DF35000010001AD2590
:10142800D96EF45000010001AE21DA6E000EDF6EB5
:1014380000010001B02B040E00010001B065E8D7DF
:101448001200C7C0D9FFC8C0DAFFDE2A000EDD22AD
:10145800C7C0D9FFC8C0DAFF0001DECFADF0000178
:10146800DDCFAEF0000E00010001B06F0A0E0001E2
:10147800AF6FE1EC08F000010001AD51090A00016D
:10148800AE11D8A412000101C96F140E00010001A9
:10149800C36F0101C95100010001C8C0C5F00001B6
:1014A8000001C7C0C4F0020EDCEC0CF00101010120
:1014B800CA6F12000001B16F000E496E0001B151F0
:1014C8000101010E00010001AE6F0101860E00014D
:1014D8000001AD6FE8EC09F00101010E0001000107
:1014E800AE6F0101430E00010001AD6FE8EC09F099
:1014F8000101010E00010001AE6F0101000E0001A3
:101508000001AD6FE8EC09F00201020E00010001D4
:10151800AE6F0201000E00010001AD6FE8EC09F0AA
:10152800120000010001AEC0D0F000010001ADC002
:10153800CFF0000120EE0AF00001CF51D9260001BA
:10154800D051DA22000EDF6E000120EE0CF000010F
:10155800CF51D9260001D051DA22000EDF6E0001EA
:1015680020EE0DF00001CF51D9260001D051DA222A
:10157800050EDF6E000120EE0FF00001CF51D926D5
:101588000001D051DA22000EDF6E1200496601D048
:10159800120019EC0CF000010001835100018211C6
:1015A800D8A4120003EC0EF00001000181510001E3
:1015B8008011D8B412000101010E00010001816FF1
:1015C8000101430E00010001806F2DEC0DF00009B0
:1015D800D8A412000101010E00010001816F010170
:1015E800860E00010001806F2DEC0DF00009D8B4C3
:1015F8001FEC0EF01200ACA2120020EE0CF05550B9
:10160800D9265650DA22DF50016E20EE0BF05550E5
:10161800D9265650DA22DF50015CD8B01ED020EE11
:101628000CF05550D9265650DA22DF50016E015081
:10163800010D060EF326000EF422F3505524D96E40
:10164800F4505620DA6EDF50AD6E20EE0CF0555097
:10165800D9265650DA22DF2A12009D98120002EE8F
:1016680000F0430EEE6AE806FDE101EE00F0C90E57
:10167800EE6AE806FDE100EE2DF01E0EEE6AE806C1
:10168800FDE1480EF66E1C0EF76E000EF86E0900AE
:10169800F5CFD1F00900F5CFD2F0260EF66E1C0E6C
:1016A800F76E000EF86E00EE4BF010EE0AF009002F
:1016B800F5CFEEFFE550E150FAE1000EF86E0001BB
:1016C80045EF02F0E8CF80F0000120EE0DF00001B8
:1016D800CF51D9260001D051DA22050EDF6212005F
:1016E800000120EE1CF00001CF51D9260001D05195
:1016F800DA22000EDB80000120EE0AF00001CF5153
:10170800D9260001D051DA22000180C0DFFF000194
:1017180020EE0DF00001CF51D9260001D051DA2278
:101728000A0EDF6EC582120000010001B0C0B6F0DB
:1017380000010001AFC0B5F000010001AEC0B4F077
:1017480000010001ADC0B3F012D0B5C0D9FFB6C0DA
:10175800DAFFB3C0E1FFB4C0E2FFDFCFE7FF00016B
:101768000001B54BB62B00010001B34BB42B0001AF
:101778000001B107D8A0B2070001B129D8B4B22935
:10178800D8B41200E2D70001000183C089F000013B
:10179800000182C088F00001000181C087F00001CB
:1017A800000180C086F012D088C0D9FF89C0DAFF56
:1017B80086C0E1FF87C0E2FFDFCFE7FF000100013D
:1017C800884B892B00010001864B872B0001000103
:1017D8008407D8A0850700018429D8B48529D8B4FE
:1017E8001200E2D7F2AC08D0000E00010001B06F81
:1017F800000E0001AF6F1200E8EC0DF000010001CF
:10180800AE510001AD11D8B408D0000E000100019E
:10181800B06F000E0001AF6F1200000E0001000152
:10182800B06F010E0001AF6F1200F2AC08D0000ECD
:1018380000010001836F000E0001826F120003ECAB
:101848000EF000010001815100018011D8B408D0C8
:10185800000E00010001836F000E0001826F12006C
:10186800000E00010001836F010E0001826F12005B
:10187800F6EC0BF000010001B0510001AF11D8A443
:1018880011D0E8EC0DF000010001AE510001AD11DE
:10189800D8A408D0000E00010001B26F010E0001AB
:1018A800B16F1200000E00010001B26F000E0001BE
:1018B800B16F1200E8CFC9F00101010E000100016B
:1018C800B86F0101860E00010001B76FC9C0B9F0F9
:1018D80000010001C6C0BBF000010001C5C0BAF09C
:1018E80000010001C8C0BDF000010001C7C0BCF084
:1018F800BAEC03F01200E8CFC9F00101010E0001B3
:101908000001B86F0101430E00010001B76FC9C0A3
:10191800B9F000010001C6C0BBF000010001C5C05C
:10192800BAF000010001C8C0BDF000010001C7C045
:10193800BCF0BAEC03F0120004C00AF003C009F0CE
:1019480002C008F001C007F00ED009C0D9FF0AC0D4
:10195800DAFF07C0E1FF08C0E2FFDFCFE7FF094A6F
:101968000A2A074A082A0506D8A006060528D8B470
:101978000628D8B41200E9D7E8CFADF0000100017D
:10198800AD517E0BCD6E00010001ADAD02D0CD8E04
:1019980001D0CD9E000ECF6E000ECE6E9E9000013F
:1019A8000001ADAF02D09D8001D09D90CD80120086
:1019B800E8CFC6F00201020E00010001B86F020173
:1019C800000E00010001B76FC6C0B9F0C3C0BAF07D
:1019D80000010001C5C0BCF000010001C4C0BBF09B
:1019E80008EC05F01200000120EE42F00001AD51B4
:1019F800D9260001AE51DA22DF500001AF6F000195
:101A0800AF510D0DF35000010001AD25D96EF45012
:101A180000010001AE21DA6EDF501200E8CF99F024
:101A28000101010E000100018B6F0101430E00014D
:101A380000018A6F99C08CF096C08DF000010001FA
:101A480098C08FF00001000197C08EF09EEC05F061
:101A58001200000120EE42F000018051D926000159
:101A68008151DA22DF500001826F000182510D0D91
:101A7800F350000100018025D96EF45000010001E7
:101A88008121DA6EDF501200E8CFADF000010001CD
:101A9800AD517F0BD56E000ED76E000ED66EF29448
:101AA80000010001ADAF02D0F28A01D0F29AD58EC2
:101AB8001200E8CF1AF00101010E0C6E0101860E2A
:101AC8000B6E1AC00DF017C00EF019C010F018C038
:101AD8000FF042EC07F012001B0E2D5CD8B002D0BC
:101AE8002D282D6E2D50010D2D0EF324D96E000ECC
:101AF800F420DA6EC4CFDFFF1200000EC76E000EAE
:101B0800C66E000EC56E948694881D0EC86EC650AB
:101B1800F00B0809C66EC68A1200E8CFAEF0C2CF35
:101B2800ADF0C30E0001AD1700010001D890AE3131
:101B38003C0B0001AD11C26E12000001AEC056F0A0
:101B48000001ADC055F020EE05F05550D92656508D
:101B5800DA22000EDF6E1200F20E4A16ABAC03D08A
:101B68004A90ABB04A80ABB44A84ABB24A86AECF97
:101B780001F001501200000E00010001816F000EFB
:101B88000001806FFAEC0DF022EC0EF01200E8CFA5
:101B9800ADF0FA0E00F0E82EFDD700010001AD2FE0
:101BA800F8D7120000010001B4C0B6F0000100012E
:101BB800B3C0B5F01200ADC0D9FFAEC0DAFF000E59
:101BC800DE6E000EDD6E1200000EF2AE010E000198
:101BD8000001AD6F0001AE6B120001C003F002C03E
:101BE80004F004C0CFFF03C0CEFF120080C082F013
:101BF80081C083F083C0D7FF82C0D6FF1200000ED9
:101C0800F2AE010E00010001806F0001816B12002D
:101C1800000E026E000E016EF1EC0DF012000101D3
:101C28000203070203040900D08EF28EF28C120020
:101C380065EC00F01200D38E03001200C28212007D
:021C4800010297
:067FF80080F4C5FFFFF15B
:00000001FF
