:0400000060EF00F0BD
:0C000800FACFA0F0FBCFA1F0B0EF09F0A0
:10001800D8CF1CF0E8CF1DF0E0CF1EF0FACF1FF0CC
:10002800FBCF20F0E9CF21F0EACF22F0E1CF23F097
:10003800E2CF24F0D9CF25F0DACF26F0F3CF27F09E
:10004800F4CF28F0F6CF29F0F7CF2AF0F8CF2BF02D
:10005800F5CF2CF09EAC03D09E9C55EC0DF09EA0E5
:1000680003D09E90D5EC0DF09EAA03D09E9A92ECF8
:1000780008F02CC0F5FF2BC0F8FF2AC0F7FF29C0F5
:10008800F6FF28C0F4FF27C0F3FF26C0DAFF25C01B
:10009800D9FF24C0E2FF23C0E1FF22C0EAFF21C04C
:1000A800E9FF20C0FBFF1FC0FAFF1EC0E0FF1DC014
:1000B800E8FF1CC0D8FF100041EF0BF00001936F60
:1000C800000E000100019F6F000193510001936F22
:1000D800000E000100019A6F000193510001936F17
:1000E800000E000100019E6F000193510001936F03
:1000F800000E000100019D6F000193510001936FF4
:10010800000E000100019B6F00019351C6AC29D07D
:10011800C69C000120EE1FF00001D051D926000135
:10012800D151DA22050EDF6E0001936F010E000136
:1001380000019B6F00019351000120EE21F00001A6
:10014800D051D9260001D151DA22DF2A000120EE50
:1001580020F00001D051D9260001D151DA22040E35
:10016800DF6EC7A00AD0C9CF9CF00001936F010EC3
:10017800000100019F6F00019351000100019B677E
:10018800CED1B7D1C7A6CBD1000100019F51D9EC80
:1001980007F0000120EE1FF00001D051D926000120
:1001A800D151DA22080EDF62BAD10001936F000E36
:1001B800000100019F6F000193510001936F010E30
:1001C800000100019D6F87D1C7A830D0000120EE43
:1001D8001EF00001D051D9260001D151DA22DF2AC0
:1001E800000100019F51D8B479D1C7BA09D00001E4
:1001F800936F010E000100019E6F000193516ED1B3
:10020800000120EE21F00001D051D9260001D15182
:10021800DA22DF2A000120EE20F00001D051D92691
:100228000001D151DA22060EDF6E58D1000100011B
:100238009F51D8B474D1000120EE1EF00001D051B6
:10024800D9260001D151DA22DF2AC7BA19D0C7B49A
:100258000BD0000120EE1FF00001D051D92600017B
:10026800D151DA22070E76D0000120EE1FF00001EE
:10027800D051D9260001D151DA22080EDF6E1DD1E6
:10028800000120EE21F00001D051D9260001D15102
:10029800DA22DF2A000120EE1FF00001D051D92612
:1002A8000001D151DA22050EDF6E000120EE20F0A8
:1002B8000001D051D9260001D151DA22060E4AD0C8
:1002C800000120EE3FF00001D051D9260001D151A4
:1002D800DA22DF500001936F000120EE3EF00001AA
:1002E800D051D9260001D151DA22DF500001935DA7
:1002F800D8B0F4D0000120EE3FF00001D051D9264B
:100308000001D151DA22DF500001936F00019351AF
:10031800010D220EF326000EF422F3500001000115
:10032800D025D96EF45000010001D121DA6EDF50DA
:10033800C96E000120EE3FF00001D051D92600011E
:10034800D151DA22DF2A0001936F010E000100016A
:100358009A6FC1D0DF6EE3D0C7A862D0000120EE4B
:100368001EF00001D051D9260001D151DA22DF2A2E
:10037800000100019F51D8B44AD0C7AA27D0000174
:1003880020EE1CF00001D051D9260001D151DA220B
:10039800DF500001936F00019351010DF3500001EC
:1003A8000001D025D96EF45000010001D121DA6E88
:1003B80000019CC0DFFF000120EE1CF00001D051BD
:1003C800D9260001D151DA22DF2A21D0000120EEFE
:1003D80021F00001D051D9260001D151DA22DF2ABB
:1003E800000120EE20F00001D051D9260001D151A2
:1003F800DA22060EDF6E000120EE1FF00001D05158
:10040800D9260001D151DA22050EDF6E67D000012E
:10041800936F010E000100019E6F000193515ED0A1
:10042800000100019F51D8B47AD0000120EE1EF0DF
:100438000001D051D9260001D151DA22DF2AC7AAFA
:1004480027D0000120EE1CF00001D051D926000170
:10045800D151DA22DF500001936F00019351010D51
:10046800F35000010001D025D96EF45000010001BD
:10047800D121DA6E00019CC0DFFF000120EE1CF0E4
:100488000001D051D9260001D151DA22DF2A47D004
:10049800C7A4B6D6000120EE1FF00001D051D9261E
:1004A8000001D151DA22080EDF6E0001936F010EB0
:1004B800000100019E6F000193510001936F010E2E
:1004C800000100019D6F000193510001936F000E20
:1004D800000100019F6F0001935121D0000120EE1F
:1004E8001FF00001D051D9260001D151DA22050EA2
:1004F80031D7000120EE1FF00001D051D9260001AC
:10050800D151DA22DF50050AD8B43CD6030AD8B450
:100518005BD6010AD8B420D70F0AD8B4D1D60001C7
:1005280000019F6705D0000100019A51D8B402D09C
:10053800C6A8C688000120EE1CF00001D051D926BB
:100548000001D151DA221A0EDF6424D00001000123
:100558009E6720D0000120EE1FF00001D051D9265F
:100568000001D151DA22050EDF6E000120EE21F0E4
:100578000001D051D9260001D151DA22DF2A000129
:1005880020EE20F00001D051D9260001D151DA2205
:10059800070EDF6E000100019E51D8B448D000015B
:1005A80020EE1EF00001D051D9260001D151DA22E7
:1005B800000110EE1CF00001D051E1260001D151DC
:1005C800E222E7500001936F00019351010DF350AF
:1005D80000010001D025E16EF45000010001D12195
:1005E800E26EDFCFE7FF0001936F280E00010001E4
:1005F8008F6F0001935100010001D1C091F00001FB
:100608000001D0C090F0000120EE1CF00001D05194
:10061800D9260001D151DA22DF500001946F000180
:100628009429D5EC0CF0000120EE1CF04BD0000111
:1006380020EE21F00001D051D9260001D151DA2253
:10064800DF50D8B447D0000120EE21F00001D0518E
:10065800D9260001D151DA22DF5000010001976F3D
:10066800000120EE20F00001D051D9260001D1511F
:10067800DA22DF5000010001986F000120EE1EF021
:100688000001D051D9260001D151DA22DF500001F2
:100698000001996F0001936F290E000100018F6F0F
:1006A800000193510001000E00010001916F00014B
:1006B800970E00010001906F030ED5EC0CF00001BD
:1006C80020EE21F00001D051D9260001D151DA22C3
:1006D800000EDF6E000100019D51D8B41200000E1B
:1006E80000010001966F000E0001956FAA0ED0C0A0
:1006F800D9FFD1C0DAFFDF6218D0000E0001000177
:10070800966F030E0001956F0001D1C02EF0000115
:10071800D0C02DF00001000195515FEC07F00001F9
:10072800936F000E346E000193510001936F000E19
:10073800000100019D6F000193511200820ED36EDB
:100748009B8C0101010E00010001AF6F0101AA0E8F
:1007580000010001AE6F76EC0DF00101010E000101
:100768000001AF6F0101B10E00010001AE6FDDECB9
:100778000AF00101010E00010001AF6F0101A80E8E
:1007880000010001AE6FA8EC0DF0A6EC0AF0000E17
:10079800936E000E8A6E000E806E000E896E0F0E2C
:1007A800926ED50E07EC0DF0850E83EC0CF09F9C35
:1007B8009D8C9F909F9A9F869E0E1CEC0DF09D86A7
:1007C800000E00010001AF6F190E0001AE6F6C0E34
:1007D800E0EC08F0E2EC0DF00101806F0C0E000176
:1007E8000001AE6F010180510101816F0B0E000104
:1007F8000001AF6F01018151530E6EEC09F08F0EAD
:1008080066EC0DF0F2C19FF1F3C1A0F1F1EC09F033
:100818000101010E00010001C76F0101B00E0001C6
:100828000001C66F0101010E00010001C96F01013D
:10083800820E00010001C86F1C0E23EC0CF00101B0
:100848000101AF6F01010101AFBF80D06DD001017F
:10085800010E00010001AF6F0101A60E00010001A9
:10086800AE6F01010001B0C1B0F000010001B16B31
:1008780001010101AF5100010001B26F0001B36B2A
:100888000001B2BFB3070101010E00010001B56FFD
:100898000101820E00010001B46F9FEC0DF056D0EB
:1008A80082C1A1F153D00101806F030E0001000144
:1008B800AE6F010180510101010E00010001B06F0E
:1008C8000101820E00010001AF6F0101816F9E0ED0
:1008D80000010001B16F01018151020E28EC05F001
:1008E80035D0F4C1A2F1F5C1A3F10101806F030E67
:1008F80000010001AE6F010180510101010E0001EC
:100908000001B06F0101A20E00010001AF6F0101EB
:10091800816F9E0E00010001B16F01018151020E2D
:1009280028EC05F08A9412D001010101B0510A0A9D
:10093800D8B48DD7220AD8B4B3D7010AD8B4B0D75F
:10094800040AD8B4B0D7030AD8B4CBD70101010E32
:1009580000010001C76F0101B00E00010001C66F60
:100968000101010E00010001C96F0101820E0001A1
:100978000001C86F1C0E02EC0CF001010101AF6F01
:1009880001010101AFBF42D752D00101010E0001A0
:100998000001C96F0101A80E00010001C86F010123
:1009A8000001B0C1CAF000010001CB6B01010101D7
:1009B800AF5100010001CC6F0001CD6B0001CCBF2D
:1009C800CD070101010E00010001CF6F0101820E68
:1009D80000010001CE6F6DEC0AF018D70101010E7D
:1009E80000010001AF6F0101A40E00010001AE6F0C
:1009F80001010001B0C1B0F000010001B16B0101BB
:100A08000101AF5100010001B26F0001B36B000199
:100A1800B2BFB3070101010E00010001B56F01016A
:100A2800820E00010001B46F64EC0CF0EFD60101F6
:100A38000101B0510B0AD8B4A8D7150AD8B4CED73B
:100A4800010AD8B4CBD7E2D6E8CFB4F0000120EE43
:100A58003EF00001D051D9260001D151DA22000E12
:100A6800DF6E42D0000120EE3EF00001D051D926C1
:100A78000001D151DA22DF500001B26F0001B251FA
:100A8800010DF35000010001AF25D96EF4500001AB
:100A98000001B021DA6E000110EE3EF00001D051E5
:100AA800E1260001D151E222E7500001B36F0001B5
:100AB800B351010D220EF326000EF422F35000016B
:100AC8000001D025E16EF45000010001D121E26E51
:100AD800DFCFE7FF000120EE3EF00001D051D9261C
:100AE8000001D151DA22DF2A000120EE3EF0000198
:100AF800D051D9260001D151DA22DF500001B26F5E
:100B080000010001B4510001B25DD8A0ABD70001CB
:100B180020EE40F00001D051D9260001D151DA224F
:100B28000001B1C0DFFF000120EE3EF00001D0510E
:100B3800D9260001D151DA220001B4C0DFFF00013B
:100B480020EE1CF00001D051D9260001D151DA2243
:100B58000001AEC0DFFF000120EE1FF00001D05100
:100B6800D9260001D151DA220A0EDF6E000120EEEB
:100B78003FF00001D051D9260001D151DA22000EF0
:100B8800DF6EC5801200000120EE7DF00001B85133
:100B9800D9260001B951DA22DF5000010001C16FE6
:100BA80000010001C1511F0DF35000010001B825DB
:100BB80000010001C46FF45000010001B9210001D7
:100BC800C56F010EC4C0D9FFC5C0DAFFDF6274D09B
:100BD800000120EE01F00001C451D9260001C551E1
:100BE800DA22DF5000010001BA5DD8B002D0FD0E54
:100BF8001200000120EE01F00001C451D9260001C5
:100C0800C551DA22DF500001BF6F0001BF5100015A
:100C18000001C26F0001C36B00010001BEC0AFF04C
:100C280000010001BDC0AEF0030E00010001C425A3
:100C38000001BF6F000E00010001C5210001C06F57
:100C4800BFC0B0F0C0C0B1F0C2C0B2F0C3C0B3F012
:100C580012EC0BF0000120EE7DF00001B851D9260E
:100C68000001B951DA22000110EE7DF00001B851FF
:100C7800E1260001B951E222E7500001BF6F0001EF
:100C8800BF29030BDF6E000120EE02F00001C45102
:100C9800D9260001C551DA22BBC0E1FFBCC0E2FF82
:100CA800DFCFE7FFC4C0D9FFC5C0DAFF000EDF6E93
:100CB80000010001C2511200FC0E120000010001E7
:100CC800BAC0BFF000010001C06B000120EE7CF04B
:100CD8000001B851D9260001B951DA22DF500001CC
:100CE8000001C16F00010001C1511F0DF350000147
:100CF8000001B82500010001C26FF4500001000195
:100D0800B9210001C36FC2C0D9FFC3C0DAFFDF50E9
:100D1800D8B402D0FF0E1200000120EE01F000014D
:100D2800C251D9260001C351DA220001BAC0DFFF3F
:100D3800000120EE02F00001C251D9260001C35182
:100D4800DA220001BBC0DFFF030E00010001C2254B
:100D580000010001AE6F000E00010001C321000177
:100D6800AF6F00010001BDC0B1F000010001BCC0BF
:100D7800B0F0BFC0B2F0C0C0B3F012EC0BF000018D
:100D880020EE7CF00001B851D9260001B951DA22D1
:100D9800000110EE7CF00001B851E1260001B951C4
:100DA800E222E7500001BE6F0001BE29030BDF6E8F
:100DB800C2C0D9FFC3C0DAFF010EDF6E010E1200F8
:100DC8000001000186C08AF0000100018B6B000160
:100DD80020EE7CF000018451D92600018551DA22E9
:100DE800DF50000100018C6F000100018C511F0DC4
:100DF800F350000100018425000100018D6FF450BB
:100E080000010001852100018E6F8DC0D9FF8EC0C1
:100E1800DAFFDF50D8B402D0FF0E1200000120EE36
:100E280001F000018D51D92600018E51DA2200010E
:100E380086C0DFFF000120EE02F000018D51D926A7
:100E480000018E51DA22000187C0DFFF030E000186
:100E580000018D252D6E000E000100018E212E6EE1
:100E6800000189C030F0000188C02FF08AC031F03D
:100E78008BC032F06EEC0BF0000120EE7CF000012C
:100E88008451D92600018551DA22000110EE7CF048
:100E980000018451E12600018551E222E750336EBA
:100EA8003328030BDF6E8DC0D9FF8EC0DAFF010E29
:100EB800DF6E010E1200E8CF31F0000120EE3EF0A7
:100EC8000001D051D9260001D151DA22000EDF6E7F
:100ED8003AD0000120EE3EF00001D051D9260001A1
:100EE800D151DA22DF502F6E2F50010DF3502D24EF
:100EF800D96EF4502E20DA6E000110EE3EF000019B
:100F0800D051E1260001D151E222E750306E305035
:100F1800010D220EF326000EF422F3500001000109
:100F2800D025E16EF45000010001D121E26EDFCF3F
:100F3800E7FF000120EE3EF00001D051D926000164
:100F4800D151DA22DF2A000120EE3EF00001D05113
:100F5800D9260001D151DA22DF502F6E31502F5C93
:100F6800D8A0B7D7000120EE3EF00001D051D92615
:100F78000001D151DA2231C0DFFF000120EE3FF03D
:100F88000001D051D9260001D151DA22010EDF6EBD
:100F9800000120EE22F00001D051D9260001D151E4
:100FA800DA22DF50C96EC6881200E8CF2DF00001A2
:100FB80020EE1EF00001D051D9260001D151DA22CD
:100FC800010EDF6E000120EE1CF00001D051D92681
:100FD8000001D151DA22000EDF6E2D50D8B43DD079
:100FE800C7AA21D0000120EE1FF00001D051D92658
:100FF8000001D151DA22050EDF6E000120EE21F04A
:101008000001D051D9260001D151DA22DF2A00018E
:1010180020EE20F00001D051D9260001D151DA226A
:10102800050EDF6E1200C7A40CD0000120EE1FF0E1
:101038000001D051D9260001D151DA22080EDF6E05
:101048001200000120EE1FF00001D051D926000146
:10105800D151DA22070EDF6E1200000120EE1FF0D8
:101068000001D051D9260001D151DA22060EDF6ED7
:1010780012000DC012F0136A20EE7CF00B50D92636
:101088000C50DA22DF50146E14501F0DF3500B244D
:10109800156EF4500C20166E15C0D9FF16C0DAFF75
:1010A800DF50D8B402D0FF0E120020EE01F0155028
:1010B800D9261650DA220DC0DFFF20EE02F01550B7
:1010C800D9261650DA220EC0DFFF030E1524016E52
:1010D800000E1620026E10C004F00FC003F012C0FC
:1010E80005F013C006F044EC0CF020EE7CF00B5039
:1010F800D9260C50DA2210EE7CF00B50E1260C5069
:10110800E222E750116E1128030BDF6E15C0D9FFDC
:1011180016C0DAFF010EDF6E010E12009EAA3CD047
:1011280020EE04F05250D9265350DA22DF501B6EBD
:101138001B50010DF3505224D96EF4505320DA6E2F
:1011480085EC0DF0DF6E20EE04F05250D926535096
:10115800DA22DF2A20EE04F05250D9265350DA2240
:10116800040EDF6219D01B6E1F0E176E1B5053C082
:1011780019F052C018F020EE04F05250D9265350FE
:10118800DA22DF5030EC0DF020EE04F05250D92670
:101198005350DA22000EDF6E51A61200AB98AB88CE
:1011A8001B6E1E0E176E1B50000E196E000E186E69
:1011B800000E30EC0DF01200E8CFB3F0000EAC6E6C
:1011C800000EAB6E00010001B3B1AC880001000154
:1011D800B3A302D0AC8CAB8C00010001B3B5AC8ECC
:1011E80000010001B3A702D0AB8801D0AB8A00018F
:1011F8000001B3B9AC849E9800010001B3BBAB8673
:1012080000010001B3AD02D09D8A01D09D9A9E9A3B
:1012180000010001B3AF02D09D8801D09D98AEC0F7
:10122800AFFF0001AFC0B0F0B0C0B1F00001B26BC9
:101238000001B151B06EAC8AAB8E949C948EACA870
:101248001200ACBE1200948C120000010001B151D2
:10125800B011D8B43AD00001B26F010E00010001FC
:10126800B36F0001B25109D0000100010001D8900C
:10127800B037B13700010001B32B00010001B1AF55
:10128800F3D700010001B05100010001AE5D00017B
:101298000001B15100010001AF59D8A00CD00001E4
:1012A8000001B05100010001AE5F00010001B15121
:1012B80000010001AF5B000100010001D890B133CB
:1012C800B03300010001B32FDCD7AEC0AEF0AFC021
:1012D800AFF01200E8CFB2F0000EC26E000EC06E82
:1012E80000010001D890AE313C0BC26EAEC0B0F028
:1012F8000001B03BF00EB017300E0001B01700012E
:101308000001AF510F0B0001B011C16EB2C0B0F0B7
:101318000001D890B0370001D890B037380E0001DE
:10132800B017B2C0B1F00001B13B0F0EB117070EF4
:101338000001B11700010001B251800B0001B11189
:101348000001B011C06E00010001AEAF03D09E9C39
:101358009D8CF28CC2801200E9CFA2F0EACFA3F0F4
:10136800E1CFA4F0E2CFA5F0D9CFA6F0DACFA7F06D
:10137800F3CFA8F0F4CFA9F0F6CFAAF0F7CFABF0EF
:10138800F8CFACF0F5CFADF09EA603D09E96E6EC74
:101398000DF0F2A403D0F294C3EC0DF096EC0BF030
:1013A800ADC0F5FFACC0F8FFABC0F7FFAAC0F6FFB1
:1013B800A9C0F4FFA8C0F3FFA7C0DAFFA6C0D9FFF1
:1013C800A5C0E2FFA4C0E1FFA3C0EAFFA2C0E9FFF5
:1013D800A1C0FBFFA0C0FAFF1100E0EC0BF0000178
:1013E8000001B3510001B211D8B412000001B46F6A
:1013F800010E506E0001B4510201020E00010001FD
:10140800AF6F02017E0E00010001AE6FBAEC0CF066
:101418000009D8B407D00001B46F000E506E000167
:10142800B45112000101010E00010001AF6F01016A
:10143800000E00010001AE6FBAEC0CF00009D8B440
:1014480007D00001B46F000E506E0001B4511200B5
:101458000A0E94EC0DF0D0D7000120EE7CF00001CC
:10146800AE51D9260001AF51DA22000EDF6E00011D
:1014780020EE7DF00001AE51D9260001AF51DA22ED
:10148800000EDF6E0001B06F000E00010001B16FA9
:101498000001B051030E00010001B16501D0120036
:1014A80000010001B1511F0DF35000010001AE25EC
:1014B800D96EF45000010001AF21DA6E000EDF6E24
:1014C80000010001B12B030E00010001B165E8D74E
:1014D8001200C8C0D9FFC9C0DAFFDE2A000EDD221B
:1014E800C8C0D9FFC9C0DAFF0001DECFAEF00001E5
:1014F800DDCFAFF0000E00010001B16F0A0E000150
:10150800B06F29EC09F000010001AE51090A000191
:10151800AF11D8A4120001017E6F140E0001000162
:10152800C46F01017E5100010001C9C0C6F000016D
:101538000001C8C0C5F0020E9FEC0CF001010101CA
:101548007F6F12000001B26F000E506E0001B251A1
:101558000101010E00010001AF6F0101000E000141
:101568000001AE6F30EC0AF00201020E000100012A
:10157800AF6F02017E0E00010001AE6F30EC0AF081
:101588000201020E00010001AF6F0201000E00010E
:101598000001AE6F30EC0AF00301030E00010001F8
:1015A800AF6F0301000E00010001AE6F30EC0AF0CE
:1015B800120000010001AFC0D1F000010001AEC06F
:1015C800D0F0000120EE1CF00001D051D926000116
:1015D800D151DA22000EDF6E000120EE1EF000016C
:1015E800D051D9260001D151DA22000EDF6E000158
:1015F80020EE1FF00001D051D9260001D151DA2286
:10160800050EDF6E000120EE21F00001D051D92631
:101618000001D151DA22000EDF6E12000001000134
:10162800B1C0B7F000010001B0C0B6F00001000180
:10163800AFC0B5F000010001AEC0B4F012D0B6C022
:10164800D9FFB7C0DAFFB4C0E1FFB5C0E2FFDFCF12
:10165800E7FF00010001B64BB72B00010001B44BB6
:10166800B52B00010001B207D8A0B3070001B229C9
:10167800D8B4B329D8B41200E2D703EE00F07E0E36
:10168800EE6AE806FDE102EE00F0FC0EEE6AE806FE
:10169800FDE101EE00F07E0EEE6AE806FDE100EEE7
:1016A80034F01E0EEE6AE806FDE1D80EF66E1B0E4B
:1016B800F76E000EF86E01EEF2F010EE04F009007D
:1016C800F5CFEEFFE550E150FAE1000EF86E0001AB
:1016D800A2EF03F0000130C083F000012FC082F0B8
:1016E80000012EC081F000012DC080F012D082C010
:1016F800D9FF83C0DAFF80C0E1FF81C0E2FFDFCFFE
:10170800E7FF00010001824B832B00010001804BA1
:10171800812B3106D8A032063128D8B43228D8B463
:101728001200E5D7506601D01200F0EC0CF03050F2
:101738002F10D8A41200DCEC0DF02E502D10D8B4C8
:1017480012000201020E2E6E02017E0E2D6E43EC77
:101758000DF00009D8A412000101010E2E6E01013E
:10176800000E2D6E43EC0DF00009D8B4E9EC0DF035
:101778001200F2AC08D0000E00010001B16F000E9B
:101788000001B06F1200B1EC0DF000010001AF5183
:101798000001AE11D8B408D0000E00010001B16FED
:1017A800000E0001B06F1200000E00010001B16FC1
:1017B800010E0001B06F1200BDEC0BF0000100013A
:1017C800B1510001B011D8A411D0B1EC0DF0000155
:1017D8000001AF510001AE11D8A408D0000E0001DD
:1017E8000001B36F010E0001B26F1200000E00017C
:1017F8000001B36F000E0001B26F1200E8CFCAF00B
:101808000101010E00010001B96F0101000E000184
:101818000001B86FCAC0BAF000010001C7C0BCF02F
:1018280000010001C6C0BBF000010001C9C0BEF044
:1018380000010001C8C0BDF0C7EC05F01200E8CFF8
:10184800CAF00201020E00010001B96F02017E0E0A
:1018580000010001B86FCAC0BAF000010001C7C09A
:10186800BCF000010001C6C0BBF000010001C9C006
:10187800BEF000010001C8C0BDF0C7EC05F01200C1
:1018880004C00AF003C009F002C008F001C007F064
:101898000ED009C0D9FF0AC0DAFF07C0E1FF08C0AF
:1018A800E2FFDFCFE7FF094A0A2A074A082A0506A6
:1018B800D8A006060528D8B40628D8B41200E9D757
:1018C80000010001B0511E0AB111D8B41200000184
:1018D8000001B0511F0AB111D8A412000001000183
:1018E800B25100010001B425D96E00010001B351C5
:1018F80000010001B521DA6E000EDF6E1200E8CF9C
:10190800AEF000010001AE517E0BCD6E000100016A
:10191800AEAD02D0CD8E01D0CD9E000ECF6E000EA2
:10192800CE6E9E9000010001AEAF02D09D8001D026
:101938009D90CD801200E8CFC7F00301030E00018F
:101948000001B96F0301000E00010001B86FC7C0A4
:10195800BAF0C4C0BBF000010001C6C0BDF0000170
:101968000001C5C0BCF062EC06F01200000120EED8
:101978007DF00001AE51D9260001AF51DA22DF50C7
:101988000001B06F0001B0511F0DF35000010001BC
:10199800AE25D96EF45000010001AF21DA6EDF5098
:1019A8001200E8CF92F00201020E00010001856FDB
:1019B80002017E0E00010001846F92C086F08FC084
:1019C80087F00001000191C089F00001000190C07A
:1019D80088F0E4EC06F01200F2AC05D0000E306E90
:1019E800000E2F6E1200DCEC0DF02E502D10D8B426
:1019F80005D0000E306E000E2F6E1200000E306EF5
:101A0800010E2F6E1200E8CFAEF000010001AE51BA
:101A18007F0BD56E000ED76E000ED66EF2940001C5
:101A28000001AEAF02D0F28A01D0F29AD58E120030
:101A3800E8CFAEF094869488AEC0C8FF000EC76E9B
:101A4800000EC66E000EC56E0E0EC612C78E9486A8
:101A58009488C580C68A1200E8CF1AF00101010EE9
:101A68000C6E0101000E0B6E1AC00DF017C00EF0BF
:101A780019C010F018C00FF03DEC08F0120020EE6D
:101A88007DF02D50D9262E50DA22DF502F6E2F50A0
:101A98001F0DF3502D24D96EF4502E20DA6EDF502E
:101AA80012001B0E345CD8B002D03428346E345087
:101AB800010D340EF324D96E000EF420DA6EC4CF73
:101AC800DFFF1200E8CFAFF0C2CFAEF0C30E0001C7
:101AD800AE1700010001D890AF313C0B0001AE11E8
:101AE800C26E12000001AFC053F00001AEC052F048
:101AF80020EE04F05250D9265350DA22000EDF6E41
:101B08001200F20E5116ABAC03D05190ABB051801D
:101B1800ABB45184ABB25186AECF01F00150120084
:101B2800E8CFAEF0FA0E00F0E82EFDD70001000174
:101B3800AE2FF8D7120000010001B5C0B7F00001C0
:101B48000001B4C0B6F01200AEC0D9FFAFC0DAFFD2
:101B5800000EDE6E000EDD6E1200000EF2AE010EFB
:101B680000010001AE6F0001AF6B120001C003F06D
:101B780002C004F004C0CFFF03C0CEFF1200000E65
:101B88002E6E000E2D6ECCEC0DF0EEEC0DF012006A
:101B98002DC02FF02EC030F030C0D7FF2FC0D6FF99
:101BA8001200000E026E000E016EBAEC0DF012006B
:101BB800000EF2AE010E2D6E2E6A1200D08EF28E3D
:101BC800F28C120062EC00F01200D38E03001200B7
:081BD8001234EEFFC28212007C
:067FF80080F4C5FFFFF15B
:00000001FF
