:0400000063EF00F0BA
:0C000800FACFB9F0FBCFBAF00AEF0BF012
:10001800D8CF1CF0E8CF1DF0E0CF1EF0FACF1FF0CC
:10002800FBCF20F0E9CF21F0EACF22F0E1CF23F097
:10003800E2CF24F0D9CF25F0DACF26F0F3CF27F09E
:10004800F4CF28F0F6CF29F0F7CF2AF0F8CF2BF02D
:10005800F5CF2CF09EAC03D09E9CFDEC0EF09EA03C
:1000680003D09E907DEC0FF09EB870EC0CF09EAA29
:1000780003D09E9A52EC09F02CC0F5FF2BC0F8FF74
:100088002AC0F7FF29C0F6FF28C0F4FF27C0F3FFF6
:1000980026C0DAFF25C0D9FF24C0E2FF23C0E1FF54
:1000A80022C0EAFF21C0E9FF20C0FBFF1FC0FAFF02
:1000B8001EC0E0FF1DC0E8FF1CC0D8FF1000C7EF3E
:1000C8000BF00001996F000E00010001B86F0001EC
:1000D80099510001996F000E00010001B06F0001F5
:1000E80099510001996F000E00010001B66F0001DF
:1000F80099510001996F000E00010001B36F0001D2
:1001080099510001996F000E00010001B16F0001C3
:100118009951C6AC20D0C69C20EE0DF05050D9267F
:100128005150DA22050EDF6E0001996F010E0001B1
:100138000001B16F0001995120EE0FF05050D926FF
:100148005150DA22DF2A20EE0EF05050D9265150B5
:10015800DA22040EDF6EC7A00AD0C9CFB2F00001C0
:10016800996F010E00010001B86F0001995100015B
:100178000001B16774D160D1C7A671D10001000137
:10018800B851EEEC09F020EE0DF05050D926515040
:10019800DA22080EDF6263D10001996F000E0001B8
:1001A8000001B86F000199510001996F010E00011B
:1001B8000001B36F36D1C7A827D020EE0CF05050FD
:1001C800D9265150DA22DF2A00010001B851D8B4EB
:1001D8002BD1C7BA09D00001996F010E00010001A7
:1001E800B66F0001995120D120EE0FF05050D9265A
:1001F8005150DA22DF2A20EE0EF05050D926515005
:10020800DA22060EDF6E10D100010001B851D8B411
:1002180026D120EE0CF05050D9265150DA22DF2A90
:10022800C7BA13D0C7B408D020EE0DF05050D92665
:100238005150DA22070E5AD020EE0DF05050D92630
:100248005150DA22080EDF6EDED020EE0FF050504B
:10025800D9265150DA22DF2A20EE0DF05050D92647
:100268005150DA22050EDF6E20EE0EF05050D926DE
:100278005150DA22060E3AD020EE1BF05050D92603
:100288005150DA22DF500001996F20EE1AF05050D9
:10029800D9265150DA22DF500001995DD8B0C4D078
:1002A80020EE1BF05050D9265150DA22DF500001C1
:1002B800996F00019951010D100EF326000EF422DA
:1002C800F3505024D96EF4505120DA6EDF50C96EC5
:1002D80020EE1BF05050D9265150DA22DF2A0001B7
:1002E800996F010E00010001B06F9BD0DF6EB7D08F
:1002F800C7A84CD020EE0CF05050D9265150DA2225
:10030800DF2A00010001B851D8B437D0C7AA1DD0E0
:1003180020EE0AF05050D9265150DA22DF50000161
:10032800996F00019951010DF3505024D96EF45082
:100338005120DA6E0001B2C0DFFF20EE0AF0505003
:10034800D9265150DA22DF2A18D020EE0FF050506B
:10035800D9265150DA22DF2A20EE0EF05050D92645
:100368005150DA22060EDF6E20EE0DF05050D926DD
:100378005150DA22050EDF6E57D00001996F010E39
:1003880000010001B66F000199514ED00001000133
:10039800B851D8B464D020EE0CF05050D926515042
:1003A800DA22DF2AC7AA1DD020EE0AF05050D9263B
:1003B8005150DA22DF500001996F00019951010D67
:1003C800F3505024D96EF4505120DA6E0001B2C0B7
:1003D800DFFF20EE0AF05050D9265150DA22DF2AEA
:1003E8003ED0C7A401D720EE0DF05050D926515069
:1003F800DA22080EDF6E0001996F010E000100017C
:10040800B66F000199510001996F010E00010001BA
:10041800B36F000199510001996F000E00010001AE
:10042800B86F000199511BD020EE0DF05050D9261D
:100438005150DA22050E5AD720EE0DF05050D92629
:100448005150DA22DF50050AD8B496D6030AD8B438
:10045800B2D6010AD8B44CD70F0AD8B40DD70001C8
:100468000001B86705D000010001B051D8B402D02E
:10047800C6A8C68820EE0AF05050D9265150DA2274
:10048800080EDF641BD000010001B66717D020EE0C
:100498000DF05050D9265150DA22050EDF6E20EEAD
:1004A8000FF05050D9265150DA22DF2A20EE0EF0F4
:1004B8005050D9265150DA22070EDF6E0001000194
:1004C800B651D8B438D020EE0CF05050D92651503F
:1004D800DA2210EE0AF05050E1265150E222E7509D
:1004E8000001996F00019951010DF3505024E16EFC
:1004F800F4505120E26EDFCFE7FF0001996F280E1C
:1005080000010001926F00019951000151C094F05F
:10051800000150C093F020EE0AF05050D9265150F7
:10052800DA22DF5000019A6F00019A297DEC0EF063
:1005380020EE0AF03ED020EE0FF05050D926515050
:10054800DA22DF50D8B43BD020EE0FF05050D92635
:100558005150DA22DF5000010001AD6F20EE0EF09D
:100568005050D9265150DA22DF5000010001AE6FF9
:1005780020EE0CF05050D9265150DA22DF500001FD
:100588000001AF6F0001996F290E00010001926F01
:10059800000199510001000E00010001946F000153
:1005A800AD0E00010001936F030E7DEC0EF020EEFE
:1005B8000FF05050D9265150DA22000EDF6E00019C
:1005C8000001B351D8B412000001996F000E000168
:1005D8000001B76F00019951AA0E50C0D9FF51C050
:1005E800DAFFDF6238D00001996F030E00010001C5
:1005F800B76F00019951CCC0A5F0CDC0A6F0CEC010
:10060800A7F00001000E2E6E0001A50E2D6E000150
:100618000001B75140EC08F020EEC7F010EEA0F052
:10062800050EDECFE6FFE82EFCD70001996F200EFD
:1006380000010001926F000199510001000E0001B4
:100648000001946F0001A00E00010001936F050ED8
:100658007DEC0EF04BD0AB0E50C0D9FF51C0DAFF85
:10066800DF6244D020EECFF010EE9BF0050EDECF17
:10067800E6FFE82EFCD70001000E00010001956F8F
:100688000001B40E00010001946F0001000E00018A
:100698000001976F0001A80E00010001966F00018C
:1006A8000001B751CFEC0DF000010001B751050A68
:1006B800D8A413D000010001B4511F0AB511D8A461
:1006C8000CD00001000E2E6E0001A80E2D6E000148
:1006D8000001B75140EC08F009D00001000E2E6E61
:1006E80000019B0E2D6E050E40EC08F00001996F7D
:1006F800000E00010001B36F000199511200820E33
:10070800D36E9B9C0101010E01010101876F01015C
:10071800BF0E01010101866F1EEC0FF00101010EF1
:1007280001010101876F0101CD0E01010101866FF1
:10073800D3EC0CF00101010E01010101876F0101E9
:10074800BC0E01010101866F50EC0FF039EC0CF082
:10075800000E936E000E8A6E000E806E000E896E7B
:100768000F0E926ED50EAFEC0EF0850E10EC0EF05B
:100778009F9C9D8C9F909F9A9F989F869E0EC4ECED
:100788000EF09D86000E01010101876F260E010102
:10079800866FFC0E3AEC0AF0AB8E94688EEC0FF084
:1007A8000101AA6F0C0E01010101866F0101AA5116
:1007B8000101AB6F0B0E01010101876F0101AB5104
:1007C800530EC8EC0AF08F0E0EEC0FF0EAC1ACF134
:1007D800EBC1ADF14BEC0BF00101010E0101010180
:1007E8009F6F0101BE0E010101019E6F0101010E03
:1007F80001010101A16F0101AF0E01010101A06F0B
:100808000A0EAEEC0DF001010101CC6F01010101EE
:10081800CCBF60D04CD00101010E01010101876FEE
:100828000101BA0E01010101866F01010101BEC17A
:1008380088F101010101896B01010101CC5101011C
:1008480001018A6F01018B6B01018ABF8B070101CE
:10085800010E010101018D6F0101AF0E01010101BE
:100868008C6F47EC0FF036D0AFC1AEF133D0010139
:10087800010E01010101876F0101AF0E01010101A4
:10088800866F01010101CC519EEC08F023D00101D3
:10089800010E01010101876F0101AF0E0101010184
:1008A800866F01010101CC519EEC08F013D00101C3
:1008B8000101BE510A0AD8B4AED72A0AD8B4E7D77C
:1008C800080AD8B4D1D7010AD8B4CED7040AD8B404
:1008D800CED7030A0101010E010101019F6F010139
:1008E800BE0E010101019E6F0101010E010101010E
:1008F800A16F0101AF0E01010101A06F0A0E8DEC7D
:100908000DF001010101CC6F01010101CCBF62D7DB
:1009180047D00101010E01010101A16F0101BC0EC7
:1009280001010101A06F01010101BEC1A2F1010194
:100938000101A36B01010101CC5101010101A46F67
:100948000101A56B0101A4BFA5070101010E010169
:100958000101A76F0101AF0E01010101A66F00ECB3
:100968000CF038D701010101AF05D8A417D0010157
:10097800AA6F1F0E010101019C6F0101AA5101011B
:10098800010E010101019E6F0101AF0E010101017C
:100998009D6F01010101CC5162EC0EF08A941AD7C7
:1009A80001010101BE510B0AD8B4B3D7150AD8B456
:1009B800D9D7010AD8B4D6D70DD7010120EE42F015
:1009C80001019051D92601019151DA22DF5001012C
:1009D8000101996F0101010199510D0DF3500101B8
:1009E80001019025010101019C6FF45001010101F1
:1009F800912101019D6F010E9CC1D9FF9DC1DAFFB4
:100A0800DF6288D0010120EE01F001019C51D92656
:100A180001019D51DA22DF5001010101925DD8B038
:100A280002D0FD0E1200010120EE01F001019C51DF
:100A3800D92601019D51DA22DF500101976F01018A
:100A48009751010101019A6F01019B6B010101019D
:100A580096C187F10101010195C186F1030E0101DB
:100A680001019C250101976F000E010101019D21E3
:100A78000101986F97C188F198C189F19AC18AF1EB
:100A88009BC18BF1A4EC0CF0010120EE42F00101B6
:100A98009051D92601019151DA22010110EE42F05C
:100AA80001019051E12601019151E222E750010133
:100AB800976F010E0101972501010101866F010160
:100AC8000101876B000E8723000E01010101896F68
:100AD800050E0101886F59EC07F0010101018651EB
:100AE800DF6E010120EE02F001019C51D9260101BF
:100AF8009D51DA2293C1E1FF94C1E2FFDFCFE7FF06
:100B08009CC1D9FF9DC1DAFF000EDF6E0101010112
:100B18009A511200FC0E1200000120EE42F0000172
:100B28008651D92600018751DA22DF5000010001E1
:100B38008F6F000100018F510D0DF350000100016E
:100B4800862500010001926FF45000010001872101
:100B58000001936F010E92C0D9FF93C0DAFFDF62E4
:100B68007FD0000120EE01F000019251D92600014A
:100B78009351DA22DF5000010001885DD8B002D01D
:100B8800FD0E1200000120EE01F000019251D9265D
:100B980000019351DA22DF5000018D6F00018D5161
:100BA80000010001906F0001916B000100018CC0F1
:100BB80081F0000100018BC080F0030E00010001EC
:100BC800922500018D6F000E0001000193210001A4
:100BD8008E6F8DC082F08EC083F090C084F091C07B
:100BE80085F0FAEC0CF0000120EE42F0000186518D
:100BF800D92600018751DA22000110EE42F00001E7
:100C08008651E12600018751E222E75000018D6FED
:100C1800010E00018D252D6E2E6A000E2E22000E6B
:100C2800306E050E2F6EF8EC08F02D50DF6E0001C7
:100C380020EE02F000019251D92600019351DA22E8
:100C480089C0E1FF8AC0E2FFDFCFE7FF92C0D9FF8A
:100C580093C0DAFF000EDF6E000100019051120010
:100C6800FC0E12000101010192C197F1010101017D
:100C7800986B010120EE41F001019051D926010144
:100C88009151DA22DF5001010101996F010101013F
:100C980099510D0DF3500101010190250101010148
:100CA8009A6FF45001010101912101019B6F9AC1D2
:100CB800D9FF9BC1DAFFDF50D8B402D0FF0E120073
:100CC800010120EE01F001019A51D92601019B5141
:100CD800DA22010192C1DFFF010120EE02F00101D9
:100CE8009A51D92601019B51DA22010193C1DFFFF4
:100CF800030E010101019A2501010101866F000E11
:100D0800010101019B210101876F0101010195C1C9
:100D180089F10101010194C188F197C18AF198C153
:100D28008BF1A4EC0CF0010120EE41F0010190518F
:100D3800D92601019151DA22010110EE41F0010199
:100D48009051E12601019151E222E7500101966F8D
:100D5800010E0101962501010101866F01010101C2
:100D6800876B000E8723000E01010101896F050EB4
:100D78000101886F59EC07F0010101018651DF6E0E
:100D88009AC1D9FF9BC1DAFF010EDF6E010E120076
:100D98000001000188C08DF0000100018E6B000188
:100DA80020EE41F000018651D92600018751DA2250
:100DB800DF50000100018F6F000100018F510D0D00
:100DC800F35000010001862500010001906FF450E6
:100DD8000001000187210001916F90C0D9FF91C0E7
:100DE800DAFFDF50D8B402D0FF0E1200000120EE67
:100DF80001F000019051D92600019151DA22000139
:100E080088C0DFFF000120EE02F000019051D926D2
:100E180000019151DA22000189C0DFFF030E0001B1
:100E28000001902500010001806F000E0001000103
:100E380091210001816F000100018BC083F0000146
:100E480000018AC082F08DC084F08EC085F0FAEC73
:100E58000CF0000120EE41F000018651D926000176
:100E68008751DA22000110EE41F000018651E12697
:100E780000018751E222E75000018C6F010E00014A
:100E88008C252D6E2E6A000E2E22000E306E050E59
:100E98002F6EF8EC08F02D50DF6E90C0D9FF91C08E
:100EA800DAFF010EDF6E010E120001018A6F000EDB
:100EB800010101018C6F01018A5101010101875172
:100EC800800AF36E800EF35C000ED8B4865DD8B04D
:100ED8000FD001010101866D0101871FD8B0872B52
:100EE80001018A6F010E010101018C6F01018A5114
:100EF800010101018951800AF36E800EF35C000E36
:100F0800D8B4885DD8B007D001010101886D01010E
:100F1800891FD8B0892B0101010189518811D8B4E2
:100F28003AD001018A6F010E010101018B6F0101A5
:100F38008A5109D0010101010101D8908837893708
:100F4800010101018B2B0101010189AFF3D70101D7
:100F58000101885101010101865D010101018951E9
:100F6800010101018759D8A00CD001010101885164
:100F780001010101865F010101018951010101019E
:100F8800875B010101010101D89089338833010190
:100F980001018B2FDCD7010101018C51D8B407D096
:100FA80001010101866D0101871FD8B0872B86C119
:100FB80086F187C187F112000DC012F0136A20EE86
:100FC80041F00B50D9260C50DA22DF50146E145021
:100FD8000D0DF3500B24156EF4500C20166E15C031
:100FE800D9FF16C0DAFFDF50D8B402D0FF0E1200C6
:100FF80020EE01F01550D9261650DA220DC0DFFF79
:1010080020EE02F01550D9261650DA220EC0DFFF66
:10101800030E1524016E000E1620026E10C004F097
:101028000FC003F012C005F013C006F0F0EC0DF08D
:1010380020EE41F00B50D9260C50DA2210EE41F088
:101048000B50E1260C50E222E750116E010E1124DC
:10105800016E026A000E0222000E046E050E036E77
:10106800A0EC09F00150DF6E15C0D9FF16C0DAFFF9
:10107800010EDF6E010E1200E8CF31F020EE1AF0FB
:101088005050D9265150DA22000EDF6E2DD020EEB6
:101098001AF05050D9265150DA22DF502F6E2F50B7
:1010A800010DF3502D24D96EF4502E20DA6E10EE77
:1010B8001AF05050E1265150E222E750306E30507D
:1010C800010D100EF326000EF422F3505024E16EA9
:1010D800F4505120E26EDFCFE7FF20EE1AF05050B7
:1010E800D9265150DA22DF2A20EE1AF05050D9269C
:1010F8005150DA22DF502F6E31502F5CD8A0C7D75D
:1011080020EE1AF05050D9265150DA2231C0DFFFB4
:1011180020EE1BF05050D9265150DA22010EDF6E16
:1011280020EE10F05050D9265150DA22DF50C96E07
:10113800C6881200E8CF8AF120EE0BF05250D9266B
:101148005350DA22000EDF6E35D020EE0BF05250ED
:10115800D9265350DA22DF500101886F01018851E6
:10116800010DF350010101018625D96EF4500101EA
:1011780001018721DA6E10EE0BF05250E126535030
:10118800E222E7500101896F01018951010D060E24
:10119800F326000EF422F3505224E16EF45053204B
:1011A800E26EDFCFE7FF20EE0BF05250D926535006
:1011B800DA22DF2A20EE0BF05250D9265350DA22D9
:1011C800DF500101886F010101018A510101885D29
:1011D800D8A0BBD720EE0CF05250D9265350DA22B3
:1011E800000EDF6E9D881200316E000E00010001B6
:1011F800816F31502E50800AF36E800EF35C000E22
:10120800D8B42D5CD8B00AD02D6C2E1ED8B02E2A9A
:10121800316E010E00010001816F31503050800A9B
:10122800F36E800EF35C000ED8B42F5CD8B004D0F7
:101238002F6C301ED8B0302A30502F10D8B420D0A0
:10124800316E010E00010001806F315006D0D89038
:101258002F36303600010001802B30AEF8D72F50E2
:101268002D5C30502E58D8A004D02F502D5E305011
:101278002E5AD89030322F3200010001802FEFD73C
:10128800000100018151D8B404D02D6C2E1ED8B0B5
:101298002E2A2DC02DF02EC02EF012009EAA3CD072
:1012A80020EE05F05250D9265350DA22DF501B6E3B
:1012B8001B50010DF3505224D96EF4505320DA6EAE
:1012C8002DEC0FF0DF6E20EE05F05250D92653506A
:1012D800DA22DF2A20EE05F05250D9265350DA22BE
:1012E800050EDF6219D01B6E1F0E176E1B5053C000
:1012F80019F052C018F020EE05F05250D92653507C
:10130800DA22DF50D8EC0EF020EE05F05250D92644
:101318005350DA22000EDF6E4FA61200AB98AB884E
:101328001B6E1E0E176E1B50000E196E000E186EE7
:10133800000ED8EC0EF01200056E000E076E055078
:101348000250800AF36E800EF35C000ED8B4015C84
:10135800D8B008D0016C021ED8B0022A056E010E62
:10136800076E05500450800AF36E800EF35C000E81
:10137800D8B4035CD8B004D0036C041ED8B0042AD7
:1013880004500310D8B41AD0056E010E066E05502D
:1013980004D0D89003360436062A04AEFAD7035090
:1013A800015C04500258D8A004D00350015E0450D8
:1013B800025AD89004320332062EF1D70750D8B417
:1013C80004D0016C021ED8B0022A01C001F002C08C
:1013D80002F01200E8CF2DF020EE0CF05050D92684
:1013E8005150DA22010EDF6E20EE0AF05050D92655
:1013F8005150DA22000EDF6E2D50D8B42ED0C7AA75
:1014080018D020EE0DF05050D9265150DA22050E92
:10141800DF6E20EE0FF05050D9265150DA22DF2A25
:1014280020EE0EF05050D9265150DA22050EDF6E0C
:101438001200C7A409D020EE0DF05050D926515003
:10144800DA22080EDF6E120020EE0DF05050D92679
:101458005150DA22070EDF6E120020EE0DF05050C8
:10146800D9265150DA22060EDF6E1200E8CF8BF132
:10147800000EAC6E000EAB6E010101018BB1AC88A1
:10148800010101018BA302D0AC8CAB8C01010101DD
:101498008BB5AC8E010101018BA702D0AB8801D0BE
:1014A800AB8A010101018BB9AC849E98010101014D
:1014B8008BBBAB86010101018BAD02D09D8A01D0A7
:1014C8009D9A9E9A010101018BAF02D09D8801D09F
:1014D8009D9886C1AFFF010187C188F188C189F154
:1014E80001018A6B01018951B06EAC8AAB8E949C64
:1014F800948EACA81200ACBE1200948C12000101AC
:10150800010189518811D8B43AD001018A6F010EBE
:10151800010101018B6F01018A5109D0010101010B
:101528000101D89088378937010101018B2B01010E
:10153800010189AFF3D701010101885101010101BE
:10154800865D010101018951010101018759D8A076
:101558000CD001010101885101010101865F0101DF
:101568000101895101010101875B010101010101AB
:10157800D89089338833010101018B2FDCD786C1CC
:1015880086F187C187F11200E8CF8AF1000EC26E9A
:10159800000EC06E01010101D89086313C0BC26E6D
:1015A80086C188F10101883BF00E8817300E0101D1
:1015B80088170101010187510F0B01018811C16EC4
:1015C8008AC188F10101D89088370101D8908837FD
:1015D800380E010188178AC189F10101893B0F0E74
:1015E8008917070E01018917010101018A51800B32
:1015F8000101891101018811C06E0101010186AF45
:1016080003D09E9C9D8CF28CC2801200E9CFBBF067
:10161800EACFBCF0E1CFBDF0E2CFBEF0D9CFBFF04A
:10162800DACFC0F0F3CFC1F0F4CFC2F0F6CFC3F0F9
:10163800F7CFC4F0F8CFC5F0F5CFC6F09EA603D01B
:101648009E9692EC0FF0F2A403D0F2946BEC0FF09C
:1016580021EC0DF0C6C0F5FFC5C0F8FFC4C0F7FF08
:10166800C3C0F6FFC2C0F4FFC1C0F3FFC0C0DAFFB9
:10167800BFC0D9FFBEC0E2FFBDC0E1FFBCC0EAFFEA
:10168800BBC0E9FFBAC0FBFFB9C0FAFF11006BECA1
:101698000DF0010101018B5101018A11D8B412002A
:1016A80001018C6F010E4E6E01018C510101010E7A
:1016B80001010101876F0101000E01010101866F1F
:1016C80047EC0EF00009D8B407D001018C6F000E6A
:1016D8004E6E01018C5112000101010E0101010140
:1016E800876F0101430E01010101866F47EC0EF07F
:1016F8000009D8B407D001018C6F000E4E6E0101AD
:101708008C5112000A0E3CEC0FF0D0D7010120EEEC
:1017180041F001018651D92601018751DA22000ED4
:10172800DF6E010120EE42F001018651D926010148
:101738008751DA22000EDF6E0101886F000E010169
:101748000101896F01018851040E010101018965B8
:1017580001D012000101010189510D0DF350010161
:1017680001018625D96EF450010101018721DA6E45
:10177800000EDF6E01010101892B040E0101010138
:101788008965E8D7120002EE00F0860EEE6AE806D8
:10179800FDE101EE00F0860EEE6AE806FDE10001CB
:1017A800D36BD26BD16BD06BCF6B00EE32F01E0EC9
:1017B800EE6AE806FDE1340EF66E1F0EF76E000EB7
:1017C800F86E0900F5CFEAF10900F5CFEBF1140E38
:1017D800F66E1F0EF76E000EF86E00EEC7F010EEF4
:1017E80008F00900F5CFEEFFE550E150FAE1000EF0
:1017F800F86E000183EF03F0A0C1D9FFA1C1DAFFA1
:10180800DE2A000EDD22A0C1D9FFA1C1DAFF010145
:10181800DECF86F10101DDCF87F1000E0101010164
:10182800896F0A0E0101886F83EC0AF0010101013A
:101838008651090A01018711D8A412000101A86F75
:10184800140E010101019C6F0101A8510101010160
:10185800A1C19EF101010101A0C19DF1020E2CEC74
:101868000EF001010101A96F120001018A6F000E3B
:101878004E6E01018A510101010E01010101876FBC
:101888000101430E01010101866F8AEC0BF0010191
:10189800010E01010101876F0101000E0101010123
:1018A800866F8AEC0BF00201020E01010101876FBD
:1018B8000201430E01010101866F8AEC0BF002015F
:1018C800020E01010101876F0201000E01010101F1
:1018D800866F8AEC0BF01200ACA2120020EE0CF01E
:1018E8005250D9265350DA22DF50016E20EE0BF009
:1018F8005250D9265350DA22DF50015CD8B01ED09E
:1019080020EE0CF05250D9265350DA22DF50016EE7
:101918000150010D060EF326000EF422F350522456
:10192800D96EF4505320DA6EDF50AD6E20EE0CF015
:101938005250D9265350DA22DF2A12009D981200FD
:101948000101010189C18FF10101010188C18EF1F5
:101958000101010187C18DF10101010186C18CF1ED
:1019680012D08EC1D9FF8FC1DAFF8CC1E1FF8DC1C2
:10197800E2FFDFCFE7FF010101018E4B8F2B010151
:1019880001018C4B8D2B010101018A07D8A08B071F
:1019980001018A29D8B48B29D8B41200E2D70101F1
:1019A80087C151F0010186C150F020EE0AF0505075
:1019B800D9265150DA22000EDF6E20EE0CF050507E
:1019C800D9265150DA22000EDF6E20EE0DF050506D
:1019D800D9265150DA22050EDF6E20EE0FF0505056
:1019E800D9265150DA22000EDF6E1200000183C0A2
:1019F80030F0000182C02FF0000181C02EF00001FC
:101A080080C02DF00ED02FC0D9FF30C0DAFF2DC016
:101A1800E1FF2EC0E2FFDFCFE7FF2F4A302A2D4A31
:101A28002E2A000100018407D8A085070001842917
:101A3800D8B48529D8B41200E6D74E6601D0120072
:101A480098EC0EF030502F10D8A4120084EC0FF050
:101A58002E502D10D8B412000101010E2E6E010176
:101A6800000E2D6EEBEC0EF00009D8A41200010157
:101A7800010E2E6E0101430E2D6EEBEC0EF00009E7
:101A8800D8B495EC0FF01200F2AC08D0000E0101AA
:101A98000101896F000E0101886F120059EC0FF0E7
:101AA80001010101875101018611D8B408D0000E47
:101AB80001010101896F000E0101886F1200000EFB
:101AC80001010101896F010E0101886F120048ECC4
:101AD8000DF001010101895101018811D8A411D02B
:101AE80059EC0FF001010101875101018611D8A4B9
:101AF80008D0000E010101018B6F010E01018A6FF0
:101B08001200000E010101018B6F000E01018A6FA6
:101B18001200E8CFA2F10101010E01010101916F4C
:101B28000101430E01010101906FA2C192F101016F
:101B380001019FC194F1010101019EC193F10101CD
:101B48000101A1C196F101010101A0C195F1E1ECEA
:101B580004F01200E8CFA2F10101010E0101010118
:101B6800916F0101000E01010101906FA2C192F174
:101B7800010101019FC194F1010101019EC193F18D
:101B880001010101A1C196F101010101A0C195F175
:101B9800E1EC04F01200E8CF98F00201020E000117
:101BA8000001876F0201430E00010001866F98C093
:101BB80088F00001000195C08AF00001000194C07E
:101BC80089F00001000197C08CF00001000196C067
:101BD8008BF090EC05F0120004C00AF003C009F085
:101BE80002C008F001C007F00ED009C0D9FF0AC032
:101BF800DAFF07C0E1FF08C0E2FFDFCFE7FF094ACD
:101C08000A2A074A082A0506D8A006060528D8B4CD
:101C18000628D8B41200E9D7E8CF86F101010101FE
:101C280086517E0BCD6E0101010186AD02D0CD8EAD
:101C380001D0CD9E000ECF6E000ECE6E9E9001019B
:101C4800010186AF02D09D8001D09D90CD80120009
:101C5800E8CF9FF10201020E01010101916F02011B
:101C6800000E01010101906F9FC192F19CC193F197
:101C7800010101019EC195F1010101019DC194F18C
:101C880036EC06F01200010120EE42F00101865107
:101C9800D92601018751DA22DF500101886F01013D
:101CA80088510D0DF350010101018625D96EF450BC
:101CB800010101018721DA6EDF501200E8CF9FF1A0
:101CC8000201020E01010101916F0201430E01019F
:101CD8000101906F9FC192F19CC193F10101010133
:101CE8009EC195F1010101019DC194F136EC06F008
:101CF8001200E8CF95F00101010E00010001876F85
:101D08000101000E00010001866F95C088F092C0A5
:101D180089F00001000194C08BF00001000193C01C
:101D28008AF0CCEC06F01200F2AC05D0000E306E52
:101D3800000E2F6E120084EC0FF02E502D10D8B428
:101D480005D0000E306E000E2F6E1200000E306EA1
:101D5800010E2F6E1200E8CF86F1010101018651B4
:101D68007F0BD56E000ED76E000ED66EF294010171
:101D7800010186AF02D0F28A01D0F29AD58E120004
:101D8800E8CF86F19486948886C1C8FF000EC76E96
:101D9800000EC66E000EC56E0E0EC612C78E948655
:101DA8009488C580C68A1200E8CF1AF00101010E96
:101DB8000C6E0101430E0B6E1AC00DF017C00EF029
:101DC80019C010F018C00FF0E0EC07F0120020EE78
:101DD80042F02D50D9262E50DA22DF502F6E2F5088
:101DE8000D0DF3502D24D96EF4502E20DA6EDF50ED
:101DF80012001B0E325CD8B002D03228326E32503C
:101E0800010D320EF324D96E000EF420DA6EC4CF21
:101E1800DFFF1200E8CF87F1C2CF86F1C30E0101C0
:101E2800861701010101D89087313C0B0101861109
:101E3800C26E1200010187C153F0010186C152F040
:101E480020EE05F05250D9265350DA22000EDF6EEC
:101E58001200F20E4F16ABAC03D04F90ABB04F80D0
:101E6800ABB44F84ABB24F86AECF01F00150120035
:101E7800E8CF86F1FA0E00F0E82EFDD70101010146
:101E8800862FF8D71200010101018DC18FF10101E0
:101E980001018CC18EF1120086C1D9FF87C1DAFF1A
:101EA800000EDE6E000EDD6E1200000EF2AE010EA8
:101EB80001010101866F0101876B120001C003F067
:101EC80002C004F004C0CFFF03C0CEFF1200000E12
:101ED8002E6E000E2D6E74EC0FF098EC0FF01200C1
:101EE8002DC02FF02EC030F030C0D7FF2FC0D6FF46
:101EF8001200000E026E000E016E62EC0FF012006E
:101F0800000EF2AE010E2D6E2E6A1200AA0000001D
:101F180000000101D08EF28EF28C120065EC00F008
:0E1F28001200D38E03001200C28212000102CA
:067FF80080F4C5FFFFF15B
:00000001FF
