:0400000065EF00F0B8
:0C000800FACF98F0FBCF99F0D1EF07F091
:10001800D8CF1CF0E8CF1DF0E0CF1EF0FACF1FF0CC
:10002800FBCF20F0E9CF21F0EACF22F0E1CF23F097
:10003800E2CF24F0D9CF25F0DACF26F0F3CF27F09E
:10004800F4CF28F0F6CF29F0F7CF2AF0F8CF2BF02D
:10005800F5CF2CF09EAC03D09E9C92EC0BF09EA0AA
:1000680003D09E9039EC0CF09EA803D09E98E1EC4A
:100078000BF09EAA03D09E9AB3EC06F02CC0F5FFB5
:100088002BC0F8FF2AC0F7FF29C0F6FF28C0F4FFED
:1000980027C0F3FF26C0DAFF25C0D9FF24C0E2FF3E
:1000A80023C0E1FF22C0EAFF21C0E9FF20C0FBFF17
:1000B8001FC0FAFF1EC0E0FF1DC0E8FF1CC0D8FF2C
:1000C800100093EF09F0000120EE1FF00001CC5161
:1000D800D9260001CD51DA22DF50050AD8B4120022
:1000E800A8D1000120EE40F00001CC51D926000132
:1000F800CD51DA22DF500001936F000193A10BD09C
:10010800000120EE1FF00001CC51D9260001CD518D
:10011800DA22070E0AD0000120EE1FF00001CC51B0
:10012800D9260001CD51DA22090EDF6E000120EE3A
:100138001DF00001CC51D9260001CD51DA22000E64
:10014800DF6E000120EE40F00001CC51D9260001FD
:10015800CD51DA22DF50C96E1200C5BC70D0000143
:1001680020EE3FF00001CC51D9260001CD51DA2212
:10017800DF500001936F00019351010D220EF32609
:10018800000EF422F35000010001CC25D96EF45082
:1001980000010001CD21DA6EDF50C96E000120EEAA
:1001A8003EF00001CC51D9260001CD51DA22DF50B2
:1001B8000001936F946B000120EE3FF00001CC51D9
:1001C800D9260001CD51DA22DF500001956F966BD8
:1001D800010E00019527000E962300019651800A12
:1001E8000001976F000193510001955D0001945142
:1001F800800A00019759D8B016D0000120EE3FF0D0
:100208000001CC51D9260001CD51DA22DF2A0001A4
:1002180020EE1FF00001CC51D9260001CD51DA2281
:10022800090EDF6E1200000120EE1FF00001CC5114
:10023800D9260001CD51DA220D0EDF6E1200C582DB
:10024800000120EE1FF00001CC51D9260001CD514C
:10025800DA220A0EDF6E1200C5BC0DD0C586000179
:1002680020EE1FF00001CC51D9260001CD51DA2231
:100278000C0EDF6E12008A840001936F2E0E0001AF
:1002880000018F6F0001935100010001CDC091F072
:1002980000010001CCC090F0000E26EC0BF000012C
:1002A80020EE1CF00001CC51D9260001CD51DA22F4
:1002B800000EDF6E000120EE1FF00001CC51D926A0
:1002C8000001CD51DA22050EDF6E12008A828A9271
:1002D800000120EE1CF00001CC51D9260001CD51BF
:1002E800DA22DF500001936F946B000120EE1DF0BD
:1002F8000001CC51D9260001CD51DA22DF5000018E
:10030800956F966B010E00019527000E962300014C
:100318009651800A0001976F000193510001955D85
:1003280000019451800A00019759D8B033D00001D8
:1003380020EE1DF00001CC51D9260001CD51DA2262
:10034800DF500001936F00019351010DF35000013C
:100358000001CC25D96EF45000010001CD21DA6EE0
:10036800C9CFDFFF000120EE1DF00001CC51D926D6
:100378000001CD51DA22DF2A000120EE1FF0000132
:10038800CC51D9260001CD51DA22070EDF6EC59A6D
:10039800C5881200000120EE1FF00001CC51D926BB
:1003A8000001CD51DA220B0EDF6E0001936F2D0E86
:1003B800000100018F6F0001935100010001CDC0C1
:1003C80091F000010001CCC090F0000120EE1CF07B
:1003D8000001CC51D9260001CD51DA22DF5026EC9C
:1003E8000BF0C58AC5881200000120EE1FF000013D
:1003F800CC51D9260001CD51DA22050EDF6E00015D
:1004080020EE1CF00001CC51D9260001CD51DA2292
:10041800DF5033EC09F01200C584000120EE1FF014
:100428000001CC51D9260001CD51DA22050EDF6E2C
:100438001200000120EE1FF00001CC51D926000166
:10044800CD51DA22DF50070AD8B406D70E0AD8B43D
:1004580084D6030AD8B445D6010AD8B4DDD7070A2A
:10046800D8B434D7010AD8A41200BED7820ED36EEE
:100478009B9C0101010E00010001A76F0101A50E5F
:1004880000010001A66FC3EC0BF00101010E000191
:100498000001A76F0101B20E00010001A66FFEEC7A
:1004A80008F00101010E00010001A76F0101A30E70
:1004B80000010001A66F0CEC0CF0C7EC08F0000E70
:1004C800936E000E8A6E000E806E000E896E0F0EFF
:1004D800926ED50E58EC0BF0850ED4EC0AF09F9C6A
:1004E8009D8C9F909F9A9F989F86A3EC0BF09D866A
:1004F800000E00010001A76F260E0001A66FFC0E7A
:1005080001EC07F0AB8E946846EC0CF00001CA6F62
:100518000C0E00010001A66F0001CA510001CB6F4B
:100528000B0E00010001A76F0001CB51530E8FEC99
:1005380007F08F0EB3EC0BF0F5C1A2F10101010E2B
:1005480000010001A76F0101A20E00010001A66FC2
:10055800010E04EC06F012EC08F00101010E000196
:100568000001BF6F0101B10E00010001BE6F010162
:10057800010E00010001C16F01017E0E00010001A2
:10058800C06F1C0E74EC0AF001010101B06F01018B
:100598000101B0BF80D06DD00101010E0001000142
:1005A800A76F0101A00E00010001A66F0101000163
:1005B800B1C1A8F000010001A96B01010101B0510E
:1005C80000010001AA6F0001AB6B0001AABFAB07D5
:1005D8000101010E00010001AD6F01017E0E000155
:1005E8000001AC6F03EC0CF056D07EC19DF153D0E6
:1005F8000001CA6F050E00010001A66F0001CA5173
:100608000101010E00010001A86F0101A20E000105
:100618000001A76F0001CB6F9E0E00010001A96FBA
:100628000001CB51010ECDEC03F035D0F3C19BF1A5
:10063800F4C19CF10001CA6F050E00010001A66F0C
:100648000001CA510101010E00010001A86F01015A
:10065800A20E00010001A76F0001CB6F9E0E0001E2
:100668000001A96F0001CB51010ECDEC03F08A9473
:1006780012D001010101B1510A0AD8B48DD7220A5A
:10068800D8B4B3D7010AD8B4B0D7040AD8B4B0D70D
:10069800030AD8B4CBD70101010E00010001BF6FD6
:1006A8000101B10E00010001BE6F0101010E000140
:1006B8000001C16F01017E0E00010001C06F1C0E18
:1006C80053EC0AF001010101B06F01010101B0BF53
:1006D80042D752D00101010E00010001C16F010192
:1006E800A30E00010001C06F01010001B1C1C2F0F9
:1006F80000010001C36B01010101B05100010001BB
:10070800C46F0001C56B0001C4BFC5070101010E1C
:1007180000010001C76F01017E0E00010001C66FD4
:100728008EEC08F018D70101010E00010001A76F37
:1007380001019E0E00010001A66F01010001B1C177
:10074800A8F000010001A96B01010101B0510001ED
:100758000001AA6F0001AB6B0001AABFAB07010142
:10076800010E00010001AD6F01017E0E00010001C4
:10077800AC6FB5EC0AF0EFD601010101B1510B0ADB
:10078800D8B4A8D7150AD8B4CED7010AD8B4CBD7CD
:10079800E2D6E8CFACF0000120EE3EF00001CC51EB
:1007A800D9260001CD51DA22000EDF6E42D00001B9
:1007B80020EE3EF00001CC51D9260001CD51DA22BD
:1007C800DF500001AA6F0001AA51010DF35000018A
:1007D8000001A725D96EF45000010001A821DA6EA6
:1007E800000110EE3EF00001CC51E1260001CD5190
:1007F800E222E7500001AB6F0001AB51010D220E60
:10080800F326000EF422F35000010001CC25E16E1E
:10081800F45000010001CD21E26EDFCFE7FF0001B7
:1008280020EE3EF00001CC51D9260001CD51DA224C
:10083800DF2A000120EE3EF00001CC51D92600014C
:10084800CD51DA22DF500001AA6F00010001AC513E
:100858000001AA5DD8A0ABD7000120EE40F000014E
:10086800CC51D9260001CD51DA220001A9C0DFFF01
:10087800000120EE3EF00001CC51D9260001CD51F7
:10088800DA220001ACC0DFFF000120EE1CF00001FD
:10089800CC51D9260001CD51DA220001A6C0DFFFD4
:1008A800000120EE1FF00001CC51D9260001CD51E6
:1008B800DA220A0EDF6E000120EE3FF00001CC5173
:1008C800D9260001CD51DA22000EDF6EC580120054
:1008D800000120EE7DF00001B051D9260001B15190
:1008E800DA22DF5000010001B96F00010001B9519F
:1008F8001F0DF35000010001B02500010001BC6F7D
:10090800F45000010001B1210001BD6F010EBCC00F
:10091800D9FFBDC0DAFFDF6274D0000120EE01F01C
:100928000001BC51D9260001BD51DA22DF50000177
:100938000001B25DD8B002D0FD0E1200000120EE19
:1009480001F00001BC51D9260001BD51DA22DF5067
:100958000001B76F0001B75100010001BA6F000133
:10096800BB6B00010001B6C0A7F000010001B5C0D3
:10097800A6F0030E00010001BC250001B76F000EB0
:1009880000010001BD210001B86FB7C0A8F0B8C0D0
:10099800A9F0BAC0AAF0BBC0ABF064EC09F0000142
:1009A80020EE7DF00001B051D9260001B151DA22C4
:1009B800000110EE7DF00001B051E1260001B151B7
:1009C800E222E7500001B76F0001B729030BDF6E81
:1009D800000120EE02F00001BC51D9260001BD51F2
:1009E800DA22B3C0E1FFB4C0E2FFDFCFE7FFBCC04B
:1009F800D9FFBDC0DAFF000EDF6E00010001BA5159
:100A08001200FC0E120000010001B2C0B7F0000194
:100A18000001B86B000120EE7CF00001B051D9262E
:100A28000001B151DA22DF5000010001B96F000165
:100A38000001B9511F0DF35000010001B02500015C
:100A48000001BA6FF45000010001B1210001BB6F31
:100A5800BAC0D9FFBBC0DAFFDF50D8B402D0FF0E4E
:100A68001200000120EE01F00001BA51D926000160
:100A7800BB51DA220001B2C0DFFF000120EE02F014
:100A88000001BA51D9260001BB51DA220001B3C0D6
:100A9800DFFF030E00010001BA2500010001A66F67
:100AA800000E00010001BB210001A76F0001000139
:100AB800B5C0A9F000010001B4C0A8F0B7C0AAF001
:100AC800B8C0ABF064EC09F0000120EE7CF0000146
:100AD800B051D9260001B151DA22000110EE7CF0A4
:100AE8000001B051E1260001B151E222E7500001B6
:100AF800B66F0001B629030BDF6EBAC0D9FFBBC0C1
:100B0800DAFF010EDF6E010E12000001000186C03F
:100B18008AF0000100018B6B000120EE7CF00001DF
:100B28008451D92600018551DA22DF5000010001E5
:100B38008C6F000100018C511F0DF3500001000162
:100B48008425000100018D6FF4500001000185210A
:100B580000018E6F8DC0D9FF8EC0DAFFDF50D8B488
:100B680002D0FF0E1200000120EE01F000018D51AD
:100B7800D92600018E51DA22000186C0DFFF00016C
:100B880020EE02F000018D51D92600018E51DA22A3
:100B9800000187C0DFFF030E000100018D252D6EC7
:100BA800000E000100018E212E6E000189C030F078
:100BB800000188C02FF08AC031F08BC032F0BFEC42
:100BC80009F0000120EE7CF000018451D9260001D3
:100BD8008551DA22000110EE7CF000018451E126F3
:100BE80000018551E222E750336E3328030BDF6E94
:100BF8008DC0D9FF8EC0DAFF010EDF6E010E120024
:100C0800E8CFAAF020EE09F05250D9265350DA2244
:100C1800000EDF6E35D020EE09F05250D926535021
:100C2800DA22DF500001A86F0001A851010DF3502E
:100C380000010001A625D96EF45000010001A7218A
:100C4800DA6E10EE09F05250E1265350E222E750D6
:100C58000001A96F0001A951010D050EF326000E30
:100C6800F422F3505224E16EF4505320E26EDFCFA9
:100C7800E7FF20EE09F05250D9265350DA22DF2A36
:100C880020EE09F05250D9265350DA22DF500001E5
:100C9800A86F00010001AA510001A85DD8A0BBD728
:100CA80020EE0AF05250D9265350DA22000EDF6E99
:100CB8009D8812000DC012F0136A20EE7CF00B50D4
:100CC800D9260C50DA22DF50146E14501F0DF35041
:100CD8000B24156EF4500C20166E15C0D9FF16C0E3
:100CE800DAFFDF50D8B402D0FF0E120020EE01F078
:100CF8001550D9261650DA220DC0DFFF20EE02F07B
:100D08001550D9261650DA220EC0DFFF030E15241F
:100D1800016E000E1620026E10C004F00FC003F022
:100D280012C005F013C006F095EC0AF020EE7CF036
:100D38000B50D9260C50DA2210EE7CF00B50E1262D
:100D48000C50E222E750116E1128030BDF6E15C01C
:100D5800D9FF16C0DAFF010EDF6E010E12009EAA3F
:100D68003CD020EE04F05250D9265350DA22DF50FE
:100D78001B6E1B50010DF3505224D96EF4505320B2
:100D8800DA6ED2EC0BF0DF6E20EE04F05250D9266A
:100D98005350DA22DF2A20EE04F05250D92653505D
:100DA800DA22040EDF6219D01B6E1F0E176E1B505D
:100DB80053C019F052C018F020EE04F05250D92652
:100DC8005350DA22DF506DEC0BF020EE04F0525055
:100DD800D9265350DA22000EDF6E51A61200AB98C6
:100DE800AB881B6E1E0E176E1B50000E196E000E80
:100DF800186E000E6DEC0BF01200E8CFABF0000E91
:100E0800AC6E000EAB6E00010001ABB1AC88000106
:100E18000001ABA302D0AC8CAB8C00010001ABB5D8
:100E2800AC8E00010001ABA702D0AB8801D0AB8A21
:100E380000010001ABB9AC849E9800010001ABBB76
:100E4800AB8600010001ABAD02D09D8A01D09D9A0E
:100E58009E9A00010001ABAF02D09D8801D09D98F9
:100E6800A6C0AFFF0001A7C0A8F0A8C0A9F0000164
:100E7800AA6B0001A951B06EAC8AAB8E949C948E7B
:100E8800ACA81200ACBE1200948C12000001000144
:100E9800A951A811D8B43AD00001AA6F010E0001D7
:100EA8000001AB6F0001AA5109D000010001000147
:100EB800D890A837A93700010001AB2B0001000129
:100EC800A9AFF3D700010001A85100010001A65DF8
:100ED80000010001A95100010001A759D8A00CD0B8
:100EE80000010001A85100010001A65F00010001F6
:100EF800A95100010001A75B000100010001D89081
:100F0800A933A83300010001AB2FDCD7A6C0A6F097
:100F1800A7C0A7F01200E8CFAAF0000EC26E000E1C
:100F2800C06E00010001D890A6313C0BC26EA6C06D
:100F3800A8F00001A83BF00EA817300E0001A81772
:100F480000010001A7510F0B0001A811C16EAAC032
:100F5800A8F00001D890A8370001D890A837380E1B
:100F68000001A817AAC0A9F00001A93B0F0EA917F4
:100F7800070E0001A91700010001AA51800B00010A
:100F8800A9110001A811C06E00010001A6AF03D08D
:100F98009E9C9D8CF28CC2801200E9CF9AF0EACF19
:100FA8009BF0E1CF9CF0E2CF9DF0D9CF9EF0DACF55
:100FB8009FF0F3CFA0F0F4CFA1F0F6CFA2F0F7CFD7
:100FC800A3F0F8CFA4F0F5CFA5F09EA603D09E9687
:100FD8004AEC0CF0F2A403D0F29427EC0CF0E7EC06
:100FE80009F0A5C0F5FFA4C0F8FFA3C0F7FFA2C091
:100FF800F6FFA1C0F4FFA0C0F3FF9FC0DAFF9EC0B8
:10100800D9FF9DC0E2FF9CC0E1FF9BC0EAFF9AC0E8
:10101800E9FF99C0FBFF98C0FAFF110031EC0AF014
:1010280000010001AB510001AA11D8B4120000015F
:10103800AC6F010E506E0001AC510201020E0001AE
:101048000001A76F02017E0E00010001A66F0BECE4
:101058000BF00009D8B407D00001AC6F000E506E39
:101068000001AC5112000101010E00010001A76F3F
:101078000101000E00010001A66F0BEC0BF0000946
:10108800D8B407D00001AC6F000E506E0001AC510F
:1010980012000A0EEEEC0BF0D0D7000120EE7CF027
:1010A8000001A651D9260001A751DA22000EDF6EF1
:1010B800000120EE7DF00001A651D9260001A751BC
:1010C800DA22000EDF6E0001A86F000E0001000199
:1010D800A96F0001A851030E00010001A96501D004
:1010E800120000010001A9511F0DF3500001000179
:1010F800A625D96EF45000010001A721DA6E000E72
:10110800DF6E00010001A92B030E00010001A96593
:10111800E8D71200C0C0D9FFC1C0DAFFDE2A000E2E
:10112800DD22C0C0D9FFC1C0DAFF0001DECFA6F0C2
:101138000001DDCFA7F0000E00010001A96F0A0E23
:101148000001A86F4AEC07F000010001A651090A46
:101158000001A711D8A412000001C86F140E0001E5
:101168000001BC6F0001C85100010001C1C0BEF000
:1011780000010001C0C0BDF0020EF0EC0AF0000151
:101188000001C96F12000001AA6F000E506E000125
:10119800AA510101010E00010001A76F0101000E13
:1011A80000010001A66F51EC08F00201020E0001D7
:1011B8000001A76F02017E0E00010001A66F51EC2D
:1011C80008F00201020E00010001A76F0201000EE3
:1011D80000010001A66F51EC08F00301030E0001A5
:1011E8000001A76F0301000E00010001A66F51EC7A
:1011F80008F0120000010001A7C0CDF000010001B5
:10120800A6C0CCF0000120EE1CF00001CC51D9267C
:101218000001CD51DA22000EDF6E000120EE1EF033
:101228000001CC51D9260001CD51DA22000EDF6E23
:10123800000120EE1FF00001CC51D9260001CD514C
:10124800DA22050EDF6E000120EE21F00001CC51FC
:10125800D9260001CD51DA22000EDF6E1200E8CF48
:101268002DF0000120EE1FF00001CC51D92600011D
:10127800CD51DA22050EDF621200000120EE40F0A7
:101288000001CC51D9260001CD51DA22000EDB80B5
:10129800000120EE1CF00001CC51D9260001CD51EF
:1012A800DA222DC0DFFF000120EE1FF00001CC5133
:1012B800D9260001CD51DA220A0EDF6EC58212004E
:1012C80000010001A9C0AFF000010001A8C0AEF004
:1012D80000010001A7C0ADF000010001A6C0ACF0FC
:1012E80012D0AEC0D9FFAFC0DAFFACC0E1FFADC0CD
:1012F800E2FFDFCFE7FF00010001AE4BAF2B00019B
:101308000001AC4BAD2B00010001AA07D8A0AB0728
:101318000001AA29D8B4AB29D8B41200E2D703EE49
:1013280000F07E0EEE6AE806FDE102EE00F0FC0E2B
:10133800EE6AE806FDE101EE00F07E0EEE6AE806D0
:10134800FDE100EE34F01E0EEE6AE806FDE1A40EA3
:10135800F66E180EF76E000EF86E0900F5CFF3F171
:101368000900F5CFF4F10900F5CFF5F1000EF86E9C
:1013780000013AEF02F0000130C083F000012FC0F5
:1013880082F000012EC081F000012DC080F012D043
:1013980082C0D9FF83C0DAFF80C0E1FF81C0E2FFCD
:1013A800DFCFE7FF00010001824B832B0001000122
:1013B800804B812B3106D8A032063128D8B4322888
:1013C800D8B41200E5D7506601D0120041EC0BF0FA
:1013D80030502F10D8A4120040EC0CF02E502D10D5
:1013E800D8B412000201020E2E6E02017E0E2D6E7E
:1013F80080EC0BF00009D8A412000101010E2E6E3A
:101408000101000E2D6E80EC0BF00009D8B44DECF4
:101418000CF01200F2AC08D0000E00010001A96F18
:10142800000E0001A86F120015EC0CF0000100017D
:10143800A7510001A611D8B408D0000E0001000180
:10144800A96F000E0001A86F1200000E0001000134
:10145800A96F010E0001A86F12000EEC0AF000013E
:101468000001A9510001A811D8A411D015EC0CF065
:1014780000010001A7510001A611D8A408D0000E50
:1014880000010001AB6F010E0001AA6F1200000EEF
:1014980000010001AB6F000E0001AA6F1200E8CF37
:1014A800C2F00101010E00010001B16F0101000E3F
:1014B80000010001B06FC2C0B2F000010001BFC05E
:1014C800B4F000010001BEC0B3F000010001C1C0CA
:1014D800B6F000010001C0C0B5F06CEC04F01200D9
:1014E800E8CFC2F00201020E00010001B16F020153
:1014F8007E0E00010001B06FC2C0B2F00001000111
:10150800BFC0B4F000010001BEC0B3F0000100018B
:10151800C1C0B6F000010001C0C0B5F06CEC04F029
:10152800120004C00AF003C009F002C008F001C0AC
:1015380007F00ED009C0D9FF0AC0DAFF07C0E1FFE3
:1015480008C0E2FFDFCFE7FF094A0A2A074A082A4C
:101558000506D8A006060528D8B40628D8B412006F
:10156800E9D700010001A8511E0AA911D8B4120038
:1015780000010001A8511F0AA911D8A412000001F6
:101588000001AA5100010001AC25D96E000100013B
:10159800AB5100010001AD21DA6E000EDF6E1200C2
:1015A800E8CFA6F000010001A6517E0BCD6E000128
:1015B8000001A6AD02D0CD8E01D0CD9E000ECF6E1B
:1015C800000ECE6E9E9000010001A6AF02D09D8055
:1015D80001D09D90CD801200E8CFBFF00301030E2B
:1015E80000010001B16F0301000E00010001B06F9E
:1015F800BFC0B2F0BCC0B3F000010001BEC0B5F07E
:1016080000010001BDC0B4F007EC05F012000001B4
:1016180020EE7DF00001A651D9260001A751DA225B
:10162800DF500001A86F0001A8511F0DF350000101
:101638000001A625D96EF45000010001A721DA6E39
:10164800DF501200E8CF92F00201020E0001000103
:10165800856F02017E0E00010001846F92C086F042
:101668008FC087F00001000191C089F000010001DE
:1016780090C088F089EC05F01200F2AC05D0000E9D
:10168800306E000E2F6E120040EC0CF02E502D1014
:10169800D8B405D0000E306E000E2F6E1200000E6A
:1016A800306E010E2F6E1200E8CFA6F00001000187
:1016B800A6517F0BD56E000ED76E000ED66EF29433
:1016C80000010001A6AF02D0F28A01D0F29AD58EAD
:1016D8001200E8CF1AF00101010E0C6E0101000E94
:1016E8000B6E1AC00DF017C00EF019C010F018C01C
:1016F8000FF05EEC06F0120020EE7DF02D50D9269A
:101708002E50DA22DF502F6E2F501F0DF3502D244C
:10171800D96EF4502E20DA6EDF5012001B0E345CA6
:10172800D8B002D03428346E3450010D340EF3246E
:10173800D96E000EF420DA6EC4CFDFFF1200000E5F
:10174800C76E000EC66E000EC56E948694881D0E78
:10175800C86EC650F00B0809C66EC68A1200E8CFDC
:10176800A7F0C2CFA6F0C30E0001A6170001000122
:10177800D890A7313C0B0001A611C26E12000001DF
:10178800A7C053F00001A6C052F020EE04F052505A
:10179800D9265350DA22000EDF6E1200F20E5116CF
:1017A800ABAC03D05190ABB05180ABB45184ABB269
:1017B8005186AECF01F001501200ACA209D020EE44
:1017C80005F05250D9265350DA22DF50F9EC0BF0CD
:1017D8009D981200E8CFA6F0FA0E00F0E82EFDD78B
:1017E80000010001A62FF8D71200E8CF01F0ACAC39
:1017F80003D0AC9051B2AC8001C0ADFF1200000123
:101808000001ADC0AFF000010001ACC0AEF01200A5
:10181800A6C0D9FFA7C0DAFF000EDE6E000EDD6E8F
:101828001200000EF2AE010E00010001A66F0001C9
:10183800A76B120001C003F002C004F004C0CFFF80
:1018480003C0CEFF1200000E2E6E000E2D6E30EC7F
:101858000CF050EC0CF012002DC02FF02EC030F020
:1018680030C0D7FF2FC0D6FF1200000E026E000E48
:10187800016E1EEC0CF01200000EF2AE010E2D6E81
:101888002E6A1200D08EF28EF28C120067EC00F0F5
:101898001200D38E03001200C2821200EEFF010074
:067FF80080F4C5FFFFF15B
:00000001FF
