:0400000063EF00F0BA
:0C000800FACF9FF0FBCFA0F051EF07F003
:10001800D8CF1CF0E8CF1DF0E0CF1EF0FACF1FF0CC
:10002800FBCF20F0E9CF21F0EACF22F0E1CF23F097
:10003800E2CF24F0D9CF25F0DACF26F0F3CF27F09E
:10004800F4CF28F0F6CF29F0F7CF2AF0F8CF2BF02D
:10005800F5CF2CF09EAC03D09E9C5CEC0BF09EA0E0
:1000680003D09E90F8EC0BF09EB81EEC09F09EAA07
:1000780003D09E9A33EC06F02CC0F5FF2BC0F8FF96
:100088002AC0F7FF29C0F6FF28C0F4FF27C0F3FFF6
:1000980026C0DAFF25C0D9FF24C0E2FF23C0E1FF54
:1000A80022C0EAFF21C0E9FF20C0FBFF1FC0FAFF02
:1000B8001EC0E0FF1DC0E8FF1CC0D8FF10007EEF87
:1000C80008F0000120EE1FF00001D151D9260001EF
:1000D800D251DA22DF50050AD8B41200A8D10001A3
:1000E80020EE40F00001D151D9260001D251DA2288
:1000F800DF5000019A6F00019AA10BD0000120EE99
:100108001FF00001D151D9260001D251DA22070E81
:100118000AD0000120EE1FF00001D151D9260001BC
:10012800D251DA22090EDF6E000120EE1DF0000127
:10013800D151D9260001D251DA22000EDF6E00011A
:1001480020EE40F00001D151D9260001D251DA2227
:10015800DF50C96E1200C5BC70D0000120EE3FF020
:100168000001D151D9260001D251DA22DF50000115
:100178009A6F00019A51010D220EF326000EF42207
:10018800F35000010001D125D96EF450000100019F
:10019800D221DA6EDF50C96E000120EE3EF0000178
:1001A800D151D9260001D251DA22DF5000019A6FCD
:1001B8009B6B000120EE3FF00001D151D9260001D0
:1001C800D251DA22DF5000019C6F9D6B010E0001B5
:1001D8009C27000E9D2300019D51800A00019E6FFF
:1001E80000019A5100019C5D00019B51800A0001A9
:1001F8009E59D8B016D0000120EE3FF00001D15131
:10020800D9260001D251DA22DF2A000120EE1FF0A0
:100218000001D151D9260001D251DA22090EDF6E30
:100228001200000120EE1FF00001D151D926000173
:10023800D251DA220D0EDF6E1200C582000120EEC7
:100248001FF00001D151D9260001D251DA220A0E3D
:10025800DF6E1200C5BC0DD0C586000120EE1FF070
:100268000001D151D9260001D251DA220C0EDF6EDD
:1002780012008A8400019A6F2E0E00010001966F09
:1002880000019A5100010001D2C098F0000100015C
:10029800D1C097F0000EFEEC0AF0000120EE1CF031
:1002A8000001D151D9260001D251DA22000EDF6EA9
:1002B800000120EE1FF00001D151D9260001D251D2
:1002C800DA22050EDF6E12008A828A92000120EE81
:1002D8001CF00001D151D9260001D251DA22DF5099
:1002E80000019A6F9B6B000120EE1DF00001D151B7
:1002F800D9260001D251DA22DF5000019C6F9D6B94
:10030800010E00019C27000E9D2300019D51800ACB
:1003180000019E6F00019A5100019C5D00019B51F4
:10032800800A00019E59D8B033D0000120EE1DF09C
:100338000001D151D9260001D251DA22DF50000143
:100348009A6F00019A51010DF35000010001D12567
:10035800D96EF45000010001D221DA6EC9CFDFFF57
:10036800000120EE1DF00001D151D9260001D25123
:10037800DA22DF2A000120EE1FF00001D151D92630
:100388000001D251DA22070EDF6EC59AC588120025
:10039800000120EE1FF00001D151D9260001D251F1
:1003A800DA220B0EDF6E00019A6F2D0E000100019C
:1003B800966F00019A5100010001D2C098F0000127
:1003C8000001D1C097F0000120EE1CF00001D151CE
:1003D800D9260001D251DA22DF50FEEC0AF0C58A94
:1003E800C5881200000120EE1FF00001D151D92666
:1003F8000001D251DA22050EDF6E000120EE1CF05A
:100408000001D151D9260001D251DA22DF5052EC35
:1004180009F01200C584000120EE1FF00001D1513F
:10042800D9260001D251DA22050EDF6E1200000132
:1004380020EE1FF00001D151D9260001D251DA2255
:10044800DF50070AD8B406D70E0AD8B484D6030AF0
:10045800D8B445D6010AD8B4DDD7070AD8B434D7FA
:10046800010AD8A41200BED7820ED36E9B9C01014C
:10047800010E00010001AE6F0101A50E000100018F
:10048800AD6F8DEC0BF00101010E00010001AE6FA4
:100498000101B20E00010001AD6FB4EC08F00101DA
:1004A800010E00010001AE6F0101A10E0001000163
:1004B800AD6FCBEC0BF047EC08F0000E936E000E1E
:1004C8008A6E000E806E000E896E0F0E926ED50E2B
:1004D80034EC0BF0850EACEC0AF09F9C9D8C9F9041
:1004E8009F9A9F989F866DEC0BF09D86000E0001E9
:1004F8000001AE6F260E0001AD6FFC0E81EC06F018
:10050800AB8E946804EC0CF001017E6F0C0E0001B8
:100518000001AD6F01017E5101017F6F0B0E0001DB
:100528000001AE6F01017F51530E0FEC07F08F0EE3
:100538007DEC0BF0F3C19EF192EC07F00101010E86
:1005480000010001C66F0101A30E00010001C56F83
:100558000101010E00010001C86F0101800E0001B8
:100568000001C76F1C0E6BEC0AF001010101A46FBA
:1005780001010101A4BF41D02ED00101010E0001EB
:100588000001AE6F01019F0E00010001AD6F010176
:100598000001A3C1AFF000010001B06B010101012E
:1005A800A45100010001B16F0001B26B0001B1BF9D
:1005B800B2070101010E00010001B46F0101800EB4
:1005C80000010001B36FC2EC0BF017D080C19DF1A0
:1005D80014D08A9412D001010101A3510A0AD8B497
:1005E800CCD7220AD8B4F2D7010AD8B4EFD7040A74
:1005F800D8B403D0030AD8B4ECD70101010E000126
:100608000001C66F0101A30E00010001C56F0101C1
:10061800010E00010001C86F0101800E00010001F8
:10062800C76F1C0E4AEC0AF001010101A46F010119
:100638000101A4BF81D772D00101010E00010001A0
:10064800C86F0101A10E00010001C76F010100017F
:10065800A3C1C9F000010001CA6B01010101A45145
:1006680000010001CB6F0001CC6B0001CBBFCC07B0
:100678000101010E00010001CE6F0101800E000191
:100688000001CD6F0EEC08F057D701010101805130
:10069800BA0AD8A41ED001017E6F050E0001000120
:1006A800AD6F01017E510101010E00010001AF6F24
:1006B8000101800E00010001AE6F01017F6FBE0EC7
:1006C80000010001B06F01017F51050E9FEC03F09E
:1006D80023D0010101018051AA0AD8A41DD001012B
:1006E8007E6F050E00010001AD6F01017E51010111
:1006F800010E00010001AF6F0101800E0001000131
:10070800AE6F01017F6F9E0E00010001B06F010105
:100718007F51010E9FEC03F08A940ED7010101016D
:10072800A3510B0AD8B488D7150AD8B4AED7010A92
:10073800D8B4ABD701D7E8CFB3F08A84000120EE54
:100748003EF00001D151D9260001D251DA22000E23
:10075800DF6E42D0000120EE3EF00001D151D926D3
:100768000001D251DA22DF500001B16F0001B1510E
:10077800010DF35000010001AE25D96EF4500001BF
:100788000001AF21DA6E000110EE3EF00001D151F8
:10079800E1260001D251E222E7500001B26F0001C8
:1007A800B251010D220EF326000EF422F35000017F
:1007B8000001D125E16EF45000010001D221E26E62
:1007C800DFCFE7FF000120EE3EF00001D151D9262E
:1007D8000001D251DA22DF2A000120EE3EF00001AA
:1007E800D151D9260001D251DA22DF500001B16F70
:1007F80000010001B3510001B15DD8A0ABD70001E1
:1008080020EE40F00001D151D9260001D251DA2260
:100818000001B0C0DFFF000120EE3EF00001D15121
:10082800D9260001D251DA220001B3C0DFFF00014E
:1008380020EE1CF00001D151D9260001D251DA2254
:100848000001ADC0DFFF000120EE1FF00001D15113
:10085800D9260001D251DA220A0EDF6E000120EEFD
:100868003FF00001D151D9260001D251DA22000E01
:10087800DF6EC5801200000120EE7DF00001B75147
:10088800D9260001B851DA22DF5000010001C06FFB
:1008980000010001C0511F0DF35000010001B725F0
:1008A80000010001C36FF45000010001B8210001EC
:1008B800C46F010EC3C0D9FFC4C0DAFFDF6274D0B1
:1008C800000120EE01F00001C351D9260001C451F6
:1008D800DA22DF5000010001B95DD8B002D0FD0E68
:1008E8001200000120EE01F00001C351D9260001D9
:1008F800C451DA22DF500001BE6F0001BE51000171
:100908000001C16F0001C26B00010001BDC0AEF063
:1009180000010001BCC0ADF0030E00010001C325B9
:100928000001BE6F000E00010001C4210001BF6F6D
:10093800BEC0AFF0BFC0B0F0C1C0B1F0C2C0B2F02D
:1009480084EC09F0000120EE7DF00001B751D926B2
:100958000001B851DA22000110EE7DF00001B75114
:10096800E1260001B851E222E7500001BE6F000104
:10097800BE29030BDF6E000120EE02F00001C35117
:10098800D9260001C451DA22BAC0E1FFBBC0E2FF98
:10099800DFCFE7FFC3C0D9FFC4C0DAFF000EDF6EA8
:1009A80000010001C1511200FC0E120000010001FB
:1009B800B9C0BEF000010001BF6B000120EE7CF061
:1009C8000001B751D9260001B851DA22DF500001E1
:1009D8000001C06F00010001C0511F0DF35000015C
:1009E8000001B72500010001C16FF45000010001AA
:1009F800B8210001C26FC1C0D9FFC2C0DAFFDF5001
:100A0800D8B402D0FF0E1200000120EE01F0000160
:100A1800C151D9260001C251DA220001B9C0DFFF55
:100A2800000120EE02F00001C151D9260001C25197
:100A3800DA220001BAC0DFFF030E00010001C12560
:100A480000010001AD6F000E00010001C22100018C
:100A5800AE6F00010001BCC0B0F000010001BBC0D6
:100A6800AFF0BEC0B1F0BFC0B2F084EC09F0000135
:100A780020EE7CF00001B751D9260001B851DA22E6
:100A8800000110EE7CF00001B751E1260001B851D9
:100A9800E222E7500001BD6F0001BD29030BDF6EA4
:100AA800C1C0D9FFC2C0DAFF010EDF6E010E12000D
:100AB800000100018CC091F000010001926B00015F
:100AC80020EE7CF000018A51D92600018B51DA22F0
:100AD800DF5000010001936F0001000193511F0DC9
:100AE800F350000100018A2500010001946FF450C1
:100AF800000100018B210001956F94C0D9FF95C0BA
:100B0800DAFFDF50D8B402D0FF0E1200000120EE49
:100B180001F000019451D92600019551DA22000113
:100B28008CC0DFFF000120EE02F000019451D926AD
:100B380000019551DA2200018DC0DFFF030E00018C
:100B48000001942500010001806F000E00010001E2
:100B580095210001816F000100018FC083F0000121
:100B680000018EC082F091C084F092C085F0B3EC91
:100B780009F0000120EE7CF000018A51D92600011D
:100B88008B51DA22000110EE7CF000018A51E12637
:100B980000018B51E222E7500001906F000190297B
:100BA800030BDF6E94C0D9FF95C0DAFF010EDF6E2C
:100BB800010E12000DC012F0136A20EE7CF00B50EB
:100BC800D9260C50DA22DF50146E14501F0DF35042
:100BD8000B24156EF4500C20166E15C0D9FF16C0E4
:100BE800DAFFDF50D8B402D0FF0E120020EE01F079
:100BF8001550D9261650DA220DC0DFFF20EE02F07C
:100C08001550D9261650DA220EC0DFFF030E152420
:100C1800016E000E1620026E10C004F00FC003F023
:100C280012C005F013C006F08CEC0AF020EE7CF040
:100C38000B50D9260C50DA2210EE7CF00B50E1262E
:100C48000C50E222E750116E1128030BDF6E15C01D
:100C5800D9FF16C0DAFF010EDF6E010E12009EAA40
:100C68003CD020EE05F05550D9265650DA22DF50F8
:100C78001B6E1B50010DF3505524D96EF4505620AD
:100C8800DA6E9CEC0BF0DF6E20EE05F05550D9269D
:100C98005650DA22DF2A20EE05F05550D926565054
:100CA800DA22050EDF6219D01B6E1F0E176E1B505D
:100CB80056C019F055C018F020EE05F05550D92649
:100CC8005650DA22DF5049EC0BF020EE05F0555073
:100CD800D9265650DA22000EDF6E4AA61200AB98CB
:100CE800AB881B6E1E0E176E1B50000E196E000E81
:100CF800186E000E49EC0BF01200E8CFB2F0000EAF
:100D0800AC6E000EAB6E00010001B2B1AC88000100
:100D18000001B2A302D0AC8CAB8C00010001B2B5CB
:100D2800AC8E00010001B2A702D0AB8801D0AB8A1B
:100D380000010001B2B9AC849E9800010001B2BB69
:100D4800AB8600010001B2AD02D09D8A01D09D9A08
:100D58009E9A00010001B2AF02D09D8801D09D98F3
:100D6800ADC0AFFF0001AEC0AFF0AFC0B0F0000142
:100D7800B16B0001B051B06EAC8AAB8E949C948E6E
:100D8800ACA81200ACBE1200948C12000001000145
:100D9800B051AF11D8B43AD00001B16F010E0001C3
:100DA8000001B26F0001B15109D00001000100013A
:100DB800D890AF37B03700010001B22B0001000115
:100DC800B0AFF3D700010001AF5100010001AD5DE4
:100DD80000010001B05100010001AE59D8A00CD0AB
:100DE80000010001AF5100010001AD5F00010001E9
:100DF800B05100010001AE5B000100010001D89074
:100E0800B033AF3300010001B22FDCD7ADC0ADF075
:100E1800AEC0AEF01200E8CFB1F0000EC26E000E08
:100E2800C06E00010001D890AD313C0BC26EADC060
:100E3800AFF00001AF3BF00EAF17300E0001AF1757
:100E480000010001AE510F0B0001AF11C16EB1C01E
:100E5800AFF00001D890AF370001D890AF37380E07
:100E68000001AF17B1C0B0F00001B03B0F0EB017D2
:100E7800070E0001B01700010001B151800B0001FD
:100E8800B0110001AF11C06E00010001ADAF03D079
:100E98009E9C9D8CF28CC2801200E9CFA1F0EACF13
:100EA800A2F0E1CFA3F0E2CFA4F0D9CFA5F0DACF3A
:100EB800A6F0F3CFA7F0F4CFA8F0F6CFA9F0F7CFBC
:100EC800AAF0F8CFABF0F5CFACF09EA603D09E9673
:100ED80008EC0CF0F2A403D0F294ABEC0BF0E9ECC4
:100EE80008F0ACC0F5FFABC0F8FFAAC0F7FFA9C077
:100EF800F6FFA8C0F4FFA7C0F3FFA6C0DAFFA5C09D
:100F0800D9FFA4C0E2FFA3C0E1FFA2C0EAFFA1C0CD
:100F1800E9FFA0C0FBFF9FC0FAFF110028EC0AF010
:100F280000010001B2510001B111D8B41200000152
:100F3800B36F010E496E0001B3510201020E0001A8
:100F48000001AE6F02017E0E00010001AD6FE3ECFF
:100F58000AF00009D8B407D00001B36F000E496E3B
:100F68000001B35112000101010E00010001AE6F32
:100F78000101000E00010001AD6FE3EC0AF0000969
:100F8800D8B407D00001B36F000E496E0001B35109
:100F980012000A0EB7EC0BF0D0D7000120EE7CF05F
:100FA8000001AD51D9260001AE51DA22000EDF6EE4
:100FB800000120EE7DF00001AD51D9260001AE51AF
:100FC800DA22000EDF6E0001AF6F000E0001000193
:100FD800B06F0001AF51030E00010001B06501D0F0
:100FE800120000010001B0511F0DF3500001000173
:100FF800AD25D96EF45000010001AE21DA6E000E65
:10100800DF6E00010001B02B030E00010001B06586
:10101800E8D71200C7C0D9FFC8C0DAFFDE2A000E21
:10102800DD22C7C0D9FFC8C0DAFF0001DECFADF0AE
:101038000001DDCFAEF0000E00010001B06F0A0E16
:101048000001AF6FCAEC06F000010001AD51090ABA
:101058000001AE11D8A412000001CF6F140E0001D8
:101068000001C36F0001CF5100010001C8C0C5F0E5
:1010780000010001C7C0C4F0020EC8EC0AF000016C
:101088000001D06F12000001B16F000E496E00011F
:10109800B1510101010E00010001AE6F0101000E06
:1010A80000010001AD6FD1EC07F00201020E000152
:1010B8000001AE6F02017E0E00010001AD6FD1ECA0
:1010C80007F00201020E00010001AE6F0201000EDE
:1010D80000010001AD6FD1EC07F00301030E000120
:1010E8000001AE6F0301000E00010001AD6FD1ECED
:1010F80007F0120003EE00F07E0EEE6AE806FDE14E
:1011080002EE00F0FC0EEE6AE806FDE101EE00F0EA
:101118007E0EEE6AE806FDE100EE2DF01E0EEE6A88
:10112800E806FDE1200EF66E180EF76E000EF86E5A
:101138000900F5CFF3F1FE0EF66E170EF76E000EEE
:10114800F86E00EE4BF010EE0AF00900F5CFEEFF56
:10115800E550E150FAE1000EF86E000138EF02F0B8
:1011680000010001AEC0D2F000010001ADC0D1F015
:10117800000120EE1CF00001D151D9260001D25106
:10118800DA22000EDF6E000120EE1EF00001D151C0
:10119800D9260001D251DA22000EDF6E000120EEBE
:1011A8001FF00001D151D9260001D251DA22050ED3
:1011B800DF6E000120EE21F00001D151D926000197
:1011C800D251DA22000EDF6E1200496601D01200F9
:1011D80005EC0AF000010001835100018211D8A436
:1011E8001200EFEC0BF000010001815100018011A9
:1011F800D8B412000201020E00010001816F020141
:101208007E0E00010001806F19EC0BF00009D8A4D4
:1012180012000101010E00010001816F0101000EA1
:1012280000010001806F19EC0BF00009D8B40BEC39
:101238000CF01200ACA2120020EE0CF05550D9268A
:101248005650DA22DF50016E20EE0BF05550D926A9
:101258005650DA22DF50015CD8B01ED020EE0CF0D8
:101268005550D9265650DA22DF50016E0150010D33
:10127800060EF326000EF422F3505524D96EF450CE
:101288005620DA6EDF50AD6E20EE0CF05550D926A0
:101298005650DA22DF2A12009D981200E8CF80F01B
:1012A800000120EE1FF00001D151D9260001D251D2
:1012B800DA22050EDF621200000120EE40F0000184
:1012C800D151D9260001D251DA22000EDB8000016B
:1012D80020EE1CF00001D151D9260001D251DA22AA
:1012E800000180C0DFFF000120EE1FF00001D15196
:1012F800D9260001D251DA220A0EDF6EC582120009
:1013080000010001B0C0B6F000010001AFC0B5F0A7
:1013180000010001AEC0B4F000010001ADC0B3F09F
:1013280012D0B5C0D9FFB6C0DAFFB3C0E1FFB4C070
:10133800E2FFDFCFE7FF00010001B54BB62B00014C
:101348000001B34BB42B00010001B107D8A0B207CC
:101358000001B129D8B4B229D8B41200E2D70001EB
:10136800000183C089F00001000182C088F00001FB
:10137800000181C087F00001000180C086F012D012
:1013880088C0D9FF89C0DAFF86C0E1FF87C0E2FFC5
:10139800DFCFE7FF00010001884B892B0001000126
:1013A800864B872B000100018407D8A08507000120
:1013B8008429D8B48529D8B41200E2D7F2AC08D071
:1013C800000E00010001B06F000E0001AF6F1200A7
:1013D800D4EC0BF000010001AE510001AD11D8B4FE
:1013E80008D0000E00010001B06F000E0001AF6FC1
:1013F8001200000E00010001B06F010E0001AF6F76
:101408001200F2AC08D0000E00010001836F000E3C
:101418000001826F1200EFEC0BF000010001815116
:1014280000018011D8B408D0000E00010001836FBC
:10143800000E0001826F1200000E00010001836F90
:10144800010E0001826F1200E2EC09F000010001B8
:10145800B0510001AF11D8A411D0D4EC0BF00001A9
:101468000001AE510001AD11D8A408D0000E000152
:101478000001B26F010E0001B16F1200000E0001F1
:101488000001B26F000E0001B16F1200E8CFC9F081
:101498000101010E00010001B86F0101000E0001F9
:1014A8000001B76FC9C0B9F000010001C6C0BBF0A8
:1014B80000010001C5C0BAF000010001C8C0BDF0BC
:1014C80000010001C7C0BCF03FEC04F01200E8CFF7
:1014D800C9F00201020E00010001B86F02017E0E80
:1014E80000010001B76FC9C0B9F000010001C6C012
:1014F800BBF000010001C5C0BAF000010001C8C07E
:10150800BDF000010001C7C0BCF03FEC04F01200C0
:1015180004C00AF003C009F002C008F001C007F0D7
:101528000ED009C0D9FF0AC0DAFF07C0E1FF08C022
:10153800E2FFDFCFE7FF094A0A2A074A082A050619
:10154800D8A006060528D8B40628D8B41200E9D7CA
:10155800E8CFADF000010001AD517E0BCD6E00016A
:101568000001ADAD02D0CD8E01D0CD9E000ECF6E64
:10157800000ECE6E9E9000010001ADAF02D09D809E
:1015880001D09D90CD801200E8CFC6F00301030E74
:1015980000010001B86F0301000E00010001B76FE0
:1015A800C6C0B9F0C3C0BAF000010001C5C0BCF0A4
:1015B80000010001C4C0BBF0DAEC04F01200000125
:1015C80020EE7DF00001AD51D9260001AE51DA229E
:1015D800DF500001AF6F0001AF511F0DF350000144
:1015E8000001AD25D96EF45000010001AE21DA6E7C
:1015F800DF501200E8CF99F00201020E000100014D
:101608008B6F02017E0E000100018A6F99C08CF079
:1016180096C08DF00001000198C08FF00001000114
:1016280097C08EF05CEC05F01200000120EE7DF012
:1016380000018051D92600018151DA22DF500001D2
:10164800826F000182511F0DF350000100018025B7
:10165800D96EF450000100018121DA6EDF501200CA
:10166800E8CFADF000010001AD517F0BD56E000E43
:10167800D76E000ED66EF29400010001ADAF02D015
:10168800F28A01D0F29AD58E1200E8CF1AF0010141
:10169800010E0C6E0101000E0B6E1AC00DF017C082
:1016A8000EF019C010F018C00FF0DEEC05F01200B3
:1016B8001B0E2D5CD8B002D02D282D6E2D50010D9B
:1016C8002D0EF324D96E000EF420DA6EC4CFDFFF9E
:1016D8001200000EC76E000EC66E000EC56E948610
:1016E80094881D0EC86EC650F00B0809C66EC68ACF
:1016F8001200E8CFAEF0C2CFADF0C30E0001AD17B7
:1017080000010001D890AE313C0B0001AD11C26E52
:1017180012000001AEC056F00001ADC055F020EE39
:1017280005F05550D9265650DA22000EDF6E120009
:10173800F20E4A16ABAC03D04A90ABB04A80ABB4B9
:101748004A84ABB24A86AECF01F001501200000EB7
:1017580000010001816F000E0001806FE6EC0BF0C4
:101768000EEC0CF01200E8CFADF0FA0E00F0E82E07
:10177800FDD700010001AD2FF8D7120000010001CC
:10178800B4C0B6F000010001B3C0B5F01200ADC09E
:10179800D9FFAEC0DAFF000EDE6E000EDD6E12005D
:1017A800000EF2AE010E00010001AD6F0001AE6B3C
:1017B800120001C003F002C004F004C0CFFF03C050
:1017C800CEFF120080C082F081C083F083C0D7FFB3
:1017D80082C0D6FF1200000EF2AE010E0001000119
:1017E800806F0001816B1200000E026E000E016E08
:1017F800DDEC0BF0120001010203070203040900EB
:10180800D08EF28EF28C120065EC00F01200D38EAE
:0A18180003001200C282120001005A
:067FF80080F4C5FFFFF15B
:00000001FF
