:0400000063EF00F0BA
:0C000800FACFC0F0FBCFC1F07EEF0BF090
:10001800D8CF1CF0E8CF1DF0E0CF1EF0FACF1FF0CC
:10002800FBCF20F0E9CF21F0EACF22F0E1CF23F097
:10003800E2CF24F0D9CF25F0DACF26F0F3CF27F09E
:10004800F4CF28F0F6CF29F0F7CF2AF0F8CF2BF02D
:10005800F5CF2CF09EAC03D09E9C85EC0FF09EA0B3
:1000680003D09E9005EC10F09EB8E4EC0CF09EAA2C
:1000780003D09E9AFAEC08F02CC0F5FF2BC0F8FFCD
:100088002AC0F7FF29C0F6FF28C0F4FF27C0F3FFF6
:1000980026C0DAFF25C0D9FF24C0E2FF23C0E1FF54
:1000A80022C0EAFF21C0E9FF20C0FBFF1FC0FAFF02
:1000B8001EC0E0FF1DC0E8FF1CC0D8FF10003BEFCA
:1000C8000CF000019D6F000E00010001BF6F0001E0
:1000D8009D5100019D6F000E00010001B76F0001E6
:1000E8009D5100019D6F000E00010001BD6F0001D0
:1000F8009D5100019D6F000E00010001BA6F0001C3
:100108009D5100019D6F000E00010001B86F0001B4
:100118009D51C6AC20D0C69C20EE0DF05050D9267B
:100128005150DA22050EDF6E00019D6F010E0001AD
:100138000001B86F00019D5120EE0FF05050D926F4
:100148005150DA22DF2A20EE0EF05050D9265150B5
:10015800DA22040EDF6EC7A00AD0C9CFB9F00001B9
:100168009D6F010E00010001BF6F00019D5100014C
:100178000001B86774D160D1C7A671D10001000130
:10018800BF5162EC0AF020EE0DF05050D9265150C4
:10019800DA22080EDF6263D100019D6F000E0001B4
:1001A8000001BF6F00019D5100019D6F010E00010C
:1001B8000001BA6F36D1C7A827D020EE0CF05050F6
:1001C800D9265150DA22DF2A00010001BF51D8B4E4
:1001D8002BD1C7BA09D000019D6F010E00010001A3
:1001E800BD6F00019D5120D120EE0FF05050D9264F
:1001F8005150DA22DF2A20EE0EF05050D926515005
:10020800DA22060EDF6E10D100010001BF51D8B40A
:1002180026D120EE0CF05050D9265150DA22DF2A90
:10022800C7BA13D0C7B408D020EE0DF05050D92665
:100238005150DA22070E5AD020EE0DF05050D92630
:100248005150DA22080EDF6EDED020EE0FF050504B
:10025800D9265150DA22DF2A20EE0DF05050D92647
:100268005150DA22050EDF6E20EE0EF05050D926DE
:100278005150DA22060E3AD020EE1BF05050D92603
:100288005150DA22DF5000019D6F20EE1AF05050D5
:10029800D9265150DA22DF5000019D5DD8B0C4D074
:1002A80020EE1BF05050D9265150DA22DF500001C1
:1002B8009D6F00019D51010D100EF326000EF422D2
:1002C800F3505024D96EF4505120DA6EDF50C96EC5
:1002D80020EE1BF05050D9265150DA22DF2A0001B7
:1002E8009D6F010E00010001B76F9BD0DF6EB7D084
:1002F800C7A84CD020EE0CF05050D9265150DA2225
:10030800DF2A00010001BF51D8B437D0C7AA1DD0D9
:1003180020EE0AF05050D9265150DA22DF50000161
:100328009D6F00019D51010DF3505024D96EF4507A
:100338005120DA6E0001B9C0DFFF20EE0AF05050FC
:10034800D9265150DA22DF2A18D020EE0FF050506B
:10035800D9265150DA22DF2A20EE0EF05050D92645
:100368005150DA22060EDF6E20EE0DF05050D926DD
:100378005150DA22050EDF6E57D000019D6F010E35
:1003880000010001BD6F00019D514ED00001000128
:10039800BF51D8B464D020EE0CF05050D92651503B
:1003A800DA22DF2AC7AA1DD020EE0AF05050D9263B
:1003B8005150DA22DF5000019D6F00019D51010D5F
:1003C800F3505024D96EF4505120DA6E0001B9C0B0
:1003D800DFFF20EE0AF05050D9265150DA22DF2AEA
:1003E8003ED0C7A401D720EE0DF05050D926515069
:1003F800DA22080EDF6E00019D6F010E0001000178
:10040800BD6F00019D5100019D6F010E00010001AB
:10041800BA6F00019D5100019D6F000E000100019F
:10042800BF6F00019D511BD020EE0DF05050D92612
:100438005150DA22050E5AD720EE0DF05050D92629
:100448005150DA22DF50050AD8B496D6030AD8B438
:10045800B2D6010AD8B44CD70F0AD8B40DD70001C8
:100468000001BF6705D000010001B751D8B402D020
:10047800C6A8C68820EE0AF05050D9265150DA2274
:10048800080EDF641BD000010001BD6717D020EE05
:100498000DF05050D9265150DA22050EDF6E20EEAD
:1004A8000FF05050D9265150DA22DF2A20EE0EF0F4
:1004B8005050D9265150DA22070EDF6E0001000194
:1004C800BD51D8B438D020EE0CF05050D926515038
:1004D800DA2210EE0AF05050E1265150E222E7509D
:1004E80000019D6F00019D51010DF3505024E16EF4
:1004F800F4505120E26EDFCFE7FF00019D6F280E18
:1005080000010001966F00019D51000151C098F053
:10051800000150C097F020EE0AF05050D9265150F3
:10052800DA22DF5000019E6F00019E291CEC0FF0BB
:1005380020EE0AF03ED020EE0FF05050D926515050
:10054800DA22DF50D8B43BD020EE0FF05050D92635
:100558005150DA22DF5000010001B46F20EE0EF096
:100568005050D9265150DA22DF5000010001B56FF2
:1005780020EE0CF05050D9265150DA22DF500001FD
:100588000001B66F00019D6F290E00010001966FF2
:1005980000019D510001000E00010001986F00014B
:1005A800B40E00010001976F030E1CEC0FF020EE53
:1005B8000FF05050D9265150DA22000EDF6E00019C
:1005C8000001BA51D8B4120000019D6F000E00015D
:1005D8000001BE6F00019D51AA0E50C0D9FF51C045
:1005E800DAFFDF6238D000019D6F030E00010001C1
:1005F800BE6F00019D51D3C0A9F0D4C0AAF0D5C0E8
:10060800ABF00001000E2E6E0001A90E2D6E000148
:100618000001BE5196EC08F020EECEF010EEA4F0EA
:10062800050EDECFE6FFE82EFCD700019D6F200EF9
:1006380000010001966F00019D510001000E0001AC
:100648000001986F0001A40E00010001976F050ECC
:100658001CEC0FF07ED0AB0E50C0D9FF51C0DAFFB2
:10066800DF6246D020EED9F010EE9FF0050EDECF07
:10067800E6FFE82EFCD70001000E00010001996F8B
:100688000001BB0E00010001986F0001000E00017F
:1006980000019B6F0001AF0E000100019A6F050E6B
:1006A8004EEC0EF000010001BE6F00010001BE51CA
:1006B800050AD8A413D000010001BB511F0ABC11C0
:1006C800D8A40CD00001000E2E6E0001AF0E2D6EC6
:1006D80000010001BE5196EC08F03BD00001000E6D
:1006E8002E6E00019F0E2D6E050E96EC08F031D08F
:1006F800BA0E50C0D9FF51C0DAFFDF622AD000011C
:100708009D6F050E00010001BE6F00019D51D6C00E
:10071800ACF0D7C0ADF0D8C0AEF00001000E2E6E20
:100728000001AC0E2D6E00010001BE5196EC08F0E0
:1007380000019D6F200E00010001966F00019D5180
:10074800000151C098F0000150C097F0050E1CEC54
:100758000FF000019D6F000E00010001BA6F00014B
:100768009D511200820ED36E9B9C0101010E010166
:100778000101876F0101C00E01010101866FA6EC1E
:100788000FF00101010E01010101876F0101CD0E7A
:1007980001010101866FA0EC0DF00101010E0101BC
:1007A8000101876F0101BC0E01010101866FD8ECC0
:1007B8000FF0ADEC0CF0000E936E000E8A6E000E7A
:1007C800806E000E896E0F0E926ED50E37EC0FF00C
:1007D800850EAFEC0EF09F9C9D8C9F909F9A9F98E2
:1007E8009F869E0E4CEC0FF09D86000E01010101C4
:1007F800876F260E0101866FFC0EAEEC0AF0AB8EF9
:10080800946818EC10F00101AA6F0C0E01010101A7
:10081800866F0101AA510101AB6F0B0E01010101A5
:10082800876F0101AB51530E3CEC0BF08F0E96EC29
:100838000FF0EAC1ACF1EBC1ADF1BFEC0BF0010177
:10084800010E010101019F6F0101BE0E01010101AD
:100858009E6F0101010E01010101A16F0101AF0E9F
:1008680001010101A06F0A0E2DEC0EF0010101013A
:10087800BF6F01010101BFBF60D04CD00101010E63
:1008880001010101876F0101BA0E01010101866FA3
:1008980001010101BEC188F101010101896B01015A
:1008A8000101BF51010101018A6F01018B6B010137
:1008B8008ABF8B070101010E010101018D6F010142
:1008C800AF0E010101018C6FCFEC0FF036D0AFC134
:1008D800AEF133D00101010E01010101876F010161
:1008E800AF0E01010101866F01010101BF51BAEC90
:1008F80009F023D00101010E01010101876F0101F7
:10090800AF0E01010101866F01010101BF51BAEC6F
:1009180009F013D001010101BE510A0AD8B4AED7BB
:100928002A0AD8B4E7D7080AD8B4D1D7010AD8B464
:10093800CED7040AD8B4CED7030A0101010E0101AB
:1009480001019F6F0101BE0E010101019E6F0101AE
:10095800010E01010101A16F0101AF0E01010101A9
:10096800A06F0A0E0CEC0EF001010101BF6F01012E
:100978000101BFBF62D743D00101010E010101018E
:10098800A16F0101BC0E01010101A06F010101016C
:10099800BEC1A2F101010101A36B01010101BF5117
:1009A80001010101A46F0101A56B0101A4BFA50705
:1009B8000101010E01010101A76F0101AF0E010143
:1009C8000101A66F74EC0CF038D78A840101AA6F74
:1009D8001F0E010101019C6F0101AA510101010EC5
:1009E800010101019E6F0101AF0E010101019D6F1F
:1009F80001010101BF5101EC0FF08A941ED70101DA
:100A08000101BE510B0AD8B4B7D7150AD8B4DDD73F
:100A1800010AD8B4DAD711D7010120EE42F001015A
:100A28009051D92601019151DA22DF5001010101CB
:100A3800996F0101010199510D0DF3500101010157
:100A48009025010101019C6FF450010101019121E0
:100A580001019D6F010E9CC1D9FF9DC1DAFFDF62C4
:100A680088D0010120EE01F001019C51D926010135
:100A78009D51DA22DF5001010101925DD8B002D008
:100A8800FD0E1200010120EE01F001019C51D92652
:100A980001019D51DA22DF500101976F0101975141
:100AA800010101019A6F01019B6B0101010196C1CE
:100AB80087F10101010195C186F1030E01010101D0
:100AC8009C250101976F000E010101019D21010183
:100AD800986F97C188F198C189F19AC18AF19BC131
:100AE8008BF118EC0DF0010120EE42F0010190515C
:100AF800D92601019151DA22010110EE42F00101DB
:100B08009051E12601019151E222E7500101976FCE
:100B1800010E0101972501010101866F0101010103
:100B2800876B000E8723000E01010101896F050EF6
:100B38000101886F9AEC07F0010101018651DF6E0F
:100B4800010120EE02F001019C51D92601019D51BD
:100B5800DA2293C1E1FF94C1E2FFDFCFE7FF9CC136
:100B6800D9FF9DC1DAFF000EDF6E010101019A5124
:100B78001200FC0E1200000120EE42F000018A5122
:100B8800D92600018B51DA22DF5000010001936F52
:100B98000001000193510D0DF350000100018A2559
:100BA80000010001966FF450000100018B21000143
:100BB800976F010E96C0D9FF97C0DAFFDF6288D021
:100BC800000120EE01F000019651D926000197514D
:100BD800DA22DF50000100018C5DD8B002D0FD0E92
:100BE8001200000120EE01F000019651D926000103
:100BF8009751DA22DF500001916F000191510001F5
:100C08000001946F0001956B0001000190C081F014
:100C1800000100018FC080F0030E0001000196253D
:100C28000001916F000E0001000197210001926FF1
:100C380091C082F092C083F094C084F095C085F092
:100C480047EC0DF0000120EE42F000018A51D92650
:100C580000018B51DA22000110EE42F000018A51A6
:100C6800E12600018B51E222E7500001916F010E4D
:100C78000001912500010001806F00010001816BD6
:100C8800000E8123000E00010001836F050E000194
:100C9800826F21EC08F0000100018051DF6E000135
:100CA80020EE02F000019651D92600019751DA2270
:100CB8008DC0E1FF8EC0E2FFDFCFE7FF96C0D9FF0E
:100CC80097C0DAFF000EDF6E000100019451120098
:100CD800FC0E12000101010192C197F1010101010D
:100CE800986B010120EE41F001019051D9260101D4
:100CF8009151DA22DF5001010101996F01010101CF
:100D080099510D0DF35001010101902501010101D7
:100D18009A6FF45001010101912101019B6F9AC161
:100D2800D9FF9BC1DAFFDF50D8B402D0FF0E120002
:100D3800010120EE01F001019A51D92601019B51D0
:100D4800DA22010192C1DFFF010120EE02F0010168
:100D58009A51D92601019B51DA22010193C1DFFF83
:100D6800030E010101019A2501010101866F000EA0
:100D7800010101019B210101876F0101010195C159
:100D880089F10101010194C188F197C18AF198C1E3
:100D98008BF118EC0DF0010120EE41F001019051AA
:100DA800D92601019151DA22010110EE41F0010129
:100DB8009051E12601019151E222E7500101966F1D
:100DC800010E0101962501010101866F0101010152
:100DD800876B000E8723000E01010101896F050E44
:100DE8000101886F9AEC07F0010101018651DF6E5D
:100DF8009AC1D9FF9BC1DAFF010EDF6E010E120006
:100E0800000100018CC091F000010001926B00010B
:100E180020EE41F000018A51D92600018B51DA22D7
:100E2800DF5000010001936F0001000193510D0D87
:100E3800F350000100018A2500010001946FF4506D
:100E4800000100018B210001956F94C0D9FF95C066
:100E5800DAFFDF50D8B402D0FF0E1200000120EEF6
:100E680001F000019451D92600019551DA220001C0
:100E78008CC0DFFF000120EE02F000019451D9265A
:100E880000019551DA2200018DC0DFFF030E000139
:100E98000001942500010001806F000E000100018F
:100EA80095210001816F000100018FC083F00001CE
:100EB80000018EC082F091C084F092C085F047ECAA
:100EC8000DF0000120EE41F000018A51D926000101
:100ED8008B51DA22000110EE41F000018A51E1261F
:100EE80000018B51E222E7500001906F010E0001D2
:100EF800902500010001806F00010001816B000E48
:100F08008123000E00010001836F050E0001826F2E
:100F180021EC08F0000100018051DF6E94C0D9FF78
:100F280095C0DAFF010EDF6E010E120001018A6F13
:100F3800000E010101018C6F01018A5101010101BB
:100F48008751800AF36E800EF35C000ED8B4865D7C
:100F5800D8B00FD001010101866D0101871FD8B0FB
:100F6800872B01018A6F010E010101018C6F0101BC
:100F78008A51010101018951800AF36E800EF35CE8
:100F8800000ED8B4885DD8B007D001010101886D82
:100F98000101891FD8B0892B0101010189518811EC
:100FA800D8B43AD001018A6F010E010101018B6F9B
:100FB80001018A5109D0010101010101D890883746
:100FC8008937010101018B2B0101010189AFF3D799
:100FD80001010101885101010101865D0101010141
:100FE8008951010101018759D8A00CD001010101E3
:100FF800885101010101865F010101018951010147
:101008000101875B010101010101D890893388330F
:10101800010101018B2FDCD7010101018C51D8B4EA
:1010280007D001010101866D0101871FD8B0872B08
:1010380086C186F187C187F112002D6E000E2F6ED2
:101048002D50000100018151800AF36E800EF35C7F
:10105800000ED8B4805DD8B00BD000010001806DBF
:101068000001811FD8B0812B2D6E010E2F6E2D50DF
:10107800000100018351800AF36E800EF35C000EBC
:10108800D8B4825DD8B007D000010001826D00019C
:10109800831FD8B0832B0001000183518211D8B47B
:1010A80032D02D6E010E2E6E2D5007D0000100019A
:1010B8000001D890823783372E2A0001000183AFC0
:1010C800F5D700010001825100010001805D000197
:1010D80000018351000100018159D8A00CD0000102
:1010E8000001825100010001805F0001000183516D
:1010F80000010001815B000100010001D8908333E9
:1011080082332E2EDED72F50D8B407D0000100012D
:10111800806D0001811FD8B0812B80C080F081C014
:1011280081F01200E8CF2FF020EE1AF05050D926A7
:101138005150DA22000EDF6E31D020EE1AF05050F6
:10114800D9265150DA22DF500001806F000180510A
:10115800010DF3502D24D96EF4502E20DA6E10EEC6
:101168001AF05050E1265150E222E7500001816FF9
:1011780000018151010D100EF326000EF422F350E8
:101188005024E16EF4505120E26EDFCFE7FF20EEED
:101198001AF05050D9265150DA22DF2A20EE1AF0E0
:1011A8005050D9265150DA22DF500001806F2F505D
:1011B8000001805DD8A0C1D720EE1AF05050D92682
:1011C8005150DA222FC0DFFF20EE1BF05050D926F5
:1011D8005150DA22010EDF6E20EE10F05050D92661
:1011E8005150DA22DF50C96EC68812009EAA4ED02E
:1011F80020EE05F05250D9265350DA22DF501B6EEC
:101208001B50010DF3505224D96EF4505320DA6E5E
:10121800B5EC0FF0DF6E20EE05F05250D926535092
:10122800DA22DF2AC90E4C5C000E4D58D8A00CD02B
:1012380020EE05F05250D9265350DA22010EDF6E07
:10124800000E4D6E000E4C6E20EE05F05250D92661
:101258005350DA22050EDF6219D01B6E1F0E176E6F
:101268001B5053C019F052C018F020EE05F0525030
:10127800D9265350DA22DF5060EC0FF020EE05F04B
:101288005250D9265350DA22000EDF6E4FA61200B4
:10129800AB98AB881B6E1E0E176E1B50000E196E96
:1012A800000E186E000E60EC0FF012000DC012F068
:1012B800136A20EE41F00B50D9260C50DA22DF5089
:1012C800146E14500D0DF3500B24156EF4500C20B1
:1012D800166E15C0D9FF16C0DAFFDF50D8B402D099
:1012E800FF0E120020EE01F01550D9261650DA2212
:1012F8000DC0DFFF20EE02F01550D9261650DA2275
:101308000EC0DFFF030E1524016E000E1620026EBC
:1013180010C004F00FC003F012C005F013C006F0AF
:101328006FEC0EF020EE41F00B50D9260C50DA226B
:1013380010EE41F00B50E1260C50E222E750116EFE
:10134800010E1124016E026A000E0222000E046EC4
:10135800050E036E14EC0AF00150DF6E15C0D9FFBC
:1013680016C0DAFF010EDF6E010E1200E8CF8AF117
:1013780020EE0BF05250D9265350DA22000EDF6EC1
:1013880035D020EE0BF05250D9265350DA22DF50D8
:101398000101886F01018851010DF350010101011C
:1013A8008625D96EF450010101018721DA6E10EE0D
:1013B8000BF05250E1265350E222E7500101896FA9
:1013C80001018951010D060EF326000EF422F35097
:1013D8005224E16EF4505320E26EDFCFE7FF20EE97
:1013E8000BF05250D9265350DA22DF2A20EE0BF0A8
:1013F8005250D9265350DA22DF500101886F01017B
:1014080001018A510101885DD8A0BBD720EE0CF0FC
:101418005250D9265350DA22000EDF6E9D881200F2
:10142800056E000E076E05500250800AF36E800E9E
:10143800F35C000ED8B4015CD8B008D0016C021E71
:10144800D8B0022A056E010E076E05500450800AB6
:10145800F36E800EF35C000ED8B4035CD8B004D0F1
:10146800036C041ED8B0042A04500310D8B41AD050
:10147800056E010E066E055004D0D890033604366A
:10148800062A04AEFAD70350015C04500258D8A0CB
:1014980004D00350015E0450025AD890043203323B
:1014A800062EF1D70750D8B404D0016C021ED8B06C
:1014B800022A01C001F002C002F01200E8CF2DF0AC
:1014C80020EE0CF05050D9265150DA22010EDF6E72
:1014D80020EE0AF05050D9265150DA22000EDF6E65
:1014E8002D50D8B42ED0C7AA18D020EE0DF05050E9
:1014F800D9265150DA22050EDF6E20EE0FF050503B
:10150800D9265150DA22DF2A20EE0EF05050D92683
:101518005150DA22050EDF6E1200C7A409D020EE62
:101528000DF05050D9265150DA22080EDF6E120005
:1015380020EE0DF05050D9265150DA22070EDF6EFA
:10154800120020EE0DF05050D9265150DA22060E26
:10155800DF6E1200E8CF8BF1000EAC6E000EAB6EA2
:10156800010101018BB1AC88010101018BA302D0FB
:10157800AC8CAB8C010101018BB5AC8E0101010172
:101588008BA702D0AB8801D0AB8A010101018BB9CE
:10159800AC849E98010101018BBBAB86010101015E
:1015A8008BAD02D09D8A01D09D9A9E9A01010101BE
:1015B8008BAF02D09D8801D09D9886C1AFFF0101F5
:1015C80087C188F188C189F101018A6B01018951BC
:1015D800B06EAC8AAB8E949C948EACA81200ACBE54
:1015E8001200948C12000101010189518811D8B4AC
:1015F8003AD001018A6F010E010101018B6F0101CF
:101608008A5109D0010101010101D8908837893731
:10161800010101018B2B0101010189AFF3D7010100
:101628000101885101010101865D01010101895112
:10163800010101018759D8A00CD00101010188518D
:1016480001010101865F01010101895101010101C7
:10165800875B010101010101D890893388330101B9
:1016680001018B2FDCD786C186F187C187F1120073
:10167800E8CF8AF1000EC26E000EC06E01010101B2
:10168800D89086313C0BC26E86C188F10101883B37
:10169800F00E8817300E01018817010101018751EA
:1016A8000F0B01018811C16E8AC188F10101D89020
:1016B80088370101D8908837380E010188178AC108
:1016C80089F10101893B0F0E8917070E010189175E
:1016D800010101018A51800B010189110101881161
:1016E800C06E0101010186AF03D09E9C9D8CF28CD7
:1016F800C2801200E9CFC2F0EACFC3F0E1CFC4F054
:10170800E2CFC5F0D9CFC6F0DACFC7F0F3CFC8F033
:10171800F4CFC9F0F6CFCAF0F7CFCBF0F8CFCCF0C2
:10172800F5CFCDF09EA603D09E961CEC10F0F2A447
:1017380003D0F294F3EC0FF076EC0DF0CDC0F5FF8A
:10174800CCC0F8FFCBC0F7FFCAC0F6FFC9C0F4FF92
:10175800C8C0F3FFC7C0DAFFC6C0D9FFC5C0E2FFE3
:10176800C4C0E1FFC3C0EAFFC2C0E9FFC1C0FBFFBC
:10177800C0C0FAFF1100EAEC0DF0010101018B5124
:1017880001018A11D8B4120001018C6F010E4E6E4E
:1017980001018C510101010E01010101876F010155
:1017A800000E01010101866FE6EC0EF00009D8B4C5
:1017B80007D001018C6F000E4E6E01018C51120092
:1017C8000101010E01010101876F0101430E0101B1
:1017D8000101866FE6EC0EF00009D8B407D00101CC
:1017E8008C6F000E4E6E01018C5112000A0EC4EC73
:1017F8000FF0D0D7010120EE41F001018651D92622
:1018080001018751DA22000EDF6E010120EE42F05D
:1018180001018651D92601018751DA22000EDF6EB7
:101828000101886F000E01010101896F01018851D2
:10183800040E01010101896501D0120001010101B5
:1018480089510D0DF350010101018625D96EF4501F
:10185800010101018721DA6E000EDF6E010101012D
:10186800892B040E010101018965E8D7120002EEF7
:1018780000F0860EEE6AE806FDE101EE00F0860E45
:10188800EE6AE806FDE10001DD6BDC6BDB6BDA6B11
:10189800D96B00EE30F0200EEE6AE806FDE1440E4A
:1018A800F66E200EF76E000EF86E0900F5CFEAF11D
:1018B8000900F5CFEBF1240EF66E200EF76E000E40
:1018C800F86E00EECEF010EE0BF00900F5CFEEFF4B
:1018D800E550E150FAE1000EF86E0001B6EF03F0B2
:1018E800A0C1D9FFA1C1DAFFDE2A000EDD22A0C106
:1018F800D9FFA1C1DAFF0101DECF86F10101DDCFF9
:1019080087F1000E01010101896F0A0E0101886F3C
:10191800F7EC0AF0010101018651090A010187115A
:10192800D8A412000101A86F140E010101019C6FD7
:101938000101A85101010101A1C19EF101010101AB
:10194800A0C19DF1020ECBEC0EF001010101A96FBF
:10195800120001018A6F000E4E6E01018A510101C9
:10196800010E01010101876F0101430E010101010F
:10197800866FFEEC0BF00101010E01010101876F7A
:101988000101000E01010101866FFEEC0BF002015E
:10199800020E01010101876F0201430E01010101DD
:1019A800866FFEEC0BF00201020E01010101876F48
:1019B8000201000E01010101866FFEEC0BF012001E
:1019C800ACA2120020EE0CF05250D9265350DA2265
:1019D800DF50016E20EE0BF05250D9265350DA2218
:1019E800DF50015CD8B01ED020EE0CF05250D92642
:1019F8005350DA22DF50016E0150010D060EF32616
:101A0800000EF422F3505224D96EF4505320DA6EAB
:101A1800DF50AD6E20EE0CF05250D9265350DA222A
:101A2800DF2A12009D9812000101010189C18FF17E
:101A38000101010188C18EF10101010187C18DF108
:101A48000101010186C18CF112D08EC1D9FF8FC16D
:101A5800DAFF8CC1E1FF8DC1E2FFDFCFE7FF0101B3
:101A680001018E4B8F2B010101018C4B8D2B010144
:101A780001018A07D8A08B0701018A29D8B48B29CC
:101A8800D8B41200E2D70001000183C089F0000138
:101A9800000182C088F00001000181C087F00001C8
:101AA800000180C086F012D088C0D9FF89C0DAFF53
:101AB80086C0E1FF87C0E2FFDFCFE7FF000100013A
:101AC800884B892B00010001864B872B0001000100
:101AD8008407D8A0850700018429D8B48529D8B4FB
:101AE8001200E2D74E6601D012008FEC0EF0000112
:101AF8000001815100018011D8A412000CEC10F0F3
:101B08002E502D10D8B412000101010E2E6E0101C5
:101B1800000E2D6E73EC0FF00009D8A4120001011D
:101B2800010E2E6E0101430E2D6E73EC0FF00009AD
:101B3800D8B41FEC10F01200010187C151F0010167
:101B480086C150F020EE0AF05050D9265150DA22C2
:101B5800000EDF6E20EE0CF05050D9265150DA22DC
:101B6800000EDF6E20EE0DF05050D9265150DA22CB
:101B7800050EDF6E20EE0FF05050D9265150DA22B4
:101B8800000EDF6E1200F2AC08D0000E0101010158
:101B9800896F000E0101886F1200E1EC0FF001015E
:101BA8000101875101018611D8B408D0000E010146
:101BB8000101896F000E0101886F1200000E0101FA
:101BC8000101896F010E0101886F1200C7EC0DF049
:101BD80001010101895101018811D8A411D0E1EC5A
:101BE8000FF001010101875101018611D8A408D025
:101BF800000E010101018B6F010E01018A6F1200B5
:101C0800000E010101018B6F000E01018A6F1200A5
:101C1800E8CFA2F10101010E01010101916F01015B
:101C2800430E01010101906FA2C192F1010101016E
:101C38009FC194F1010101019EC193F101010101CC
:101C4800A1C196F101010101A0C195F110EC05F0C7
:101C58001200E8CFA2F10101010E01010101916F0B
:101C68000101000E01010101906FA2C192F1010171
:101C780001019FC194F1010101019EC193F101018C
:101C88000101A1C196F101010101A0C195F110EC7A
:101C980005F01200E8CF9CF00201020E00010001DD
:101CA8008B6F0201430E000100018A6F9CC08CF00B
:101CB8000001000199C08EF00001000198C08DF06C
:101CC800000100019BC090F0000100019AC08FF054
:101CD800BFEC05F0120004C00AF003C009F002C00E
:101CE80008F001C007F00ED009C0D9FF0AC0DAFF1A
:101CF80007C0E1FF08C0E2FFDFCFE7FF094A0A2A71
:101D0800074A082A0506D8A006060528D8B40628D2
:101D1800D8B41200E9D7F2AC08D0000E00010001D7
:101D2800816F000E0001806F12000CEC10F02E5035
:101D38002D10D8B408D0000E00010001816F000EEC
:101D48000001806F1200000E00010001816F010E7A
:101D58000001806F1200E8CF86F101010101865170
:101D68007E0BCD6E0101010186AD02D0CD8E01D072
:101D7800CD9E000ECF6E000ECE6E9E900101010129
:101D880086AF02D09D8001D09D90CD801200E8CF13
:101D98009FF10201020E01010101916F0201000E83
:101DA80001010101906F9FC192F19CC193F1010162
:101DB80001019EC195F1010101019DC194F16EECF3
:101DC80006F01200010120EE42F001018651D926E9
:101DD80001018751DA22DF500101886F0101885122
:101DE8000D0DF350010101018625D96EF450010152
:101DF80001018721DA6EDF501200E8CF9FF102015E
:101E0800020E01010101916F0201430E010101015E
:101E1800906F9FC192F19CC193F1010101019EC194
:101E280095F1010101019DC194F16EEC06F01200DB
:101E3800E8CF99F00101010E000100018B6F01014B
:101E4800000E000100018A6F99C08CF096C08DF0D9
:101E58000001000198C08FF00001000197C08EF0CA
:101E680004EC07F01200E8CF86F101010101865168
:101E78007F0BD56E000ED76E000ED66EF294010160
:101E8800010186AF02D0F28A01D0F29AD58E1200F3
:101E9800E8CF86F19486948886C1C8FF000EC76E85
:101EA800000EC66E000EC56E0E0EC612C78E948644
:101EB8009488C580C68A1200E8CF1AF00101010E85
:101EC8000C6E0101430E0B6E1AC00DF017C00EF018
:101ED80019C010F018C00FF05AEC09F0120020EEEB
:101EE80042F02D50D9262E50DA22DF502F6E2F5077
:101EF8000D0DF3502D24D96EF4502E20DA6EDF50DC
:101F080012001B0E305CD8B002D03028306E305032
:101F1800010D300EF324D96E000EF420DA6EC4CF12
:101F2800DFFF1200E8CF87F1C2CF86F1C30E0101AF
:101F3800861701010101D89087313C0B01018611F8
:101F4800C26E1200010187C153F0010186C152F02F
:101F580020EE05F05250D9265350DA22000EDF6EDB
:101F68001200F20E4F16ABAC03D04F90ABB04F80BF
:101F7800ABB44F84ABB24F86AECF01F00150120024
:101F8800E8CF86F1FA0E00F0E82EFDD70101010135
:101F9800862FF8D71200010101018DC18FF10101CF
:101FA80001018CC18EF1120086C1D9FF87C1DAFF09
:101FB800000EDE6E000EDD6E1200000EF2AE010E97
:101FC80001010101866F0101876B120001C003F056
:101FD80002C004F004C0CFFF03C0CEFF1200000E01
:101FE8002E6E000E2D6EFCEC0FF04C4A4D2A12009E
:101FF8002DC080F02EC081F081C0D7FF80C0D6FFF1
:102008001200000E026E000E016EEAEC0FF01200D4
:10201800000EF2AE010E2D6E2E6A1200AA0000000C
:102028000000010102010100D08EF28EF28C120034
:0E20380065EC00F01200D38E030012000102CE
:067FF80080F4C5FFFFF15B
:00000001FF
