:040000005FEF00F0BE
:0C000800FACFC6F0FBCFC7F0ABEF08F05A
:10001800D8CF1CF0E8CF1DF0E0CF1EF0FACF1FF0CC
:10002800FBCF20F0E9CF21F0EACF22F0E1CF23F097
:10003800E2CF24F0D9CF25F0DACF26F0F3CF27F09E
:10004800F4CF28F0F6CF29F0F7CF2AF0F8CF2BF02D
:10005800F5CF2CF09EA007D09E90000E066E480E9D
:10006800056EBCEC0DF09EAA03D09E9AFAEC08F03F
:100078002CC0F5FF2BC0F8FF2AC0F7FF29C0F6FFF8
:1000880028C0F4FF27C0F3FF26C0DAFF25C0D9FF38
:1000980024C0E2FF23C0E1FF22C0EAFF21C0E9FF3C
:1000A80020C0FBFF1FC0FAFF1EC0E0FF1DC0E8FF15
:1000B8001CC0D8FF1000C7EF0CF00001B96F000E8C
:1000C80000010001C56F0001B9510001B96F000EB0
:1000D80000010001C06F0001B9510001B96F000EA5
:1000E80000010001C46F0001B9510001B96F000E91
:1000F80000010001C36F0001B9510001B96F000E82
:1001080000010001C16F0001B951C6AC29D0C69CDD
:10011800000120EE0CF00001E051D9260001E15168
:10012800DA22050EDF6E0001B96F010E0001000131
:10013800C16F0001B951000120EE0EF00001E0513D
:10014800D9260001E151DA22DF2A000120EE0DF064
:100158000001E051D9260001E151DA22040EDF6ED8
:10016800C7A00AD0C9CFC2F00001B96F010E0001C3
:100178000001C56F0001B95100010001C167CED16E
:10018800B7D1C7A6CBD100010001C55143EC07F098
:10019800000120EE0CF00001E051D9260001E151E8
:1001A800DA22080EDF62BAD10001B96F000E000131
:1001B8000001C56F0001B9510001B96F010E0001BE
:1001C8000001C36F87D1C7A830D0000120EE0BF023
:1001D8000001E051D9260001E151DA22DF2A0001AD
:1001E8000001C551D8B479D1C7BA09D00001B96F97
:1001F800010E00010001C46F0001B9516ED1000168
:1002080020EE0EF00001E051D9260001E151DA227A
:10021800DF2A000120EE0DF00001E051D92600018F
:10022800E151DA22060EDF6E58D100010001C551F6
:10023800D8B474D1000120EE0BF00001E051D926AA
:100248000001E151DA22DF2AC7BA19D0C7B40BD0AE
:10025800000120EE0CF00001E051D9260001E15127
:10026800DA22070E76D0000120EE0CF00001E051F2
:10027800D9260001E151DA22080EDF6E1DD10001F6
:1002880020EE0EF00001E051D9260001E151DA22FA
:10029800DF2A000120EE0CF00001E051D926000110
:1002A800E151DA22050EDF6E000120EE0DF00001AB
:1002B800E051D9260001E151DA22060E4AD00001A8
:1002C80020EE1AF00001E051D9260001E151DA22AE
:1002D800DF500001B96F000120EE19F00001E05174
:1002E800D9260001E151DA22DF500001B95DD8B00A
:1002F800F4D0000120EE1AF00001E051D9260001E7
:10030800E151DA22DF500001B96F0001B951010D46
:100318000F0EF326000EF422F35000010001E02531
:10032800D96EF45000010001E121DA6EDF50C96E88
:10033800000120EE1AF00001E051D9260001E15138
:10034800DA22DF2A0001B96F010E00010001C06F37
:10035800C1D0DF6EE3D0C7A862D0000120EE0BF059
:100368000001E051D9260001E151DA22DF2A00011B
:100378000001C551D8B44AD0C7AA27D0000120EE41
:100388000AF00001E051D9260001E151DA22DF50DC
:100398000001B96F0001B951010DF35000010001CE
:1003A800E025D96EF45000010001E121DA6E000168
:1003B800C2C0DFFF000120EE0AF00001E051D9269B
:1003C8000001E151DA22DF2A21D0000120EE0EF0EF
:1003D8000001E051D9260001E151DA22DF2A0001AB
:1003E80020EE0DF00001E051D9260001E151DA229A
:1003F800060EDF6E000120EE0CF00001E051D92658
:100408000001E151DA22050EDF6E67D00001B96FF5
:10041800010E00010001C46F0001B9515ED0000156
:100428000001C551D8B47AD0000120EE0BF00001CC
:10043800E051D9260001E151DA22DF2AC7AA27D0E4
:10044800000120EE0AF00001E051D9260001E15137
:10045800DA22DF500001B96F0001B951010DF350E4
:1004680000010001E025D96EF45000010001E121EE
:10047800DA6E0001C2C0DFFF000120EE0AF00001C1
:10048800E051D9260001E151DA22DF2A47D0C7A47A
:10049800B6D6000120EE0CF00001E051D92600018B
:1004A800E151DA22080EDF6E0001B96F010E00017A
:1004B8000001C46F0001B9510001B96F010E0001BC
:1004C8000001C36F0001B9510001B96F000E0001AE
:1004D8000001C56F0001B95121D0000120EE0CF0D8
:1004E8000001E051D9260001E151DA22050E31D789
:1004F800000120EE0CF00001E051D9260001E15185
:10050800DA22DF50050AD8B43CD6030AD8B45BD641
:10051800010AD8B420D70F0AD8B4D1D600010001F7
:10052800C56705D000010001C051D8B402D0C6A8E3
:10053800C688000120EE0AF00001E051D92600012A
:10054800E151DA22080EDF6424D000010001C467FB
:1005580020D0000120EE0CF00001E051D926000166
:10056800E151DA22050EDF6E000120EE0EF00001E7
:10057800E051D9260001E151DA22DF2A000120EEFC
:100588000DF00001E051D9260001E151DA22070EF1
:10059800DF6E00010001C451D8B444D0000120EE40
:1005A8000BF00001E051D9260001E151DA220001E7
:1005B80010EE0AF00001E051E1260001E151E222CB
:1005C800E7500001B96F0001B951010DF350000166
:1005D8000001E025E16EF45000010001E121E26E26
:1005E800DFCFE7FF0001B96F280E436E0001B95154
:1005F8000001E1C045F00001E0C044F0000120EE38
:100608000AF00001E051D9260001E151DA22DF5059
:100618000001BA6F0001BA2931EC0DF0000120EE9B
:100628000AF045D0000120EE0EF00001E051D92675
:100638000001E151DA22DF50D8B441D0000120EEA8
:100648000EF00001E051D9260001E151DA22DF5015
:1006580000010001BD6F000120EE0DF00001E05126
:10066800D9260001E151DA22DF5000010001BE6FF6
:10067800000120EE0BF00001E051D9260001E15104
:10068800DA22DF5000010001BF6F0001B96F290EA7
:10069800436E0001B9510001000E456E0001BD0E08
:1006A800446E030E31EC0DF0000120EE0EF0000157
:1006B800E051D9260001E151DA22000EDF6E000177
:1006C8000001C351D8B41200000E00010001BC6F34
:1006D800000E0001BB6FAA0EE0C0D9FFE1C0DAFF2F
:1006E800DF6207D0000E00010001BC6F0A0E000196
:1006F800BB6F0001B8C02EF00001B7C02DF000019B
:100708000001BB51C9EC06F0B7C0D9FFB8C0DAFF89
:10071800000EDF6E0001B96F000E00010001C36F0B
:100728000001B9511200820ED36E9B8C0101010E9B
:1007380000010001D56F0101CC0E00010001D46F4A
:1007480066EC0DF00101010E00010001D56F0101F9
:10075800D50E00010001D46F04EC0BF00101010E6D
:1007680000010001D56F0101D10E00010001D46F15
:1007780098EC0DF0CDEC0AF0000E936E000E8A6E28
:10078800000E806E000E896E0F0E926ED30EF5EC81
:100798000CF0850E75EC0CF09F909F9A9F869E0E2C
:1007A8000AEC0DF09D86000E00010001D56F190EB0
:1007B8000001D46F6C0E48EC09F0D5EC0DF0010186
:1007C800BA6F0C0E00010001D46F0101BA5101018A
:1007D800BB6F0B0E00010001D56F0101BB51150E57
:1007E800D6EC09F08F0E56EC0DF018EC0AF001016A
:1007F800010E01010101AF6F0101D30E01010101D9
:10080800AE6F0101010E01010101B16F0101BC0EC2
:1008180001010101B06F0A0EF5EC0BF001010101B5
:10082800D46F01010101D4BF8ED07ED00101010E29
:1008380000010001D56F0101C90E00010001D46F4C
:1008480001010001D3C1D6F000010001D76B0101FD
:100858000101D45100010001D86F0001D96B0001DA
:10086800D8BFD9070101010E00010001DB6F0101AA
:10087800BC0E00010001DA6F8FEC0DF064D0BCC132
:10088800CBF161D00101BA6F020E01010101D46FF1
:100898000101BA51DCEC0DF0C3EC0DF00009D8A44D
:1008A800FBD7C4CFBCF10101BA6FAA0E0101010147
:1008B800BD6F0CD00101BA6F010E01010101D46FA7
:1008C8000101BA510101BA6F3A0E0ED00101BA51B5
:1008D8001BD00101BA6F010E01010101D46F0101A2
:1008E800BA510101BA6FA30E01010101BC6FEED725
:1008F80001010101CB51A80AD8B4DCD7010AD8B448
:10090800E8D7030AD8B4BED70101010E00010001DF
:10091800D56F0101BC0E00010001D46F0101010176
:10092800D451C0EC05F00FD001010101D3510A0ADE
:10093800D8B47CD7220AD8B4A2D7010AD8B49FD792
:10094800030AD8B4D5D70101010E01010101AF6F27
:100958000101D30E01010101AE6F0101010E010178
:100968000101B16F0101BC0E01010101B06F0A0E56
:10097800D4EC0BF001010101D46F01010101D4BFD6
:1009880034D752D00101010E01010101B16F0101FB
:10099800D10E01010101B06F01010101D3C1B2F112
:1009A80001010101B36B01010101D45101010101F0
:1009B800B46F0101B56B0101B4BFB5070101010EA8
:1009C80001010101B76F0101BC0E01010101B66F00
:1009D80094EC0AF00AD70101010E00010001D56F5D
:1009E8000101C70E00010001D46F01010001D3C14C
:1009F800D6F000010001D76B01010101D4510001BB
:100A08000001D86F0001D96B0001D8BFD9070101D7
:100A1800010E00010001DB6F0101BC0E00010001A5
:100A2800DA6F56EC0CF0E1D601010101D3510B0A43
:100A3800D8B4A8D7150AD8B4CED7010AD8B4CBD71A
:100A4800D4D6010120EE35F00101A251D9260101C9
:100A5800A351DA22DF5001010101A96F010101014F
:100A6800A9510D0DF35001010101A2250101010158
:100A7800AC6FF45001010101A3210101AD6F010E1A
:100A8800ACC1D9FFADC1DAFFDF6274D0010120EE3D
:100A980001F00101AC51D9260101AD51DA22DF5034
:100AA80001010101A45DD8B002D0FD0E12000101C0
:100AB80020EE01F00101AC51D9260101AD51DA2235
:100AC800DF500001DE6F0001DE5101010101AA6F54
:100AD8000101AB6B01010001A8C1D5F001010001C2
:100AE800A7C1D4F0030E01010101AC250001DE6F9E
:100AF800000E01010101AD210001DF6FDEC0D6F05B
:100B0800DFC0D7F0AAC1D8F0ABC1D9F039EC0BF0EF
:100B1800010120EE35F00101A251D9260101A351AE
:100B2800DA22010110EE35F00101A251E12601019E
:100B3800A351E222E7500001DE6F0001DE29030B1A
:100B4800DF6E010120EE02F00101AC51D92601014E
:100B5800AD51DA22A5C1E1FFA6C1E2FFDFCFE7FF71
:100B6800ACC1D9FFADC1DAFF000EDF6E0101010192
:100B7800AA511200FC0E1200E8CFD8F0000120EEB6
:100B880019F00001E051D9260001E151DA22000EE6
:100B9800DF6E42D0000120EE19F00001E051D926A5
:100BA8000001E151DA22DF500001D66F0001D65171
:100BB800010DF35000010001D425D96EF450000155
:100BC8000001D521DA6E000110EE19F00001E051A4
:100BD800E1260001E151E222E7500001D76F000150
:100BE800D751010D0F0EF326000EF422F350000129
:100BF8000001E025E16EF45000010001E121E26E00
:100C0800DFCFE7FF000120EE19F00001E051D926FF
:100C18000001E151DA22DF2A000120EE19F000017B
:100C2800E051D9260001E151DA22DF500001D66FE8
:100C380000010001D8510001D65DD8A0ABD7000152
:100C480020EE19F00001E051D9260001E151DA2225
:100C58000001D8C0DFFF000120EE1AF00001E051CA
:100C6800D9260001E151DA22010EDF6E000120EEE3
:100C78000FF00001E051D9260001E151DA22DF50DE
:100C8800C96EC688120001010101A4C1A8F10101C1
:100C98000101A96B010120EE34F00101A251D9260E
:100CA8000101A351DA22DF5001010101AA6F0101FC
:100CB8000101AA510D0DF35001010101A225010105
:100CC8000101AB6FF45001010101A3210101AC6FD7
:100CD800ABC1D9FFACC1DAFFDF50D8B402D0FF0EE8
:100CE8001200010120EE01F00101AB51D9260101EA
:100CF800AC51DA220101A4C1DFFF010120EE02F0AC
:100D08000101AB51D9260101AC51DA220101A5C17B
:100D1800DFFF030E01010101AB2500010001D46FC3
:100D2800000E01010101AC210001D56F0101000194
:100D3800A7C1D7F001010001A6C1D6F0A8C1D8F01B
:100D4800A9C1D9F039EC0BF0010120EE34F0010112
:100D5800A251D9260101A351DA22010110EE34F083
:100D68000101A251E1260101A351E222E75000014D
:100D7800DE6F0001DE29030BDF6EABC1D9FFACC10A
:100D8800DAFF010EDF6E010E1200E8CF31F000012C
:100D980020EE19F00001E051D9260001E151DA22D4
:100DA800000EDF6E3AD0000120EE19F00001E0518C
:100DB800D9260001E151DA22DF502F6E2F50010DA4
:100DC800F3502D24D96EF4502E20DA6E000110EE67
:100DD80019F00001E051E1260001E151E222E7505B
:100DE800306E3050010D0F0EF326000EF422F35032
:100DF80000010001E025E16EF45000010001E1214D
:100E0800E26EDFCFE7FF000120EE19F00001E051AC
:100E1800D9260001E151DA22DF2A000120EE19F07B
:100E28000001E051D9260001E151DA22DF502F6E8E
:100E380031502F5CD8A0B7D7000120EE19F000017F
:100E4800E051D9260001E151DA2231C0DFFF00016B
:100E580020EE1AF00001E051D9260001E151DA2212
:100E6800010EDF6E000120EE0FF00001E051D926DF
:100E78000001E151DA22DF50C96EC6881200E8CFBE
:100E88002DF0000120EE0BF00001E051D926000101
:100E9800E151DA22010EDF6E000120EE0AF00001B6
:100EA800E051D9260001E151DA22000EDF6E2D5003
:100EB800D8B43DD0C7AA21D0000120EE0CF0000123
:100EC800E051D9260001E151DA22050EDF6E00015A
:100ED80020EE0EF00001E051D9260001E151DA229E
:100EE800DF2A000120EE0DF00001E051D9260001B3
:100EF800E151DA22050EDF6E1200C7A40CD0000102
:100F080020EE0CF00001E051D9260001E151DA226F
:100F1800080EDF6E1200000120EE0CF00001E05117
:100F2800D9260001E151DA22070EDF6E1200000116
:100F380020EE0CF00001E051D9260001E151DA223F
:100F4800060EDF6E1200000E2E6E000E2D6EB3EC34
:100F58000DF0DEEC0DF0C9EC0DF00009D8A4FBD7BC
:100F680031C0D9FF32C0DAFFDF50336E090E335C6F
:100F7800D8B00DD031C0D9FF32C0DAFFDF50336EA0
:100F8800332831C0D9FF32C0DAFFDF6E25D0000E1A
:100F9800366E010E356E3650800AF36E800EF35CA5
:100FA8000A0ED8B4355CD8A017D0010E3524336E9C
:100FB800000E3620346E33503124D96E345032202E
:100FC800DA6E35503124E16E36503220E26EDFCFD2
:100FD800E7FF354A362ADFD731C0D9FF32C0DAFFFA
:100FE800DF50336E3350010DF3503124D96EF45075
:100FF8003220DA6EC4CFDFFF12000DC012F0136A80
:1010080020EE34F00B50D9260C50DA22DF50146E43
:1010180014500D0DF3500B24156EF4500C20166E61
:1010280015C0D9FF16C0DAFFDF50D8B402D0FF0EC2
:10103800120020EE01F01550D9261650DA220DC004
:10104800DFFF20EE02F01550D9261650DA220EC026
:10105800DFFF030E1524016E000E1620026E10C06D
:1010680004F00FC003F012C005F013C006F016EC30
:101078000CF020EE34F00B50D9260C50DA2210EE8A
:1010880034F00B50E1260C50E222E750116E112883
:10109800030BDF6E15C0D9FF16C0DAFF010EDF6E35
:1010A800010E120039C03EF03F6A20EE34F037508E
:1010B800D9263850DA22DF50406E40500D0DF350DB
:1010C8003724416EF4503820426E41C0D9FF42C0E7
:1010D800DAFFDF50D8B402D0FF0E120020EE01F084
:1010E8004150D9264250DA2239C0DFFF20EE02F003
:1010F8004150D9264250DA223AC0DFFF030E41247C
:101108002D6E000E42202E6E3CC030F03BC02FF0FA
:101118003EC031F03FC032F036EC0CF020EE34F037
:101128003750D9263850DA2210EE34F03750E126FD
:101138003850E222E7503D6E3D28030BDF6E41C078
:10114800D9FF42C0DAFF010EDF6E010E1200E9CFAF
:10115800C8F0EACFC9F0E1CFCAF0E2CFCBF0D9CFDF
:10116800CCF0DACFCDF0F3CFCEF0F4CFCFF0F6CF8E
:10117800D0F0F7CFD1F0F8CFD2F0F5CFD3F09EA6CC
:101188000BD09E96000E00010001B86F480E0001BA
:101198000001B76F61EC00F0F2A409D0F2948A80E4
:1011A800000E326E480E316EA7EC07F08A9068EC9C
:1011B8000BF0D3C0F5FFD2C0F8FFD1C0F7FFD0C005
:1011C800F6FFCFC0F4FFCEC0F3FFCDC0DAFFCCC02E
:1011D800D9FFCBC0E2FFCAC0E1FFC9C0EAFFC8C05F
:1011E800E9FFC7C0FBFFC6C0FAFF11009EAA3CD0AA
:1011F80020EE04F05250D9265350DA22DF501B6EED
:101208001B50010DF3505224D96EF4505320DA6E5E
:1012180075EC0DF0DF6E20EE04F05250D9265350D5
:10122800DA22DF2A20EE04F05250D9265350DA226F
:10123800040EDF6219D01B6E1F0E176E1B5053C0B1
:1012480019F052C018F020EE04F05250D92653502D
:10125800DA22DF501EEC0DF020EE04F05250D926B1
:101268005350DA22000EDF6E47A61200AB98AB8807
:101278001B6E1E0E176E1B50000E196E000E186E98
:10128800000E1EEC0DF01200E8CFD9F0000EAC6E87
:10129800000EAB6E00010001D9B1AC88000100015D
:1012A800D9A302D0AC8CAB8C00010001D9B5AC8EAF
:1012B80000010001D9A702D0AB8801D0AB8A000198
:1012C8000001D9B9AC849E9800010001D9BBAB8656
:1012D80000010001D9AD02D09D8A01D09D9A9E9A45
:1012E80000010001D9AF02D09D8801D09D98D4C0DB
:1012F800AFFF0001D5C0D6F0D6C0D7F00001D86B3B
:101308000001D751B06EAC8AAB8E949C948EACA879
:101318001200ACBE1200948C120000010001D751DB
:10132800D611D8B43AD00001D86F010E00010001DF
:10133800D96F0001D85109D0000100010001D890EF
:10134800D637D73700010001D92B00010001D7AFEC
:10135800F3D700010001D65100010001D45D00015E
:101368000001D75100010001D559D8A00CD00001C7
:101378000001D65100010001D45F00010001D751DE
:1013880000010001D55B000100010001D890D733AE
:10139800D63300010001D92FDCD7D4C0D4F0D5C092
:1013A800D5F01200E8CFD8F0000EC26E000EC06E65
:1013B80000010001D890D4313C0BC26ED4C0D6F0E5
:1013C8000001D63BF00ED617300E0001D6170001EB
:1013D8000001D5510F0B0001D611C16ED8C0D6F04F
:1013E8000001D890D6370001D890D637380E0001C2
:1013F800D617D8C0D7F00001D73B0F0ED717070E66
:101408000001D71700010001D851800B0001D71146
:101418000001D611C06E00010001D4AF03D09E9C1C
:101428009D8CF28CC2801200B2EC0BF0000100011E
:10143800D9510001D811D8B412000001DA6F010E99
:10144800466E0001DA510101010E00010001D56F5D
:1014580001016C0E00010001D46FACEC0CF0000926
:10146800D8B407D00001DA6F000E466E0001DA51D9
:1014780012000001000E00010001D56F0001800E6E
:1014880000010001D46FACEC0CF00009D8B407D00F
:101498000001DA6F000E466E0001DA5112000A0EE2
:1014A80084EC0DF0D0D7000120EE34F00001D451C7
:1014B800D9260001D551DA22000EDF6E000120EE98
:1014C80035F00001D451D9260001D551DA22000E99
:1014D800DF6E0001D66F000E00010001D76F00011A
:1014E800D651030E00010001D76501D0120000019A
:1014F8000001D7510D0DF35000010001D425D96E1C
:10150800F45000010001D521DA6E000EDF6E0001F3
:101518000001D72B030E00010001D765E8D71200A0
:10152800B0C1D9FFB1C1DAFFDE2A000EDD22B0C199
:10153800D9FFB1C1DAFF0001DECFD4F00001DDCF61
:10154800D5F0000E00010001D76F0A0E0001D66F1A
:1015580091EC09F000010001D451090A0001D511EC
:10156800D8A412000101B86F140E01010101AD6F7A
:101578000101B85101010101B1C1AFF1010101013E
:10158800B0C1AEF1020E91EC0CF001010101B96F8E
:1015980012000001D86F000E466E0001D8510001FC
:1015A800000E00010001D56F0001800E000100014E
:1015B800D46F57EC0AF00101010E00010001D56F4C
:1015C80001016C0E00010001D46F57EC0AF0010113
:1015D800010E00010001D56F0101360E0001000166
:1015E800D46F57EC0AF00101010E00010001D56F1C
:1015F8000101000E00010001D46F57EC0AF012003F
:1016080000010001D5C0E1F000010001D4C0E0F004
:10161800000120EE0AF00001E051D9260001E15155
:10162800DA22000EDF6E000120EE0BF00001E0511F
:10163800D9260001E151DA22000EDF6E000120EE0A
:101648000CF00001E051D9260001E151DA22050E23
:10165800DF6E000120EE0EF00001E051D9260001F6
:10166800E151DA22000EDF6E120000010001D7C03E
:10167800DDF000010001D6C0DCF000010001D5C09A
:10168800DBF000010001D4C0DAF012D0DCC0D9FFD1
:10169800DDC0DAFFDAC0E1FFDBC0E2FFDFCFE7FF42
:1016A80000010001DC4BDD2B00010001DA4BDB2BD4
:1016B80000010001D807D8A0D9070001D829D8B45B
:1016C800D929D8B41200E2D7466601D01200DEEC60
:1016D8000CF030502F10D8A41200CFEC0DF02E5083
:1016E8002D10D8B412000101010E2E6E01016C0EEE
:1016F8002D6E44EC0DF00009D8A412000001000E74
:101708002E6E0001800E2D6E44EC0DF00009D8B449
:10171800D9EC0DF01200F2AC08D0000E0001000167
:10172800D76F000E0001D66F1200A1EC0DF000017A
:101738000001D5510001D411D8B408D0000E000121
:101748000001D76F000E0001D66F1200000E0001D5
:101758000001D76F010E0001D66F12008FEC0BF05D
:1017680000010001D7510001D611D8A411D0A1EC75
:101778000DF000010001D5510001D411D8A408D002
:10178800000E00010001D96F010E0001D86F120090
:10179800000E00010001D96F000E0001D86F120081
:1017A800E8CFB2F10001000E01010101A36F0001B1
:1017B800800E01010101A26FB2C1A4F10101010172
:1017C800AFC1A6F101010101AEC1A5F101010101FD
:1017D800B1C1A8F101010101B0C1A7F125EC05F0E3
:1017E8001200E8CFB2F10101010E01010101A36F5E
:1017F80001016C0E01010101A26FB2C1A4F1010146
:101808000101AFC1A6F101010101AEC1A5F10101BC
:101818000101B1C1A8F101010101B0C1A7F125EC95
:1018280005F0120004C00AF003C009F002C008F075
:1018380001C007F00ED009C0D9FF0AC0DAFF07C0FF
:10184800E1FF08C0E2FFDFCFE7FF094A0A2A074A9B
:10185800082A0506D8A006060528D8B40628D8B44C
:101868001200E9D730C036F02FC035F02EC034F062
:101878002DC033F00ED035C0D9FF36C0DAFF33C0E3
:10188800E1FF34C0E2FFDFCFE7FF354A362A334AAB
:10189800342A3106D8A032063128D8B43228D8B430
:1018A8001200E9D700010001D6511E0AD711D8B499
:1018B800120000010001D6511F0AD711D8A4120046
:1018C80000010001D85100010001DA25D96E00019C
:1018D8000001D95100010001DB21DA6E000EDF6E34
:1018E8001200E8CFD4F000010001D4517E0BCD6E78
:1018F80000010001D4AD02D0CD8E01D0CD9E000EE6
:10190800CF6E000ECE6E9E9000010001D4AF02D0C3
:101918009D8001D09D90CD801200E8CFDFF00101BD
:10192800010E01010101A36F0101000E0101010176
:10193800A26FDFC0A4F1ADC1A5F101010101AFC1E2
:10194800A7F101010101AEC1A6F147EC06F01200B2
:10195800000120EE35F00001D451D9260001D551FF
:10196800DA22DF500001D66F0001D6510D0DF35079
:1019780000010001D425D96EF45000010001D521E1
:10198800DA6EDF50120001EE00F0A20EEE6AE806F1
:10199800FDE100EE80F0360EEE6AE806FDE100EEAD
:1019A80046F00C0EEE6AE806FDE1000EF86E000146
:1019B80097EF03F0F2AC05D0000E306E000E2F6EDC
:1019C8001200CFEC0DF02E502D10D8B405D0000E1B
:1019D800306E000E2F6E1200000E306E010E2F6E4C
:1019E8001200E8CFD4F000010001D4517F0BD56E6E
:1019F800000ED76E000ED66EF29400010001D4AF2F
:101A080002D0F28A01D0F29AD58E1200E8CFD4F033
:101A180094869488D4C0C8FF000EC76E000EC66EA8
:101A2800000EC56E0E0EC612C78E94869488C580A9
:101A3800C68A1200E8CF1AF00001000E0C6E0001F1
:101A4800800E0B6E1AC00DF017C00EF019C010F002
:101A580018C00FF001EC08F01200E8CFB6F0010151
:101A6800010E386E01016C0E376EB6C039F043C0F6
:101A78003AF045C03CF044C03BF056EC08F0120088
:101A880020EE35F02D50D9262E50DA22DF502F6E59
:101A98002F500D0DF3502D24D96EF4502E20DA6EF0
:101AA800DF501200E8CFD5F0C2CFD4F0C30E00014A
:101AB800D41700010001D890D5313C0B0001D41196
:101AC800C26E12000001D5C053F00001D4C052F01C
:101AD80020EE04F05250D9265350DA22000EDF6E61
:101AE8001200F20E4716ABAC03D04790ABB047805C
:101AF800ABB44784ABB24786AECF01F001501200B9
:101B0800E8CFD4F0FA0E00F0E82EFDD7000100016E
:101B1800D42FF8D7120000010001DBC0DDF000016E
:101B28000001DAC0DCF01200D4C0D9FFD5C0DAFF5A
:101B3800000EDE6E000EDD6E1200000EF2AE010E1B
:101B480000010001D46F0001D56B120001C003F041
:101B580002C004F004C0CFFF03C0CEFF12002DC0A6
:101B68002FF02EC030F030C0D7FF2FC0D6FF1200A4
:101B7800000E026E000E016EAAEC0DF01200C2A259
:101B880002D0010E1200000E1200C2A202D0010EF5
:101B98001200000E1200000EF2AE010E2D6E2E6A1B
:101BA8001200D08EF28EF28C1200D38E0300120037
:081BB800C2821200C282120079
:067FF80080F4C5FFFFF15B
:00000001FF
