:040000005FEF00F0BE
:0C000800FACFA2F0FBCFA3F0F3EF08F05A
:10001800D8CF1CF0E8CF1DF0E0CF1EF0FACF1FF0CC
:10002800FBCF20F0E9CF21F0EACF22F0E1CF23F097
:10003800E2CF24F0D9CF25F0DACF26F0F3CF27F09E
:10004800F4CF28F0F6CF29F0F7CF2AF0F8CF2BF02D
:10005800F5CF2CF09EA007D09E90000E066E360EAF
:10006800056E1FEC0EF09EAA03D09E9A47EC09F08D
:100078002CC0F5FF2BC0F8FF2AC0F7FF29C0F6FFF8
:1000880028C0F4FF27C0F3FF26C0DAFF25C0D9FF38
:1000980024C0E2FF23C0E1FF22C0EAFF21C0E9FF3C
:1000A80020C0FBFF1FC0FAFF1EC0E0FF1DC0E8FF15
:1000B8001CC0D8FF1000CAEF0CF00001956F000EAD
:1000C80000010001A16F000195510001956F000E1C
:1000D800000100019C6F000195510001956F000E11
:1000E80000010001A06F000195510001956F000EFD
:1000F800000100019F6F000195510001956F000EEE
:10010800000100019D6F00019551C6AC29D0C69C25
:10011800000120EE1EF00001CD51D9260001CE517C
:10012800DA22050EDF6E0001956F010E0001000155
:100138009D6F00019551000120EE20F00001CD5186
:10014800D9260001CE51DA22DF2A000120EE1FF065
:100158000001CD51D9260001CE51DA22040EDF6EFE
:10016800C7A00AD0C9CF9EF00001956F010E00010B
:100178000001A16F00019551000100019D67CED1DA
:10018800B7D1C7A6CBD100010001A1513AEC08F0C4
:10019800000120EE1EF00001CD51D9260001CE51FC
:1001A800DA22080EDF62BAD10001956F000E000155
:1001B8000001A16F000195510001956F010E00012A
:1001C80000019F6F87D1C7A830D0000120EE1DF035
:1001D8000001CD51D9260001CE51DA22DF2A0001D3
:1001E8000001A151D8B479D1C7BA09D00001956FDF
:1001F800010E00010001A06F000195516ED10001B0
:1002080020EE20F00001CD51D9260001CE51DA228E
:10021800DF2A000120EE1FF00001CD51D926000190
:10022800CE51DA22060EDF6E58D100010001A1512D
:10023800D8B474D1000120EE1DF00001CD51D926AB
:100248000001CE51DA22DF2AC7BA19D0C7B40BD0C1
:10025800000120EE1EF00001CD51D9260001CE513B
:10026800DA22070E76D0000120EE1EF00001CD51F3
:10027800D9260001CE51DA22080EDF6E1DD1000109
:1002880020EE20F00001CD51D9260001CE51DA220E
:10029800DF2A000120EE1EF00001CD51D926000111
:1002A800CE51DA22050EDF6E000120EE1FF00001AC
:1002B800CD51D9260001CE51DA22060E4AD00001CE
:1002C80020EE3EF00001CD51D9260001CE51DA22B0
:1002D800DF500001956F000120EE3DF00001CD5187
:1002E800D9260001CE51DA22DF500001955DD8B041
:1002F800F4D0000120EE3EF00001CD51D9260001D6
:10030800CE51DA22DF500001956F00019551010DA1
:10031800210EF326000EF422F35000010001CD2532
:10032800D96EF45000010001CE21DA6EDF50C96E9B
:10033800000120EE3EF00001CD51D9260001CE513A
:10034800DA22DF2A0001956F010E000100019C6F7F
:10035800C1D0DF6EE3D0C7A862D0000120EE1DF047
:100368000001CD51D9260001CE51DA22DF2A000141
:100378000001A151D8B44AD0C7AA27D0000120EE65
:100388001CF00001CD51D9260001CE51DA22DF50F0
:100398000001956F00019551010DF3500001000116
:1003A800CD25D96EF45000010001CE21DA6E00018E
:1003B8009EC0DFFF000120EE1CF00001CD51D926C0
:1003C8000001CE51DA22DF2A21D0000120EE20F0F0
:1003D8000001CD51D9260001CE51DA22DF2A0001D1
:1003E80020EE1FF00001CD51D9260001CE51DA22AE
:1003F800060EDF6E000120EE1EF00001CD51D92659
:100408000001CE51DA22050EDF6E67D00001956F2C
:10041800010E00010001A06F000195515ED000019E
:100428000001A151D8B47AD0000120EE1DF00001DE
:10043800CD51D9260001CE51DA22DF2AC7AA27D00A
:10044800000120EE1CF00001CD51D9260001CE514B
:10045800DA22DF500001956F00019551010DF3502C
:1004680000010001CD25D96EF45000010001CE2114
:10047800DA6E00019EC0DFFF000120EE1CF00001D3
:10048800CD51D9260001CE51DA22DF2A47D0C7A4A0
:10049800B6D6000120EE1EF00001CD51D92600018C
:1004A800CE51DA22080EDF6E0001956F010E0001B1
:1004B8000001A06F000195510001956F010E000128
:1004C80000019F6F000195510001956F000E00011A
:1004D8000001A16F0001955121D0000120EE1EF00E
:1004E8000001CD51D9260001CE51DA22050E31D7AF
:1004F800000120EE1EF00001CD51D9260001CE5199
:10050800DA22DF50050AD8B43CD6030AD8B45BD641
:10051800010AD8B420D70F0AD8B4D1D600010001F7
:10052800A16705D0000100019C51D8B402D0C6A82B
:10053800C688000120EE1CF00001CD51D92600012B
:10054800CE51DA221A0EDF6424D000010001A06720
:1005580020D0000120EE1EF00001CD51D926000167
:10056800CE51DA22050EDF6E000120EE20F00001E8
:10057800CD51D9260001CE51DA22DF2A000120EE22
:100588001FF00001CD51D9260001CE51DA22070E05
:10059800DF6E00010001A051D8B448D0000120EE60
:1005A8001DF00001CD51D9260001CE51DA220001FB
:1005B80010EE1CF00001CD51E1260001CE51E222DF
:1005C800E7500001956F00019551010DF3500001AE
:1005D8000001CD25E16EF45000010001CE21E26E4C
:1005E800DFCFE7FF0001956F280E000100018F6F34
:1005F8000001955100010001CEC091F000010001F9
:10060800CDC090F0000120EE1CF00001CD51D9269C
:100618000001CE51DA22DF500001966F00019629C1
:1006280039EC0DF0000120EE1CF04BD0000120EE5B
:1006380020F00001CD51D9260001CE51DA22DF5039
:10064800D8B447D0000120EE20F00001CD51D926C2
:100658000001CE51DA22DF5000010001996F00013C
:1006680020EE1FF00001CD51D9260001CE51DA222B
:10067800DF50000100019A6F000120EE1DF000011B
:10068800CD51D9260001CE51DA22DF5000010001F8
:100698009B6F0001956F290E000100018F6F00010B
:1006A80095510001000E00010001916F0001990EA3
:1006B80000010001906F030E39EC0DF0000120EEEF
:1006C80020F00001CD51D9260001CE51DA22000ECA
:1006D800DF6E000100019F51D8B41200000E000126
:1006E8000001986F000E0001976FAA0ECDC0D9FFC8
:1006F800CEC0DAFFDF6218D0000E00010001986F4B
:100708001C0E0001976F000194C02EF0000193C0E9
:100718002DF00001000197514FEC07F093C0D9FF6D
:1007280094C0DAFF000EDF6E0001956F000E000125
:1007380000019F6F000195511200820ED36E9B8CB1
:100748000101010E00010001B16F0101AA0E0001B3
:100758000001B06FC9EC0DF00101010E00010001AC
:10076800B16F0101B30E00010001B06F51EC0BF045
:100778000101010E00010001B16F0101AF0E00017E
:100788000001B06FFBEC0DF01AEC0BF0000E936E4D
:10079800000E8A6E000E806E000E896E0F0E926E2D
:1007A800D40E6BEC0DF0850EE7EC0CF09F8C9F904F
:1007B8009F9A9F869E0E80EC0DF09D86000E00018C
:1007C8000001B16F190E0001B06F6C0E95EC09F0C5
:1007D80038EC0EF00101866F0C0E00010001B06FBD
:1007E800010186510101876F0B0E00010001B16FF5
:1007F80001018751150E23EC0AF08F0EB9EC0DF0AC
:1008080065EC0AF00101010E00010001C96F010148
:10081800B10E00010001C86F0101010E00010001C5
:10082800CB6F0101880E00010001CA6F1C0E6AEC33
:100838000CF001010101B26F01010101B2BF8ED0BC
:100848007ED00101010E00010001B16F0101A70E68
:1008580000010001B06F01010001B1C1B2F0000157
:100868000001B36B01010101B25100010001B46F35
:100878000001B56B0001B4BFB5070101010E00010D
:100888000001B76F0101880E00010001B66FF2EC9C
:100898000DF064D088C1A9F161D00101866F020E04
:1008A80001010101B26F010186513FEC0EF026EC07
:1008B8000EF00009D8A4FBD7C4CF88F10101866FD8
:1008C800AA0E01010101896F0CD00101866F010E8A
:1008D80001010101B26F010186510101866F3A0ED3
:1008E8000ED0010186511BD00101866F010E010156
:1008F8000101B26F010186510101866FA30E01014A
:100908000101886FEED701010101A951A80AD8B4E5
:10091800DCD7010AD8B4E8D7030AD8B4BED7010196
:10092800010E00010001B16F0101880E00010001F4
:10093800B06F01010101B251CBEC05F00FD00101FC
:100948000101B1510A0AD8B47CD7220AD8B4A2D777
:10095800010AD8B49FD7030AD8B4D5D70101010E2C
:1009680000010001C96F0101B10E00010001C86F4B
:100978000101010E00010001CB6F0101880E000189
:100988000001CA6F1C0E49EC0CF001010101B26FA5
:1009980001010101B2BF34D752D00101010E01019A
:1009A80001017F6F0101AF0E010101017E6F01019D
:1009B8000101B1C180F101010101816B0101010156
:1009C800B25101010101826F0101836B010182BFF4
:1009D80083070101010E01010101856F0101880EE4
:1009E80001010101846FE1EC0AF00AD70101010E4F
:1009F80000010001B16F0101A50E00010001B06FF7
:100A080001010001B1C1B2F000010001B36B0101A5
:100A18000101B25100010001B46F0001B56B000182
:100A2800B4BFB5070101010E00010001B76F010154
:100A3800880E00010001B66FABEC0CF0E1D60101A5
:100A48000101B1510B0AD8B4A8D7150AD8B4CED72A
:100A5800010AD8B4CBD7D4D6000120EE7DF000012E
:100A6800BA51D9260001BB51DA22DF50000100013A
:100A7800C36F00010001C3511F0DF35000010001B5
:100A8800BA2500010001C66FF45000010001BB2126
:100A98000001C76F010EC6C0D9FFC7C0DAFFDF6209
:100AA80074D0000120EE01F00001C651D9260001E2
:100AB800C751DA22DF5000010001BC5DD8B002D076
:100AC800FD0E1200000120EE01F00001C651D926EA
:100AD8000001C751DA22DF500001C16F0001C15186
:100AE80000010001C46F0001C56B00010001C0C016
:100AF800B1F000010001BFC0B0F0030E0001000119
:100B0800C6250001C16F000E00010001C7210001C8
:100B1800C26FC1C0B2F0C2C0B3F0C4C0B4F0C5C0A7
:100B2800B5F086EC0BF0000120EE7DF00001BA5123
:100B3800D9260001BB51DA22000110EE7DF0000138
:100B4800BA51E1260001BB51E222E7500001C16F12
:100B58000001C129030BDF6E000120EE02F0000145
:100B6800C651D9260001C751DA22BDC0E1FFBEC077
:100B7800E2FFDFCFE7FFC6C0D9FFC7C0DAFF000E2C
:100B8800DF6E00010001C4511200FC0E1200E8CF14
:100B9800B4F0000120EE3DF00001CD51D92600014E
:100BA800CE51DA22000EDF6E42D0000120EE3DF079
:100BB8000001CD51D9260001CE51DA22DF500001C3
:100BC800B26F0001B251010DF35000010001B025D0
:100BD800D96EF45000010001B121DA6E000110EE67
:100BE8003DF00001CD51E1260001CE51E222E7504F
:100BF8000001B36F0001B351010D210EF326000E61
:100C0800F422F35000010001CD25E16EF4500001FB
:100C18000001CE21E26EDFCFE7FF000120EE3DF0BC
:100C28000001CD51D9260001CE51DA22DF2A000178
:100C380020EE3DF00001CD51D9260001CE51DA2237
:100C4800DF500001B26F00010001B4510001B25D34
:100C5800D8A0ABD7000120EE3DF00001CD51D92638
:100C68000001CE51DA220001B4C0DFFF000120EEFE
:100C78003EF00001CD51D9260001CE51DA22010EF5
:100C8800DF6E000120EE21F00001CD51D9260001D0
:100C9800CE51DA22DF50C96EC68812000001000169
:100CA800BCC0C1F000010001C26B000120EE7CF065
:100CB8000001BA51D9260001BB51DA22DF500001E8
:100CC8000001C36F00010001C3511F0DF350000163
:100CD8000001BA2500010001C46FF45000010001B1
:100CE800BB210001C56FC4C0D9FFC5C0DAFFDF5002
:100CF800D8B402D0FF0E1200000120EE01F000016E
:100D0800C451D9260001C551DA220001BCC0DFFF59
:100D1800000120EE02F00001C451D9260001C5519E
:100D2800DA220001BDC0DFFF030E00010001C42567
:100D380000010001B06F000E00010001C521000193
:100D4800B16F00010001BFC0B3F000010001BEC0D7
:100D5800B2F0C1C0B4F0C2C0B5F086EC0BF000012F
:100D680020EE7CF00001BA51D9260001BB51DA22ED
:100D7800000110EE7CF00001BA51E1260001BB51E0
:100D8800E222E7500001C06F0001C029030BDF6EAB
:100D9800C4C0D9FFC5C0DAFF010EDF6E010E120014
:100DA8000001000186C08AF0000100018B6B000180
:100DB80020EE7CF000018451D92600018551DA2209
:100DC800DF50000100018C6F000100018C511F0DE4
:100DD800F350000100018425000100018D6FF450DB
:100DE80000010001852100018E6F8DC0D9FF8EC0E2
:100DF800DAFFDF50D8B402D0FF0E1200000120EE57
:100E080001F000018D51D92600018E51DA2200012E
:100E180086C0DFFF000120EE02F000018D51D926C7
:100E280000018E51DA22000187C0DFFF030E0001A6
:100E380000018D252D6E000E000100018E212E6E01
:100E4800000189C030F0000188C02FF08AC031F05D
:100E58008BC032F0B5EC0BF0000120EE7CF0000105
:100E68008451D92600018551DA22000110EE7CF068
:100E780000018451E12600018551E222E750336EDA
:100E88003328030BDF6E8DC0D9FF8EC0DAFF010E49
:100E9800DF6E010E1200E8CF31F0000120EE3DF0C8
:100EA8000001CD51D9260001CE51DA22000EDF6EA5
:100EB8003AD0000120EE3DF00001CD51D9260001C5
:100EC800CE51DA22DF502F6E2F50010DF3502D2412
:100ED800D96EF4502E20DA6E000110EE3DF00001BC
:100EE800CD51E1260001CE51E222E750306E30505C
:100EF800010D210EF326000EF422F350000100012B
:100F0800CD25E16EF45000010001CE21E26EDFCF65
:100F1800E7FF000120EE3DF00001CD51D926000188
:100F2800CE51DA22DF2A000120EE3DF00001CD513A
:100F3800D9260001CE51DA22DF502F6E31502F5CB6
:100F4800D8A0B7D7000120EE3DF00001CD51D92639
:100F58000001CE51DA2231C0DFFF000120EE3EF061
:100F68000001CD51D9260001CE51DA22010EDF6EE3
:100F7800000120EE21F00001CD51D9260001CE510B
:100F8800DA22DF50C96EC6881200000E2E6E000EDF
:100F98002D6E16EC0EF041EC0EF02CEC0EF0000964
:100FA800D8A4FBD731C0D9FF32C0DAFFDF50000127
:100FB800806F1B0E0001805DD8B00FD031C0D9FF03
:100FC80032C0DAFFDF500001806F0001802931C094
:100FD800D9FF32C0DAFFDF6E36D0000E0001000103
:100FE800836F010E0001826F000100018351800AA6
:100FF800800F1B0ED8B4825DD8B025D0010E000139
:10100800000182250001806F000E0001000183218C
:101018000001816F000180513124D96E0001815196
:101028003220DA6E0001000182513124E16E0001A4
:10103800000183513220E26EDFCFE7FF000100019B
:10104800824B832BD1D731C0D9FF32C0DAFFDF50B2
:101058000001806F00018051010DF3503124D96ED9
:10106800F4503220DA6EC4CFDFFF1200E8CF2DF043
:10107800000120EE1DF00001CD51D9260001CE510E
:10108800DA22010EDF6E000120EE1CF00001CD51C6
:10109800D9260001CE51DA22000EDF6E2D50D8B4C9
:1010A8003DD0C7AA21D0000120EE1EF00001CD518D
:1010B800D9260001CE51DA22050EDF6E000120EE9E
:1010C80020F00001CD51D9260001CE51DA22DF2AC5
:1010D800000120EE1FF00001CD51D9260001CE51AC
:1010E800DA22050EDF6E1200C7A40CD0000120EE34
:1010F8001EF00001CD51D9260001CE51DA22080E8A
:10110800DF6E1200000120EE1EF00001CD51D9263D
:101118000001CE51DA22070EDF6E1200000120EE28
:101128001EF00001CD51D9260001CE51DA22060E5B
:10113800DF6E12000DC012F0136A20EE7CF00B5027
:10114800D9260C50DA22DF50146E14501F0DF350BC
:101158000B24156EF4500C20166E15C0D9FF16C05E
:10116800DAFFDF50D8B402D0FF0E120020EE01F0F3
:101178001550D9261650DA220DC0DFFF20EE02F0F6
:101188001550D9261650DA220EC0DFFF030E15249B
:10119800016E000E1620026E10C004F00FC003F09E
:1011A80012C005F013C006F08BEC0CF020EE7CF0BA
:1011B8000B50D9260C50DA2210EE7CF00B50E126A9
:1011C8000C50E222E750116E1128030BDF6E15C098
:1011D800D9FF16C0DAFF010EDF6E010E1200E9CF4B
:1011E800A4F0EACFA5F0E1CFA6F0E2CFA7F0D9CFDF
:1011F800A8F0DACFA9F0F3CFAAF0F4CFABF0F6CF8E
:10120800ACF0F7CFADF0F8CFAEF0F5CFAFF09EA6CB
:101218000BD09E96000E00010001946F360E00015F
:101228000001936F61EC00F09EAC03D09E9C8A8213
:101238008A92F2A409D0F2948A80000E326E360E99
:10124800316EC9EC07F08A90DDEC0BF0AFC0F5FF0A
:10125800AEC0F8FFADC0F7FFACC0F6FFABC0F4FFFF
:10126800AAC0F3FFA9C0DAFFA8C0D9FFA7C0E2FF50
:10127800A6C0E1FFA5C0EAFFA4C0E9FFA3C0FBFF29
:10128800A2C0FAFF11009EAA3CD020EE04F05250F2
:10129800D9265350DA22DF501B6E1B50010DF35034
:1012A8005224D96EF4505320DA6ED8EC0DF0DF6E6C
:1012B80020EE04F05250D9265350DA22DF2A20EECD
:1012C80004F05250D9265350DA22040EDF6219D0A6
:1012D8001B6E1F0E176E1B5053C019F052C018F02A
:1012E80020EE04F05250D9265350DA22DF5094EC05
:1012F8000DF020EE04F05250D9265350DA22000E99
:10130800DF6E35A61200AB98AB881B6E1E0E176EEB
:101318001B50000E196E000E186E000E94EC0DF0A6
:101328001200E8CFB5F0000EAC6E000EAB6E0001F7
:101338000001B5B1AC8800010001B5A302D0AC8CA6
:10134800AB8C00010001B5B5AC8E00010001B5A75A
:1013580002D0AB8801D0AB8A00010001B5B9AC84DA
:101368009E9800010001B5BBAB8600010001B5AD38
:1013780002D09D8A01D09D9A9E9A00010001B5AFC6
:1013880002D09D8801D09D98B0C0AFFF0001B1C0C8
:10139800B2F0B2C0B3F00001B46B0001B351B06E4B
:1013A800AC8AAB8E949C948EACA81200ACBE120092
:1013B800948C120000010001B351B211D8B43AD094
:1013C8000001B46F010E00010001B56F0001B451B6
:1013D80009D0000100010001D890B237B3370001ED
:1013E8000001B52B00010001B3AFF3D700010001E4
:1013F800B25100010001B05D00010001B3510001CC
:101408000001B159D8A00CD000010001B25100016F
:101418000001B05F00010001B35100010001B15BA0
:10142800000100010001D890B333B233000100017C
:10143800B52FDCD7B0C0B0F0B1C0B1F01200E8CF22
:10144800B4F0000EC26E000EC06E00010001D8900C
:10145800B0313C0BC26EB0C0B2F00001B23BF00E2E
:10146800B217300E0001B21700010001B1510F0B85
:101478000001B211C16EB4C0B2F00001D890B23709
:101488000001D890B237380E0001B217B4C0B3F0DB
:101498000001B33B0F0EB317070E0001B31700018D
:1014A8000001B451800B0001B3110001B211C06EEC
:1014B80000010001B0AF03D09E9C9D8CF28CC280CD
:1014C800120027EC0CF000010001B5510001B41125
:1014D800D8B412000001B66F010E346E0001B65187
:1014E8000201020E00010001B16F02017E0E00012F
:1014F8000001B06F1EEC0DF00009D8B407D0000150
:10150800B66F000E346E0001B65112000101010ED3
:1015180000010001B16F0101000E00010001B06F70
:101528001EEC0DF00009D8B407D00001B66F000E0C
:10153800346E0001B65112000A0EE7EC0DF0D0D758
:10154800000120EE7CF00001B051D9260001B15114
:10155800DA22000EDF6E000120EE7DF00001B051AE
:10156800D9260001B151DA22000EDF6E0001B26FF8
:10157800000E00010001B36F0001B251030E00011B
:101588000001B36501D0120000010001B3511F0D25
:10159800F35000010001B025D96EF450000100019C
:1015A800B121DA6E000EDF6E00010001B32B030ECD
:1015B80000010001B365E8D712007EC1D9FF7FC1E1
:1015C800DAFFDE2A000EDD227EC1D9FF7FC1DAFFF5
:1015D8000001DECFB0F00001DDCFB1F0000E000158
:1015E8000001B36F0A0E0001B26FDEEC09F00001D2
:1015F8000001B051090A0001B111D8A4120000017C
:10160800CA6F140E00010001C66F0001CA51010122
:1016180000017FC1C8F0010100017EC1C7F0020EC0
:1016280003EC0DF000010001CB6F12000001B46F54
:10163800000E346E0001B4510101010E00010001D9
:10164800B16F0101000E00010001B06FA4EC0AF0B7
:101658000201020E00010001B16F02017E0E0001BD
:101668000001B06FA4EC0AF00201020E00010001B3
:10167800B16F0201000E00010001B06FA4EC0AF086
:101688000301030E00010001B16F0301000E000108
:101698000001B06FA4EC0AF0120000010001B1C013
:1016A800CEF000010001B0C0CDF0000120EE1CF02A
:1016B8000001CD51D9260001CE51DA22000EDF6E8D
:1016C800000120EE1DF00001CD51D9260001CE51B8
:1016D800DA22000EDF6E000120EE1EF00001CD516F
:1016E800D9260001CE51DA22050EDF6E000120EE68
:1016F80020F00001CD51D9260001CE51DA22000E8A
:10170800DF6E120000010001B3C0B9F00001000152
:10171800B2C0B8F000010001B1C0B7F0000100018B
:10172800B0C0B6F012D0B8C0D9FFB9C0DAFFB6C0A1
:10173800E1FFB7C0E2FFDFCFE7FF00010001B84BD0
:10174800B92B00010001B64BB72B00010001B4070B
:10175800D8A0B5070001B429D8B4B529D8B4120067
:10176800E2D7000130C083F000012FC082F00001F1
:101778002EC081F000012DC080F012D082C0D9FFA8
:1017880083C0DAFF80C0E1FF81C0E2FFDFCFE7FF5F
:1017980000010001824B832B00010001804B812B4B
:1017A8003106D8A032063128D8B43228D8B412006D
:1017B800E5D7346601D0120054EC0DF030502F10EC
:1017C800D8A4120032EC0EF02E502D10D8B412000E
:1017D8000201020E2E6E02017E0E2D6EA7EC0DF098
:1017E8000009D8A412000101010E2E6E0101000E9D
:1017F8002D6EA7EC0DF00009D8B43CEC0EF01200E9
:10180800F2AC08D0000E00010001B36F000E000119
:10181800B26F120004EC0EF000010001B15100019A
:10182800B011D8B408D0000E00010001B36F000E4B
:101838000001B26F1200000E00010001B36F010E2B
:101848000001B26F120004EC0CF000010001B3516A
:101858000001B211D8A411D004EC0EF0000100016F
:10186800B1510001B011D8A408D0000E0001000148
:10187800B56F010E0001B46F1200000E00010001E7
:10188800B56F000E0001B46F1200E8CFCCF0010173
:10189800010E00010001BB6F0101000E00010001F3
:1018A800BA6FCCC0BCF000010001C9C0BEF0000195
:1018B8000001C8C0BDF000010001CBC0C0F00001AC
:1018C8000001CAC0BFF030EC05F01200E8CFCCF040
:1018D8000201020E00010001BB6F02017E0E000131
:1018E8000001BA6FCCC0BCF000010001C9C0BEF055
:1018F80000010001C8C0BDF000010001CBC0C0F06C
:1019080000010001CAC0BFF030EC05F0120004C0AD
:101918000AF003C009F002C008F001C007F00ED0B9
:1019280009C0D9FF0AC0DAFF07C0E1FF08C0E2FF1B
:10193800DFCFE7FF094A0A2A074A082A0506D8A07E
:1019480006060528D8B40628D8B41200E9D700013D
:101958000001B2511E0AB311D8B4120000010001EF
:10196800B2511F0AB311D8A4120000010001B451EA
:1019780000010001B625D96E00010001B551000132
:101988000001B721DA6E000EDF6E120003EE00F0E0
:101998007E0EEE6AE806FDE102EE00F0FC0EEE6A4D
:1019A800E806FDE101EE00F07E0EEE6AE806FDE1D4
:1019B80000EE34F01E0EEE6AE806FDE1000EF86E49
:1019C8000001A1EF03F0E8CFB0F000010001B05131
:1019D8007E0BCD6E00010001B0AD02D0CD8E01D0DE
:1019E800CD9E000ECF6E000ECE6E9E9000010001BF
:1019F800B0AF02D09D8001D09D90CD801200E8CF7D
:101A0800C9F00301030E00010001BB6F0301000EC2
:101A180000010001BA6FC9C0BCF0C6C0BDF000012A
:101A28000001C8C0BFF000010001C7C0BEF052EC01
:101A380006F01200000120EE7DF00001B051D92619
:101A48000001B151DA22DF500001B26F0001B2513A
:101A58001F0DF35000010001B025D96EF4500001AC
:101A68000001B121DA6EDF501200E8CF92F00201D6
:101A7800020E00010001856F02017E0E00010001C7
:101A8800846F92C086F08FC087F00001000191C07A
:101A980089F00001000190C088F0D4EC06F0120033
:101AA800F2AC05D0000E306E000E2F6E120032EC34
:101AB8000EF02E502D10D8B405D0000E306E000E4A
:101AC8002F6E1200000E306E010E2F6E1200E8CF3E
:101AD800B0F000010001B0517F0BD56E000ED76E3B
:101AE800000ED66EF29400010001B0AF02D0F28A67
:101AF80001D0F29AD58E1200E8CFB0F0948694887F
:101B0800B0C0C8FF000EC76E000EC66E000EC56ED0
:101B18000E0EC612C78E94869488C580C68A120097
:101B2800E8CF1AF00101010E0C6E0101000E0B6ED8
:101B38001AC00DF017C00EF019C010F018C00FF041
:101B48009EEC08F0120020EE7DF02D50D9262E5084
:101B5800DA22DF502F6E2F501F0DF3502D24D96E2F
:101B6800F4502E20DA6EDF501200E8CFB1F0C2CF69
:101B7800B0F0C30E0001B01700010001D890B131D8
:101B88003C0B0001B011C26E12000001B1C053F04D
:101B98000001B0C052F020EE04F05250D926535044
:101BA800DA22000EDF6E1200F20E3516ABAC03D04F
:101BB8003590ABB03580ABB43584ABB23586AECF9B
:101BC80001F001501200E8CFB0F0FA0E00F0E82E54
:101BD800FDD700010001B02FF8D712000001000165
:101BE800B7C0B9F000010001B6C0B8F01200B0C02B
:101BF800D9FFB1C0DAFF000EDE6E000EDD6E1200F6
:101C0800000EF2AE010E00010001B06F0001B16BD1
:101C1800120001C003F002C004F004C0CFFF03C0EB
:101C2800CEFF12002DC02FF02EC030F030C0D7FFED
:101C38002FC0D6FF1200000E026E000E016E0DECD2
:101C48000EF01200C2A202D0010E1200000E120005
:101C5800C2A202D0010E1200000E1200000EF2AE57
:101C6800010E2D6E2E6A1200D08EF28EF28C1200AA
:0E1C7800D38E03001200C2821200C28212003C
:067FF80080F4C5FFFFF15B
:00000001FF
